{
	"PrivateStreamMezo.sol": {
		"PrivateStreamMezo": {
			"abi": [
				{
					"inputs": [
						{
							"internalType": "address",
							"name": "_treasury",
							"type": "address"
						},
						{
							"internalType": "uint256",
							"name": "_feeBps",
							"type": "uint256"
						},
						{
							"internalType": "uint256",
							"name": "_revenueCapWei",
							"type": "uint256"
						}
					],
					"stateMutability": "nonpayable",
					"type": "constructor"
				},
				{
					"anonymous": false,
					"inputs": [
						{
							"indexed": true,
							"internalType": "uint256",
							"name": "id",
							"type": "uint256"
						},
						{
							"indexed": true,
							"internalType": "address",
							"name": "buyer",
							"type": "address"
						},
						{
							"indexed": false,
							"internalType": "uint256",
							"name": "amount",
							"type": "uint256"
						},
						{
							"indexed": false,
							"internalType": "uint256",
							"name": "expiresAt",
							"type": "uint256"
						}
					],
					"name": "AccessPurchased",
					"type": "event"
				},
				{
					"anonymous": false,
					"inputs": [
						{
							"indexed": true,
							"internalType": "uint256",
							"name": "id",
							"type": "uint256"
						},
						{
							"indexed": true,
							"internalType": "address",
							"name": "creator",
							"type": "address"
						},
						{
							"indexed": false,
							"internalType": "string",
							"name": "cid",
							"type": "string"
						},
						{
							"indexed": false,
							"internalType": "uint256",
							"name": "price",
							"type": "uint256"
						},
						{
							"indexed": false,
							"internalType": "uint256",
							"name": "duration",
							"type": "uint256"
						}
					],
					"name": "CampaignCreated",
					"type": "event"
				},
				{
					"anonymous": false,
					"inputs": [
						{
							"indexed": true,
							"internalType": "uint256",
							"name": "id",
							"type": "uint256"
						}
					],
					"name": "CampaignDeactivated",
					"type": "event"
				},
				{
					"anonymous": false,
					"inputs": [
						{
							"indexed": true,
							"internalType": "uint256",
							"name": "id",
							"type": "uint256"
						},
						{
							"indexed": false,
							"internalType": "uint256",
							"name": "total",
							"type": "uint256"
						}
					],
					"name": "RevenueCapReached",
					"type": "event"
				},
				{
					"inputs": [
						{
							"internalType": "uint256",
							"name": "",
							"type": "uint256"
						},
						{
							"internalType": "address",
							"name": "",
							"type": "address"
						}
					],
					"name": "accessExpiry",
					"outputs": [
						{
							"internalType": "uint256",
							"name": "",
							"type": "uint256"
						}
					],
					"stateMutability": "view",
					"type": "function"
				},
				{
					"inputs": [
						{
							"internalType": "uint256",
							"name": "",
							"type": "uint256"
						}
					],
					"name": "campaigns",
					"outputs": [
						{
							"internalType": "uint256",
							"name": "id",
							"type": "uint256"
						},
						{
							"internalType": "address",
							"name": "creator",
							"type": "address"
						},
						{
							"internalType": "string",
							"name": "metadataCID",
							"type": "string"
						},
						{
							"internalType": "uint256",
							"name": "priceWei",
							"type": "uint256"
						},
						{
							"internalType": "uint256",
							"name": "durationSeconds",
							"type": "uint256"
						},
						{
							"internalType": "uint256",
							"name": "totalRevenueWei",
							"type": "uint256"
						},
						{
							"internalType": "bool",
							"name": "active",
							"type": "bool"
						},
						{
							"internalType": "bool",
							"name": "soldOut",
							"type": "bool"
						}
					],
					"stateMutability": "view",
					"type": "function"
				},
				{
					"inputs": [
						{
							"internalType": "string",
							"name": "metadataCID",
							"type": "string"
						},
						{
							"internalType": "uint256",
							"name": "priceWei",
							"type": "uint256"
						},
						{
							"internalType": "uint256",
							"name": "durationSeconds",
							"type": "uint256"
						}
					],
					"name": "createCampaign",
					"outputs": [
						{
							"internalType": "uint256",
							"name": "id",
							"type": "uint256"
						}
					],
					"stateMutability": "nonpayable",
					"type": "function"
				},
				{
					"inputs": [
						{
							"internalType": "address",
							"name": "",
							"type": "address"
						}
					],
					"name": "creatorCampaignId",
					"outputs": [
						{
							"internalType": "uint256",
							"name": "",
							"type": "uint256"
						}
					],
					"stateMutability": "view",
					"type": "function"
				},
				{
					"inputs": [
						{
							"internalType": "uint256",
							"name": "id",
							"type": "uint256"
						}
					],
					"name": "deactivateCampaign",
					"outputs": [],
					"stateMutability": "nonpayable",
					"type": "function"
				},
				{
					"inputs": [
						{
							"internalType": "uint256",
							"name": "id",
							"type": "uint256"
						}
					],
					"name": "getCampaign",
					"outputs": [
						{
							"components": [
								{
									"internalType": "uint256",
									"name": "id",
									"type": "uint256"
								},
								{
									"internalType": "address",
									"name": "creator",
									"type": "address"
								},
								{
									"internalType": "string",
									"name": "metadataCID",
									"type": "string"
								},
								{
									"internalType": "uint256",
									"name": "priceWei",
									"type": "uint256"
								},
								{
									"internalType": "uint256",
									"name": "durationSeconds",
									"type": "uint256"
								},
								{
									"internalType": "uint256",
									"name": "totalRevenueWei",
									"type": "uint256"
								},
								{
									"internalType": "bool",
									"name": "active",
									"type": "bool"
								},
								{
									"internalType": "bool",
									"name": "soldOut",
									"type": "bool"
								}
							],
							"internalType": "struct PrivateStreamMezo.Campaign",
							"name": "",
							"type": "tuple"
						}
					],
					"stateMutability": "view",
					"type": "function"
				},
				{
					"inputs": [
						{
							"internalType": "address",
							"name": "creator",
							"type": "address"
						}
					],
					"name": "getCampaignByCreator",
					"outputs": [
						{
							"internalType": "uint256",
							"name": "",
							"type": "uint256"
						}
					],
					"stateMutability": "view",
					"type": "function"
				},
				{
					"inputs": [
						{
							"internalType": "uint256",
							"name": "id",
							"type": "uint256"
						},
						{
							"internalType": "address",
							"name": "buyer",
							"type": "address"
						}
					],
					"name": "hasAccess",
					"outputs": [
						{
							"internalType": "bool",
							"name": "valid",
							"type": "bool"
						},
						{
							"internalType": "uint256",
							"name": "expiresAt",
							"type": "uint256"
						}
					],
					"stateMutability": "view",
					"type": "function"
				},
				{
					"inputs": [
						{
							"internalType": "address",
							"name": "",
							"type": "address"
						}
					],
					"name": "hasCampaign",
					"outputs": [
						{
							"internalType": "bool",
							"name": "",
							"type": "bool"
						}
					],
					"stateMutability": "view",
					"type": "function"
				},
				{
					"inputs": [],
					"name": "platformFeeBps",
					"outputs": [
						{
							"internalType": "uint256",
							"name": "",
							"type": "uint256"
						}
					],
					"stateMutability": "view",
					"type": "function"
				},
				{
					"inputs": [],
					"name": "platformTreasury",
					"outputs": [
						{
							"internalType": "address",
							"name": "",
							"type": "address"
						}
					],
					"stateMutability": "view",
					"type": "function"
				},
				{
					"inputs": [
						{
							"internalType": "uint256",
							"name": "id",
							"type": "uint256"
						}
					],
					"name": "purchaseAccess",
					"outputs": [],
					"stateMutability": "payable",
					"type": "function"
				},
				{
					"inputs": [],
					"name": "revenueCapWei",
					"outputs": [
						{
							"internalType": "uint256",
							"name": "",
							"type": "uint256"
						}
					],
					"stateMutability": "view",
					"type": "function"
				},
				{
					"inputs": [],
					"name": "totalCampaigns",
					"outputs": [
						{
							"internalType": "uint256",
							"name": "",
							"type": "uint256"
						}
					],
					"stateMutability": "view",
					"type": "function"
				}
			],
			"devdoc": {
				"details": "Mezo is a Bitcoin-first EVM-compatible chain where BTC is the native      gas token (18 decimals). This contract is identical in logic to the      Arbitrum version but is deployed on Mezo Testnet (chainId 31611) or      Mezo Mainnet (chainId 31612).      Deploy via Remix:        1. Set compiler to 0.8.24, enable optimizer (200 runs)        2. In \"Deploy & Run\", select \"Injected Provider - MetaMask\"        3. Make sure MetaMask is on Mezo Testnet (chainId 31611)        4. Constructor args:             _treasury  = your treasury wallet address             _feeBps    = 1000  (= 10%)             _revenueCapWei = revenue cap in wei (BTC, 18 decimals)                             e.g. for $20 cap at $100,000/BTC:                             0.0002 BTC = 200000000000000 wei",
				"kind": "dev",
				"methods": {
					"createCampaign(string,uint256,uint256)": {
						"params": {
							"durationSeconds": "How long access lasts after purchase",
							"metadataCID": "IPFS CID of the encrypted metadata JSON",
							"priceWei": "Access price in wei (BTC, 18 decimals)"
						}
					},
					"purchaseAccess(uint256)": {
						"params": {
							"id": "Campaign ID"
						}
					}
				},
				"title": "PrivateStreamMezo",
				"version": 1
			},
			"evm": {
				"assembly": "    /* \"PrivateStreamMezo.sol\":1014:6528  contract PrivateStreamMezo {... */\n  mstore(0x40, 0xe0)\n    /* \"PrivateStreamMezo.sol\":2214:2589  constructor(... */\n  callvalue\n  dup1\n  iszero\n  tag_1\n  jumpi\n  revert(0x00, 0x00)\ntag_1:\n  pop\n  mload(0x40)\n  sub(codesize, bytecodeSize)\n  dup1\n  bytecodeSize\n  dup4\n  codecopy\n  dup2\n  dup2\n  add\n  0x40\n  mstore\n  dup2\n  add\n  swap1\n  tag_2\n  swap2\n  swap1\n  tag_3\n  jump\t// in\ntag_2:\n    /* \"PrivateStreamMezo.sol\":2360:2361  0 */\n  0x00\n    /* \"PrivateStreamMezo.sol\":2339:2362  _treasury != address(0) */\n  0xffffffffffffffffffffffffffffffffffffffff\n  and\n    /* \"PrivateStreamMezo.sol\":2339:2348  _treasury */\n  dup4\n    /* \"PrivateStreamMezo.sol\":2339:2362  _treasury != address(0) */\n  0xffffffffffffffffffffffffffffffffffffffff\n  and\n  sub\n    /* \"PrivateStreamMezo.sol\":2331:2379  require(_treasury != address(0), \"Bad treasury\") */\n  tag_6\n  jumpi\n  mload(0x40)\n  0x08c379a000000000000000000000000000000000000000000000000000000000\n  dup2\n  mstore\n  0x04\n  add\n  tag_7\n  swap1\n  tag_8\n  jump\t// in\ntag_7:\n  mload(0x40)\n  dup1\n  swap2\n  sub\n  swap1\n  revert\ntag_6:\n    /* \"PrivateStreamMezo.sol\":2409:2413  5000 */\n  0x1388\n    /* \"PrivateStreamMezo.sol\":2398:2405  _feeBps */\n  dup3\n    /* \"PrivateStreamMezo.sol\":2398:2413  _feeBps <= 5000 */\n  gt\n  iszero\n    /* \"PrivateStreamMezo.sol\":2390:2430  require(_feeBps <= 5000, \"Fee too high\") */\n  tag_9\n  jumpi\n  mload(0x40)\n  0x08c379a000000000000000000000000000000000000000000000000000000000\n  dup2\n  mstore\n  0x04\n  add\n  tag_10\n  swap1\n  tag_11\n  jump\t// in\ntag_10:\n  mload(0x40)\n  dup1\n  swap2\n  sub\n  swap1\n  revert\ntag_9:\n    /* \"PrivateStreamMezo.sol\":2460:2469  _treasury */\n  dup3\n    /* \"PrivateStreamMezo.sol\":2441:2469  platformTreasury = _treasury */\n  0xffffffffffffffffffffffffffffffffffffffff\n  and\n  0x80\n  dup2\n  0xffffffffffffffffffffffffffffffffffffffff\n  and\n  dup2\n  mstore\n  pop\n  pop\n    /* \"PrivateStreamMezo.sol\":2499:2506  _feeBps */\n  dup2\n    /* \"PrivateStreamMezo.sol\":2480:2506  platformFeeBps   = _feeBps */\n  0xa0\n  dup2\n  dup2\n  mstore\n  pop\n  pop\n    /* \"PrivateStreamMezo.sol\":2536:2550  _revenueCapWei */\n  dup1\n    /* \"PrivateStreamMezo.sol\":2517:2550  revenueCapWei    = _revenueCapWei */\n  0xc0\n  dup2\n  dup2\n  mstore\n  pop\n  pop\n    /* \"PrivateStreamMezo.sol\":2580:2581  1 */\n  0x01\n    /* \"PrivateStreamMezo.sol\":2561:2568  _nextId */\n  0x00\n    /* \"PrivateStreamMezo.sol\":2561:2581  _nextId          = 1 */\n  dup2\n  swap1\n  sstore\n  pop\n    /* \"PrivateStreamMezo.sol\":2214:2589  constructor(... */\n  pop\n  pop\n  pop\n    /* \"PrivateStreamMezo.sol\":1014:6528  contract PrivateStreamMezo {... */\n  jump(tag_12)\n    /* \"#utility.yul\":88:205   */\ntag_14:\n    /* \"#utility.yul\":197:198   */\n  0x00\n    /* \"#utility.yul\":194:195   */\n  0x00\n    /* \"#utility.yul\":187:199   */\n  revert\n    /* \"#utility.yul\":334:460   */\ntag_16:\n    /* \"#utility.yul\":371:378   */\n  0x00\n    /* \"#utility.yul\":411:453   */\n  0xffffffffffffffffffffffffffffffffffffffff\n    /* \"#utility.yul\":404:409   */\n  dup3\n    /* \"#utility.yul\":400:454   */\n  and\n    /* \"#utility.yul\":389:454   */\n  swap1\n  pop\n    /* \"#utility.yul\":334:460   */\n  swap2\n  swap1\n  pop\n  jump\t// out\n    /* \"#utility.yul\":466:562   */\ntag_17:\n    /* \"#utility.yul\":503:510   */\n  0x00\n    /* \"#utility.yul\":532:556   */\n  tag_34\n    /* \"#utility.yul\":550:555   */\n  dup3\n    /* \"#utility.yul\":532:556   */\n  tag_16\n  jump\t// in\ntag_34:\n    /* \"#utility.yul\":521:556   */\n  swap1\n  pop\n    /* \"#utility.yul\":466:562   */\n  swap2\n  swap1\n  pop\n  jump\t// out\n    /* \"#utility.yul\":568:690   */\ntag_18:\n    /* \"#utility.yul\":641:665   */\n  tag_36\n    /* \"#utility.yul\":659:664   */\n  dup2\n    /* \"#utility.yul\":641:665   */\n  tag_17\n  jump\t// in\ntag_36:\n    /* \"#utility.yul\":634:639   */\n  dup2\n    /* \"#utility.yul\":631:666   */\n  eq\n    /* \"#utility.yul\":621:684   */\n  tag_37\n  jumpi\n    /* \"#utility.yul\":680:681   */\n  0x00\n    /* \"#utility.yul\":677:678   */\n  0x00\n    /* \"#utility.yul\":670:682   */\n  revert\n    /* \"#utility.yul\":621:684   */\ntag_37:\n    /* \"#utility.yul\":568:690   */\n  pop\n  jump\t// out\n    /* \"#utility.yul\":696:839   */\ntag_19:\n    /* \"#utility.yul\":753:758   */\n  0x00\n    /* \"#utility.yul\":784:790   */\n  dup2\n    /* \"#utility.yul\":778:791   */\n  mload\n    /* \"#utility.yul\":769:791   */\n  swap1\n  pop\n    /* \"#utility.yul\":800:833   */\n  tag_39\n    /* \"#utility.yul\":827:832   */\n  dup2\n    /* \"#utility.yul\":800:833   */\n  tag_18\n  jump\t// in\ntag_39:\n    /* \"#utility.yul\":696:839   */\n  swap3\n  swap2\n  pop\n  pop\n  jump\t// out\n    /* \"#utility.yul\":845:922   */\ntag_20:\n    /* \"#utility.yul\":882:889   */\n  0x00\n    /* \"#utility.yul\":911:916   */\n  dup2\n    /* \"#utility.yul\":900:916   */\n  swap1\n  pop\n    /* \"#utility.yul\":845:922   */\n  swap2\n  swap1\n  pop\n  jump\t// out\n    /* \"#utility.yul\":928:1050   */\ntag_21:\n    /* \"#utility.yul\":1001:1025   */\n  tag_42\n    /* \"#utility.yul\":1019:1024   */\n  dup2\n    /* \"#utility.yul\":1001:1025   */\n  tag_20\n  jump\t// in\ntag_42:\n    /* \"#utility.yul\":994:999   */\n  dup2\n    /* \"#utility.yul\":991:1026   */\n  eq\n    /* \"#utility.yul\":981:1044   */\n  tag_43\n  jumpi\n    /* \"#utility.yul\":1040:1041   */\n  0x00\n    /* \"#utility.yul\":1037:1038   */\n  0x00\n    /* \"#utility.yul\":1030:1042   */\n  revert\n    /* \"#utility.yul\":981:1044   */\ntag_43:\n    /* \"#utility.yul\":928:1050   */\n  pop\n  jump\t// out\n    /* \"#utility.yul\":1056:1199   */\ntag_22:\n    /* \"#utility.yul\":1113:1118   */\n  0x00\n    /* \"#utility.yul\":1144:1150   */\n  dup2\n    /* \"#utility.yul\":1138:1151   */\n  mload\n    /* \"#utility.yul\":1129:1151   */\n  swap1\n  pop\n    /* \"#utility.yul\":1160:1193   */\n  tag_45\n    /* \"#utility.yul\":1187:1192   */\n  dup2\n    /* \"#utility.yul\":1160:1193   */\n  tag_21\n  jump\t// in\ntag_45:\n    /* \"#utility.yul\":1056:1199   */\n  swap3\n  swap2\n  pop\n  pop\n  jump\t// out\n    /* \"#utility.yul\":1205:1868   */\ntag_3:\n    /* \"#utility.yul\":1293:1299   */\n  0x00\n    /* \"#utility.yul\":1301:1307   */\n  0x00\n    /* \"#utility.yul\":1309:1315   */\n  0x00\n    /* \"#utility.yul\":1358:1360   */\n  0x60\n    /* \"#utility.yul\":1346:1355   */\n  dup5\n    /* \"#utility.yul\":1337:1344   */\n  dup7\n    /* \"#utility.yul\":1333:1356   */\n  sub\n    /* \"#utility.yul\":1329:1361   */\n  slt\n    /* \"#utility.yul\":1326:1445   */\n  iszero\n  tag_47\n  jumpi\n    /* \"#utility.yul\":1364:1443   */\n  tag_48\n  tag_14\n  jump\t// in\ntag_48:\n    /* \"#utility.yul\":1326:1445   */\ntag_47:\n    /* \"#utility.yul\":1484:1485   */\n  0x00\n    /* \"#utility.yul\":1509:1573   */\n  tag_49\n    /* \"#utility.yul\":1565:1572   */\n  dup7\n    /* \"#utility.yul\":1556:1562   */\n  dup3\n    /* \"#utility.yul\":1545:1554   */\n  dup8\n    /* \"#utility.yul\":1541:1563   */\n  add\n    /* \"#utility.yul\":1509:1573   */\n  tag_19\n  jump\t// in\ntag_49:\n    /* \"#utility.yul\":1499:1573   */\n  swap4\n  pop\n    /* \"#utility.yul\":1455:1583   */\n  pop\n    /* \"#utility.yul\":1622:1624   */\n  0x20\n    /* \"#utility.yul\":1648:1712   */\n  tag_50\n    /* \"#utility.yul\":1704:1711   */\n  dup7\n    /* \"#utility.yul\":1695:1701   */\n  dup3\n    /* \"#utility.yul\":1684:1693   */\n  dup8\n    /* \"#utility.yul\":1680:1702   */\n  add\n    /* \"#utility.yul\":1648:1712   */\n  tag_22\n  jump\t// in\ntag_50:\n    /* \"#utility.yul\":1638:1712   */\n  swap3\n  pop\n    /* \"#utility.yul\":1593:1722   */\n  pop\n    /* \"#utility.yul\":1761:1763   */\n  0x40\n    /* \"#utility.yul\":1787:1851   */\n  tag_51\n    /* \"#utility.yul\":1843:1850   */\n  dup7\n    /* \"#utility.yul\":1834:1840   */\n  dup3\n    /* \"#utility.yul\":1823:1832   */\n  dup8\n    /* \"#utility.yul\":1819:1841   */\n  add\n    /* \"#utility.yul\":1787:1851   */\n  tag_22\n  jump\t// in\ntag_51:\n    /* \"#utility.yul\":1777:1851   */\n  swap2\n  pop\n    /* \"#utility.yul\":1732:1861   */\n  pop\n    /* \"#utility.yul\":1205:1868   */\n  swap3\n  pop\n  swap3\n  pop\n  swap3\n  jump\t// out\n    /* \"#utility.yul\":1874:2043   */\ntag_23:\n    /* \"#utility.yul\":1958:1969   */\n  0x00\n    /* \"#utility.yul\":1992:1998   */\n  dup3\n    /* \"#utility.yul\":1987:1990   */\n  dup3\n    /* \"#utility.yul\":1980:1999   */\n  mstore\n    /* \"#utility.yul\":2032:2036   */\n  0x20\n    /* \"#utility.yul\":2027:2030   */\n  dup3\n    /* \"#utility.yul\":2023:2037   */\n  add\n    /* \"#utility.yul\":2008:2037   */\n  swap1\n  pop\n    /* \"#utility.yul\":1874:2043   */\n  swap3\n  swap2\n  pop\n  pop\n  jump\t// out\n    /* \"#utility.yul\":2049:2211   */\ntag_24:\n    /* \"#utility.yul\":2189:2203   */\n  0x4261642074726561737572790000000000000000000000000000000000000000\n    /* \"#utility.yul\":2185:2186   */\n  0x00\n    /* \"#utility.yul\":2177:2183   */\n  dup3\n    /* \"#utility.yul\":2173:2187   */\n  add\n    /* \"#utility.yul\":2166:2204   */\n  mstore\n    /* \"#utility.yul\":2049:2211   */\n  pop\n  jump\t// out\n    /* \"#utility.yul\":2217:2583   */\ntag_25:\n    /* \"#utility.yul\":2359:2362   */\n  0x00\n    /* \"#utility.yul\":2380:2447   */\n  tag_55\n    /* \"#utility.yul\":2444:2446   */\n  0x0c\n    /* \"#utility.yul\":2439:2442   */\n  dup4\n    /* \"#utility.yul\":2380:2447   */\n  tag_23\n  jump\t// in\ntag_55:\n    /* \"#utility.yul\":2373:2447   */\n  swap2\n  pop\n    /* \"#utility.yul\":2456:2549   */\n  tag_56\n    /* \"#utility.yul\":2545:2548   */\n  dup3\n    /* \"#utility.yul\":2456:2549   */\n  tag_24\n  jump\t// in\ntag_56:\n    /* \"#utility.yul\":2574:2576   */\n  0x20\n    /* \"#utility.yul\":2569:2572   */\n  dup3\n    /* \"#utility.yul\":2565:2577   */\n  add\n    /* \"#utility.yul\":2558:2577   */\n  swap1\n  pop\n    /* \"#utility.yul\":2217:2583   */\n  swap2\n  swap1\n  pop\n  jump\t// out\n    /* \"#utility.yul\":2589:3008   */\ntag_8:\n    /* \"#utility.yul\":2755:2759   */\n  0x00\n    /* \"#utility.yul\":2793:2795   */\n  0x20\n    /* \"#utility.yul\":2782:2791   */\n  dup3\n    /* \"#utility.yul\":2778:2796   */\n  add\n    /* \"#utility.yul\":2770:2796   */\n  swap1\n  pop\n    /* \"#utility.yul\":2842:2851   */\n  dup2\n    /* \"#utility.yul\":2836:2840   */\n  dup2\n    /* \"#utility.yul\":2832:2852   */\n  sub\n    /* \"#utility.yul\":2828:2829   */\n  0x00\n    /* \"#utility.yul\":2817:2826   */\n  dup4\n    /* \"#utility.yul\":2813:2830   */\n  add\n    /* \"#utility.yul\":2806:2853   */\n  mstore\n    /* \"#utility.yul\":2870:3001   */\n  tag_58\n    /* \"#utility.yul\":2996:3000   */\n  dup2\n    /* \"#utility.yul\":2870:3001   */\n  tag_25\n  jump\t// in\ntag_58:\n    /* \"#utility.yul\":2862:3001   */\n  swap1\n  pop\n    /* \"#utility.yul\":2589:3008   */\n  swap2\n  swap1\n  pop\n  jump\t// out\n    /* \"#utility.yul\":3014:3176   */\ntag_26:\n    /* \"#utility.yul\":3154:3168   */\n  0x46656520746f6f20686967680000000000000000000000000000000000000000\n    /* \"#utility.yul\":3150:3151   */\n  0x00\n    /* \"#utility.yul\":3142:3148   */\n  dup3\n    /* \"#utility.yul\":3138:3152   */\n  add\n    /* \"#utility.yul\":3131:3169   */\n  mstore\n    /* \"#utility.yul\":3014:3176   */\n  pop\n  jump\t// out\n    /* \"#utility.yul\":3182:3548   */\ntag_27:\n    /* \"#utility.yul\":3324:3327   */\n  0x00\n    /* \"#utility.yul\":3345:3412   */\n  tag_61\n    /* \"#utility.yul\":3409:3411   */\n  0x0c\n    /* \"#utility.yul\":3404:3407   */\n  dup4\n    /* \"#utility.yul\":3345:3412   */\n  tag_23\n  jump\t// in\ntag_61:\n    /* \"#utility.yul\":3338:3412   */\n  swap2\n  pop\n    /* \"#utility.yul\":3421:3514   */\n  tag_62\n    /* \"#utility.yul\":3510:3513   */\n  dup3\n    /* \"#utility.yul\":3421:3514   */\n  tag_26\n  jump\t// in\ntag_62:\n    /* \"#utility.yul\":3539:3541   */\n  0x20\n    /* \"#utility.yul\":3534:3537   */\n  dup3\n    /* \"#utility.yul\":3530:3542   */\n  add\n    /* \"#utility.yul\":3523:3542   */\n  swap1\n  pop\n    /* \"#utility.yul\":3182:3548   */\n  swap2\n  swap1\n  pop\n  jump\t// out\n    /* \"#utility.yul\":3554:3973   */\ntag_11:\n    /* \"#utility.yul\":3720:3724   */\n  0x00\n    /* \"#utility.yul\":3758:3760   */\n  0x20\n    /* \"#utility.yul\":3747:3756   */\n  dup3\n    /* \"#utility.yul\":3743:3761   */\n  add\n    /* \"#utility.yul\":3735:3761   */\n  swap1\n  pop\n    /* \"#utility.yul\":3807:3816   */\n  dup2\n    /* \"#utility.yul\":3801:3805   */\n  dup2\n    /* \"#utility.yul\":3797:3817   */\n  sub\n    /* \"#utility.yul\":3793:3794   */\n  0x00\n    /* \"#utility.yul\":3782:3791   */\n  dup4\n    /* \"#utility.yul\":3778:3795   */\n  add\n    /* \"#utility.yul\":3771:3818   */\n  mstore\n    /* \"#utility.yul\":3835:3966   */\n  tag_64\n    /* \"#utility.yul\":3961:3965   */\n  dup2\n    /* \"#utility.yul\":3835:3966   */\n  tag_27\n  jump\t// in\ntag_64:\n    /* \"#utility.yul\":3827:3966   */\n  swap1\n  pop\n    /* \"#utility.yul\":3554:3973   */\n  swap2\n  swap1\n  pop\n  jump\t// out\n    /* \"PrivateStreamMezo.sol\":1014:6528  contract PrivateStreamMezo {... */\ntag_12:\n  mload(0x80)\n  mload(0xa0)\n  mload(0xc0)\n  codecopy(0x00, dataOffset(sub_0), dataSize(sub_0))\n  0x00\n  assignImmutable(\"0x81e080ffc23e8b8d44dd829bc823229e92b893eb1d8f624419d3f5682eb97fc3\")\n  0x00\n  assignImmutable(\"0x1572b593c53d839d80004aa4b8c51211864104f06ace9e22be9c4365b50655ea\")\n  0x00\n  assignImmutable(\"0xf4c2b5de886427473655d4c904c743576dc2d53249b7535d96c06cc97ae7216b\")\n  return(0x00, dataSize(sub_0))\nstop\n\nsub_0: assembly {\n        /* \"PrivateStreamMezo.sol\":1014:6528  contract PrivateStreamMezo {... */\n      mstore(0x40, 0x80)\n      jumpi(tag_1, lt(calldatasize, 0x04))\n      shr(0xe0, calldataload(0x00))\n      dup1\n      0x5598f8cc\n      gt\n      tag_16\n      jumpi\n      dup1\n      0xb91d0a2f\n      gt\n      tag_17\n      jumpi\n      dup1\n      0xb91d0a2f\n      eq\n      tag_12\n      jumpi\n      dup1\n      0xce546ffa\n      eq\n      tag_13\n      jumpi\n      dup1\n      0xced14198\n      eq\n      tag_14\n      jumpi\n      dup1\n      0xe138818c\n      eq\n      tag_15\n      jumpi\n      jump(tag_1)\n    tag_17:\n      dup1\n      0x5598f8cc\n      eq\n      tag_9\n      jumpi\n      dup1\n      0x691f6df7\n      eq\n      tag_10\n      jumpi\n      dup1\n      0x7eca30fe\n      eq\n      tag_11\n      jumpi\n      jump(tag_1)\n    tag_16:\n      dup1\n      0x22dcd13e\n      gt\n      tag_18\n      jumpi\n      dup1\n      0x22dcd13e\n      eq\n      tag_5\n      jumpi\n      dup1\n      0x22f850b3\n      eq\n      tag_6\n      jumpi\n      dup1\n      0x3020580b\n      eq\n      tag_7\n      jumpi\n      dup1\n      0x328df91d\n      eq\n      tag_8\n      jumpi\n      jump(tag_1)\n    tag_18:\n      dup1\n      0x02932f56\n      eq\n      tag_2\n      jumpi\n      dup1\n      0x09f7c6d1\n      eq\n      tag_3\n      jumpi\n      dup1\n      0x141961bc\n      eq\n      tag_4\n      jumpi\n    tag_1:\n      revert(0x00, 0x00)\n        /* \"PrivateStreamMezo.sol\":6088:6183  function totalCampaigns() external view returns (uint256) {... */\n    tag_2:\n      callvalue\n      dup1\n      iszero\n      tag_19\n      jumpi\n      revert(0x00, 0x00)\n    tag_19:\n      pop\n      tag_20\n      tag_21\n      jump\t// in\n    tag_20:\n      mload(0x40)\n      tag_22\n      swap2\n      swap1\n      tag_23\n      jump\t// in\n    tag_22:\n      mload(0x40)\n      dup1\n      swap2\n      sub\n      swap1\n      return\n        /* \"PrivateStreamMezo.sol\":1620:1692  mapping(address => uint256)                     public creatorCampaignId */\n    tag_3:\n      callvalue\n      dup1\n      iszero\n      tag_24\n      jumpi\n      revert(0x00, 0x00)\n    tag_24:\n      pop\n      tag_25\n      0x04\n      dup1\n      calldatasize\n      sub\n      dup2\n      add\n      swap1\n      tag_26\n      swap2\n      swap1\n      tag_27\n      jump\t// in\n    tag_26:\n      tag_28\n      jump\t// in\n    tag_25:\n      mload(0x40)\n      tag_29\n      swap2\n      swap1\n      tag_23\n      jump\t// in\n    tag_29:\n      mload(0x40)\n      dup1\n      swap2\n      sub\n      swap1\n      return\n        /* \"PrivateStreamMezo.sol\":1476:1540  mapping(uint256 => Campaign)                    public campaigns */\n    tag_4:\n      callvalue\n      dup1\n      iszero\n      tag_30\n      jumpi\n      revert(0x00, 0x00)\n    tag_30:\n      pop\n      tag_31\n      0x04\n      dup1\n      calldatasize\n      sub\n      dup2\n      add\n      swap1\n      tag_32\n      swap2\n      swap1\n      tag_33\n      jump\t// in\n    tag_32:\n      tag_34\n      jump\t// in\n    tag_31:\n      mload(0x40)\n      tag_35\n      swap9\n      swap8\n      swap7\n      swap6\n      swap5\n      swap4\n      swap3\n      swap2\n      swap1\n      tag_36\n      jump\t// in\n    tag_35:\n      mload(0x40)\n      dup1\n      swap2\n      sub\n      swap1\n      return\n        /* \"PrivateStreamMezo.sol\":1353:1392  uint256 public immutable platformFeeBps */\n    tag_5:\n      callvalue\n      dup1\n      iszero\n      tag_37\n      jumpi\n      revert(0x00, 0x00)\n    tag_37:\n      pop\n      tag_38\n      tag_39\n      jump\t// in\n    tag_38:\n      mload(0x40)\n      tag_40\n      swap2\n      swap1\n      tag_23\n      jump\t// in\n    tag_40:\n      mload(0x40)\n      dup1\n      swap2\n      sub\n      swap1\n      return\n        /* \"PrivateStreamMezo.sol\":1699:1766  mapping(uint256 => mapping(address => uint256)) public accessExpiry */\n    tag_6:\n      callvalue\n      dup1\n      iszero\n      tag_41\n      jumpi\n      revert(0x00, 0x00)\n    tag_41:\n      pop\n      tag_42\n      0x04\n      dup1\n      calldatasize\n      sub\n      dup2\n      add\n      swap1\n      tag_43\n      swap2\n      swap1\n      tag_44\n      jump\t// in\n    tag_43:\n      tag_45\n      jump\t// in\n    tag_42:\n      mload(0x40)\n      tag_46\n      swap2\n      swap1\n      tag_23\n      jump\t// in\n    tag_46:\n      mload(0x40)\n      dup1\n      swap2\n      sub\n      swap1\n      return\n        /* \"PrivateStreamMezo.sol\":2885:3731  function createCampaign(... */\n    tag_7:\n      callvalue\n      dup1\n      iszero\n      tag_47\n      jumpi\n      revert(0x00, 0x00)\n    tag_47:\n      pop\n      tag_48\n      0x04\n      dup1\n      calldatasize\n      sub\n      dup2\n      add\n      swap1\n      tag_49\n      swap2\n      swap1\n      tag_50\n      jump\t// in\n    tag_49:\n      tag_51\n      jump\t// in\n    tag_48:\n      mload(0x40)\n      tag_52\n      swap2\n      swap1\n      tag_23\n      jump\t// in\n    tag_52:\n      mload(0x40)\n      dup1\n      swap2\n      sub\n      swap1\n      return\n        /* \"PrivateStreamMezo.sol\":5890:6021  function getCampaignByCreator(address creator) external view returns (uint256) {... */\n    tag_8:\n      callvalue\n      dup1\n      iszero\n      tag_53\n      jumpi\n      revert(0x00, 0x00)\n    tag_53:\n      pop\n      tag_54\n      0x04\n      dup1\n      calldatasize\n      sub\n      dup2\n      add\n      swap1\n      tag_55\n      swap2\n      swap1\n      tag_27\n      jump\t// in\n    tag_55:\n      tag_56\n      jump\t// in\n    tag_54:\n      mload(0x40)\n      tag_57\n      swap2\n      swap1\n      tag_23\n      jump\t// in\n    tag_57:\n      mload(0x40)\n      dup1\n      swap2\n      sub\n      swap1\n      return\n        /* \"PrivateStreamMezo.sol\":5336:5502  function getCampaign(uint256 id) external view returns (Campaign memory) {... */\n    tag_9:\n      callvalue\n      dup1\n      iszero\n      tag_58\n      jumpi\n      revert(0x00, 0x00)\n    tag_58:\n      pop\n      tag_59\n      0x04\n      dup1\n      calldatasize\n      sub\n      dup2\n      add\n      swap1\n      tag_60\n      swap2\n      swap1\n      tag_33\n      jump\t// in\n    tag_60:\n      tag_61\n      jump\t// in\n    tag_59:\n      mload(0x40)\n      tag_62\n      swap2\n      swap1\n      tag_63\n      jump\t// in\n    tag_62:\n      mload(0x40)\n      dup1\n      swap2\n      sub\n      swap1\n      return\n        /* \"PrivateStreamMezo.sol\":1547:1613  mapping(address => bool)                        public hasCampaign */\n    tag_10:\n      callvalue\n      dup1\n      iszero\n      tag_64\n      jumpi\n      revert(0x00, 0x00)\n    tag_64:\n      pop\n      tag_65\n      0x04\n      dup1\n      calldatasize\n      sub\n      dup2\n      add\n      swap1\n      tag_66\n      swap2\n      swap1\n      tag_27\n      jump\t// in\n    tag_66:\n      tag_67\n      jump\t// in\n    tag_65:\n      mload(0x40)\n      tag_68\n      swap2\n      swap1\n      tag_69\n      jump\t// in\n    tag_68:\n      mload(0x40)\n      dup1\n      swap2\n      sub\n      swap1\n      return\n        /* \"PrivateStreamMezo.sol\":6253:6525  function deactivateCampaign(uint256 id) external {... */\n    tag_11:\n      callvalue\n      dup1\n      iszero\n      tag_70\n      jumpi\n      revert(0x00, 0x00)\n    tag_70:\n      pop\n      tag_71\n      0x04\n      dup1\n      calldatasize\n      sub\n      dup2\n      add\n      swap1\n      tag_72\n      swap2\n      swap1\n      tag_33\n      jump\t// in\n    tag_72:\n      tag_73\n      jump\t// in\n    tag_71:\n      stop\n        /* \"PrivateStreamMezo.sol\":3862:5285  function purchaseAccess(uint256 id) external payable {... */\n    tag_12:\n      tag_74\n      0x04\n      dup1\n      calldatasize\n      sub\n      dup2\n      add\n      swap1\n      tag_75\n      swap2\n      swap1\n      tag_33\n      jump\t// in\n    tag_75:\n      tag_76\n      jump\t// in\n    tag_74:\n      stop\n        /* \"PrivateStreamMezo.sol\":1399:1437  uint256 public immutable revenueCapWei */\n    tag_13:\n      callvalue\n      dup1\n      iszero\n      tag_77\n      jumpi\n      revert(0x00, 0x00)\n    tag_77:\n      pop\n      tag_78\n      tag_79\n      jump\t// in\n    tag_78:\n      mload(0x40)\n      tag_80\n      swap2\n      swap1\n      tag_23\n      jump\t// in\n    tag_80:\n      mload(0x40)\n      dup1\n      swap2\n      sub\n      swap1\n      return\n        /* \"PrivateStreamMezo.sol\":5575:5811  function hasAccess(uint256 id, address buyer)... */\n    tag_14:\n      callvalue\n      dup1\n      iszero\n      tag_81\n      jumpi\n      revert(0x00, 0x00)\n    tag_81:\n      pop\n      tag_82\n      0x04\n      dup1\n      calldatasize\n      sub\n      dup2\n      add\n      swap1\n      tag_83\n      swap2\n      swap1\n      tag_44\n      jump\t// in\n    tag_83:\n      tag_84\n      jump\t// in\n    tag_82:\n      mload(0x40)\n      tag_85\n      swap3\n      swap2\n      swap1\n      tag_86\n      jump\t// in\n    tag_85:\n      mload(0x40)\n      dup1\n      swap2\n      sub\n      swap1\n      return\n        /* \"PrivateStreamMezo.sol\":1305:1346  address public immutable platformTreasury */\n    tag_15:\n      callvalue\n      dup1\n      iszero\n      tag_87\n      jumpi\n      revert(0x00, 0x00)\n    tag_87:\n      pop\n      tag_88\n      tag_89\n      jump\t// in\n    tag_88:\n      mload(0x40)\n      tag_90\n      swap2\n      swap1\n      tag_91\n      jump\t// in\n    tag_90:\n      mload(0x40)\n      dup1\n      swap2\n      sub\n      swap1\n      return\n        /* \"PrivateStreamMezo.sol\":6088:6183  function totalCampaigns() external view returns (uint256) {... */\n    tag_21:\n        /* \"PrivateStreamMezo.sol\":6137:6144  uint256 */\n      0x00\n        /* \"PrivateStreamMezo.sol\":6174:6175  1 */\n      0x01\n        /* \"PrivateStreamMezo.sol\":6164:6171  _nextId */\n      sload(0x00)\n        /* \"PrivateStreamMezo.sol\":6164:6175  _nextId - 1 */\n      tag_93\n      swap2\n      swap1\n      tag_94\n      jump\t// in\n    tag_93:\n        /* \"PrivateStreamMezo.sol\":6157:6175  return _nextId - 1 */\n      swap1\n      pop\n        /* \"PrivateStreamMezo.sol\":6088:6183  function totalCampaigns() external view returns (uint256) {... */\n      swap1\n      jump\t// out\n        /* \"PrivateStreamMezo.sol\":1620:1692  mapping(address => uint256)                     public creatorCampaignId */\n    tag_28:\n      mstore(0x20, 0x03)\n      dup1\n      0x00\n      mstore\n      keccak256(0x00, 0x40)\n      0x00\n      swap2\n      pop\n      swap1\n      pop\n      sload\n      dup2\n      jump\t// out\n        /* \"PrivateStreamMezo.sol\":1476:1540  mapping(uint256 => Campaign)                    public campaigns */\n    tag_34:\n      mstore(0x20, 0x01)\n      dup1\n      0x00\n      mstore\n      keccak256(0x00, 0x40)\n      0x00\n      swap2\n      pop\n      swap1\n      pop\n      dup1\n      0x00\n      add\n      sload\n      swap1\n      dup1\n      0x01\n      add\n      0x00\n      swap1\n      sload\n      swap1\n      0x0100\n      exp\n      swap1\n      div\n      0xffffffffffffffffffffffffffffffffffffffff\n      and\n      swap1\n      dup1\n      0x02\n      add\n      dup1\n      sload\n      tag_95\n      swap1\n      tag_96\n      jump\t// in\n    tag_95:\n      dup1\n      0x1f\n      add\n      0x20\n      dup1\n      swap2\n      div\n      mul\n      0x20\n      add\n      mload(0x40)\n      swap1\n      dup2\n      add\n      0x40\n      mstore\n      dup1\n      swap3\n      swap2\n      swap1\n      dup2\n      dup2\n      mstore\n      0x20\n      add\n      dup3\n      dup1\n      sload\n      tag_97\n      swap1\n      tag_96\n      jump\t// in\n    tag_97:\n      dup1\n      iszero\n      tag_98\n      jumpi\n      dup1\n      0x1f\n      lt\n      tag_99\n      jumpi\n      0x0100\n      dup1\n      dup4\n      sload\n      div\n      mul\n      dup4\n      mstore\n      swap2\n      0x20\n      add\n      swap2\n      jump(tag_98)\n    tag_99:\n      dup3\n      add\n      swap2\n      swap1\n      0x00\n      mstore\n      keccak256(0x00, 0x20)\n      swap1\n    tag_100:\n      dup2\n      sload\n      dup2\n      mstore\n      swap1\n      0x01\n      add\n      swap1\n      0x20\n      add\n      dup1\n      dup4\n      gt\n      tag_100\n      jumpi\n      dup3\n      swap1\n      sub\n      0x1f\n      and\n      dup3\n      add\n      swap2\n    tag_98:\n      pop\n      pop\n      pop\n      pop\n      pop\n      swap1\n      dup1\n      0x03\n      add\n      sload\n      swap1\n      dup1\n      0x04\n      add\n      sload\n      swap1\n      dup1\n      0x05\n      add\n      sload\n      swap1\n      dup1\n      0x06\n      add\n      0x00\n      swap1\n      sload\n      swap1\n      0x0100\n      exp\n      swap1\n      div\n      0xff\n      and\n      swap1\n      dup1\n      0x06\n      add\n      0x01\n      swap1\n      sload\n      swap1\n      0x0100\n      exp\n      swap1\n      div\n      0xff\n      and\n      swap1\n      pop\n      dup9\n      jump\t// out\n        /* \"PrivateStreamMezo.sol\":1353:1392  uint256 public immutable platformFeeBps */\n    tag_39:\n      immutable(\"0x1572b593c53d839d80004aa4b8c51211864104f06ace9e22be9c4365b50655ea\")\n      dup2\n      jump\t// out\n        /* \"PrivateStreamMezo.sol\":1699:1766  mapping(uint256 => mapping(address => uint256)) public accessExpiry */\n    tag_45:\n      mstore(0x20, 0x04)\n      dup2\n      0x00\n      mstore\n      mstore(0x20, keccak256(0x00, 0x40))\n      dup1\n      0x00\n      mstore\n      keccak256(0x00, 0x40)\n      0x00\n      swap2\n      pop\n      swap2\n      pop\n      pop\n      sload\n      dup2\n      jump\t// out\n        /* \"PrivateStreamMezo.sol\":2885:3731  function createCampaign(... */\n    tag_51:\n        /* \"PrivateStreamMezo.sol\":3033:3043  uint256 id */\n      0x00\n        /* \"PrivateStreamMezo.sol\":3065:3076  hasCampaign */\n      0x02\n        /* \"PrivateStreamMezo.sol\":3065:3088  hasCampaign[msg.sender] */\n      0x00\n        /* \"PrivateStreamMezo.sol\":3077:3087  msg.sender */\n      caller\n        /* \"PrivateStreamMezo.sol\":3065:3088  hasCampaign[msg.sender] */\n      0xffffffffffffffffffffffffffffffffffffffff\n      and\n      0xffffffffffffffffffffffffffffffffffffffff\n      and\n      dup2\n      mstore\n      0x20\n      add\n      swap1\n      dup2\n      mstore\n      0x20\n      add\n      0x00\n      keccak256\n      0x00\n      swap1\n      sload\n      swap1\n      0x0100\n      exp\n      swap1\n      div\n      0xff\n      and\n        /* \"PrivateStreamMezo.sol\":3064:3088  !hasCampaign[msg.sender] */\n      iszero\n        /* \"PrivateStreamMezo.sol\":3056:3115  require(!hasCampaign[msg.sender], \"Already own a campaign\") */\n      tag_102\n      jumpi\n      mload(0x40)\n      0x08c379a000000000000000000000000000000000000000000000000000000000\n      dup2\n      mstore\n      0x04\n      add\n      tag_103\n      swap1\n      tag_104\n      jump\t// in\n    tag_103:\n      mload(0x40)\n      dup1\n      swap2\n      sub\n      swap1\n      revert\n    tag_102:\n        /* \"PrivateStreamMezo.sol\":3162:3163  0 */\n      0x00\n        /* \"PrivateStreamMezo.sol\":3140:3151  metadataCID */\n      dup6\n      dup6\n        /* \"PrivateStreamMezo.sol\":3134:3159  bytes(metadataCID).length */\n      swap1\n      pop\n        /* \"PrivateStreamMezo.sol\":3134:3163  bytes(metadataCID).length > 0 */\n      gt\n        /* \"PrivateStreamMezo.sol\":3126:3177  require(bytes(metadataCID).length > 0, \"Empty CID\") */\n      tag_105\n      jumpi\n      mload(0x40)\n      0x08c379a000000000000000000000000000000000000000000000000000000000\n      dup2\n      mstore\n      0x04\n      add\n      tag_106\n      swap1\n      tag_107\n      jump\t// in\n    tag_106:\n      mload(0x40)\n      dup1\n      swap2\n      sub\n      swap1\n      revert\n    tag_105:\n        /* \"PrivateStreamMezo.sol\":3207:3208  0 */\n      0x00\n        /* \"PrivateStreamMezo.sol\":3196:3204  priceWei */\n      dup4\n        /* \"PrivateStreamMezo.sol\":3196:3208  priceWei > 0 */\n      gt\n        /* \"PrivateStreamMezo.sol\":3188:3230  require(priceWei > 0, \"Price must be > 0\") */\n      tag_108\n      jumpi\n      mload(0x40)\n      0x08c379a000000000000000000000000000000000000000000000000000000000\n      dup2\n      mstore\n      0x04\n      add\n      tag_109\n      swap1\n      tag_110\n      jump\t// in\n    tag_109:\n      mload(0x40)\n      dup1\n      swap2\n      sub\n      swap1\n      revert\n    tag_108:\n        /* \"PrivateStreamMezo.sol\":3267:3268  0 */\n      0x00\n        /* \"PrivateStreamMezo.sol\":3249:3264  durationSeconds */\n      dup3\n        /* \"PrivateStreamMezo.sol\":3249:3268  durationSeconds > 0 */\n      gt\n        /* \"PrivateStreamMezo.sol\":3241:3293  require(durationSeconds > 0, \"Duration must be > 0\") */\n      tag_111\n      jumpi\n      mload(0x40)\n      0x08c379a000000000000000000000000000000000000000000000000000000000\n      dup2\n      mstore\n      0x04\n      add\n      tag_112\n      swap1\n      tag_113\n      jump\t// in\n    tag_112:\n      mload(0x40)\n      dup1\n      swap2\n      sub\n      swap1\n      revert\n    tag_111:\n        /* \"PrivateStreamMezo.sol\":3311:3318  _nextId */\n      0x00\n      0x00\n        /* \"PrivateStreamMezo.sol\":3311:3320  _nextId++ */\n      dup2\n      sload\n      dup1\n      swap3\n      swap2\n      swap1\n      tag_114\n      swap1\n      tag_115\n      jump\t// in\n    tag_114:\n      swap2\n      swap1\n      pop\n      sstore\n        /* \"PrivateStreamMezo.sol\":3306:3320  id = _nextId++ */\n      swap1\n      pop\n        /* \"PrivateStreamMezo.sol\":3347:3542  Campaign(... */\n      mload(0x40)\n      dup1\n      0x0100\n      add\n      0x40\n      mstore\n      dup1\n        /* \"PrivateStreamMezo.sol\":3370:3372  id */\n      dup3\n        /* \"PrivateStreamMezo.sol\":3347:3542  Campaign(... */\n      dup2\n      mstore\n      0x20\n      add\n        /* \"PrivateStreamMezo.sol\":3387:3397  msg.sender */\n      caller\n        /* \"PrivateStreamMezo.sol\":3347:3542  Campaign(... */\n      0xffffffffffffffffffffffffffffffffffffffff\n      and\n      dup2\n      mstore\n      0x20\n      add\n        /* \"PrivateStreamMezo.sol\":3412:3423  metadataCID */\n      dup7\n      dup7\n        /* \"PrivateStreamMezo.sol\":3347:3542  Campaign(... */\n      dup1\n      dup1\n      0x1f\n      add\n      0x20\n      dup1\n      swap2\n      div\n      mul\n      0x20\n      add\n      mload(0x40)\n      swap1\n      dup2\n      add\n      0x40\n      mstore\n      dup1\n      swap4\n      swap3\n      swap2\n      swap1\n      dup2\n      dup2\n      mstore\n      0x20\n      add\n      dup4\n      dup4\n      dup1\n      dup3\n      dup5\n      calldatacopy\n      0x00\n      dup2\n      dup5\n      add\n      mstore\n      not(0x1f)\n      0x1f\n      dup3\n      add\n      and\n      swap1\n      pop\n      dup1\n      dup4\n      add\n      swap3\n      pop\n      pop\n      pop\n      pop\n      pop\n      pop\n      pop\n      dup2\n      mstore\n      0x20\n      add\n        /* \"PrivateStreamMezo.sol\":3438:3446  priceWei */\n      dup5\n        /* \"PrivateStreamMezo.sol\":3347:3542  Campaign(... */\n      dup2\n      mstore\n      0x20\n      add\n        /* \"PrivateStreamMezo.sol\":3461:3476  durationSeconds */\n      dup4\n        /* \"PrivateStreamMezo.sol\":3347:3542  Campaign(... */\n      dup2\n      mstore\n      0x20\n      add\n        /* \"PrivateStreamMezo.sol\":3491:3492  0 */\n      0x00\n        /* \"PrivateStreamMezo.sol\":3347:3542  Campaign(... */\n      dup2\n      mstore\n      0x20\n      add\n        /* \"PrivateStreamMezo.sol\":3507:3511  true */\n      0x01\n        /* \"PrivateStreamMezo.sol\":3347:3542  Campaign(... */\n      iszero\n      iszero\n      dup2\n      mstore\n      0x20\n      add\n        /* \"PrivateStreamMezo.sol\":3526:3531  false */\n      0x00\n        /* \"PrivateStreamMezo.sol\":3347:3542  Campaign(... */\n      iszero\n      iszero\n      dup2\n      mstore\n      pop\n        /* \"PrivateStreamMezo.sol\":3331:3340  campaigns */\n      0x01\n        /* \"PrivateStreamMezo.sol\":3331:3344  campaigns[id] */\n      0x00\n        /* \"PrivateStreamMezo.sol\":3341:3343  id */\n      dup4\n        /* \"PrivateStreamMezo.sol\":3331:3344  campaigns[id] */\n      dup2\n      mstore\n      0x20\n      add\n      swap1\n      dup2\n      mstore\n      0x20\n      add\n      0x00\n      keccak256\n        /* \"PrivateStreamMezo.sol\":3331:3542  campaigns[id] = Campaign(... */\n      0x00\n      dup3\n      add\n      mload\n      dup2\n      0x00\n      add\n      sstore\n      0x20\n      dup3\n      add\n      mload\n      dup2\n      0x01\n      add\n      exp(0x0100, 0x00)\n      dup2\n      sload\n      dup2\n      0xffffffffffffffffffffffffffffffffffffffff\n      mul\n      not\n      and\n      swap1\n      dup4\n      0xffffffffffffffffffffffffffffffffffffffff\n      and\n      mul\n      or\n      swap1\n      sstore\n      pop\n      0x40\n      dup3\n      add\n      mload\n      dup2\n      0x02\n      add\n      swap1\n      dup2\n      tag_116\n      swap2\n      swap1\n      tag_117\n      jump\t// in\n    tag_116:\n      pop\n      0x60\n      dup3\n      add\n      mload\n      dup2\n      0x03\n      add\n      sstore\n      0x80\n      dup3\n      add\n      mload\n      dup2\n      0x04\n      add\n      sstore\n      0xa0\n      dup3\n      add\n      mload\n      dup2\n      0x05\n      add\n      sstore\n      0xc0\n      dup3\n      add\n      mload\n      dup2\n      0x06\n      add\n      exp(0x0100, 0x00)\n      dup2\n      sload\n      dup2\n      0xff\n      mul\n      not\n      and\n      swap1\n      dup4\n      iszero\n      iszero\n      mul\n      or\n      swap1\n      sstore\n      pop\n      0xe0\n      dup3\n      add\n      mload\n      dup2\n      0x06\n      add\n      exp(0x0100, 0x01)\n      dup2\n      sload\n      dup2\n      0xff\n      mul\n      not\n      and\n      swap1\n      dup4\n      iszero\n      iszero\n      mul\n      or\n      swap1\n      sstore\n      pop\n      swap1\n      pop\n      pop\n        /* \"PrivateStreamMezo.sol\":3585:3589  true */\n      0x01\n        /* \"PrivateStreamMezo.sol\":3553:3564  hasCampaign */\n      0x02\n        /* \"PrivateStreamMezo.sol\":3553:3576  hasCampaign[msg.sender] */\n      0x00\n        /* \"PrivateStreamMezo.sol\":3565:3575  msg.sender */\n      caller\n        /* \"PrivateStreamMezo.sol\":3553:3576  hasCampaign[msg.sender] */\n      0xffffffffffffffffffffffffffffffffffffffff\n      and\n      0xffffffffffffffffffffffffffffffffffffffff\n      and\n      dup2\n      mstore\n      0x20\n      add\n      swap1\n      dup2\n      mstore\n      0x20\n      add\n      0x00\n      keccak256\n      0x00\n        /* \"PrivateStreamMezo.sol\":3553:3589  hasCampaign[msg.sender]       = true */\n      0x0100\n      exp\n      dup2\n      sload\n      dup2\n      0xff\n      mul\n      not\n      and\n      swap1\n      dup4\n      iszero\n      iszero\n      mul\n      or\n      swap1\n      sstore\n      pop\n        /* \"PrivateStreamMezo.sol\":3632:3634  id */\n      dup1\n        /* \"PrivateStreamMezo.sol\":3600:3617  creatorCampaignId */\n      0x03\n        /* \"PrivateStreamMezo.sol\":3600:3629  creatorCampaignId[msg.sender] */\n      0x00\n        /* \"PrivateStreamMezo.sol\":3618:3628  msg.sender */\n      caller\n        /* \"PrivateStreamMezo.sol\":3600:3629  creatorCampaignId[msg.sender] */\n      0xffffffffffffffffffffffffffffffffffffffff\n      and\n      0xffffffffffffffffffffffffffffffffffffffff\n      and\n      dup2\n      mstore\n      0x20\n      add\n      swap1\n      dup2\n      mstore\n      0x20\n      add\n      0x00\n      keccak256\n        /* \"PrivateStreamMezo.sol\":3600:3634  creatorCampaignId[msg.sender] = id */\n      dup2\n      swap1\n      sstore\n      pop\n        /* \"PrivateStreamMezo.sol\":3672:3682  msg.sender */\n      caller\n        /* \"PrivateStreamMezo.sol\":3652:3723  CampaignCreated(id, msg.sender, metadataCID, priceWei, durationSeconds) */\n      0xffffffffffffffffffffffffffffffffffffffff\n      and\n        /* \"PrivateStreamMezo.sol\":3668:3670  id */\n      dup2\n        /* \"PrivateStreamMezo.sol\":3652:3723  CampaignCreated(id, msg.sender, metadataCID, priceWei, durationSeconds) */\n      0xdc26653af5b99b2da33e2ad69ee6600d9aeccc82b034501db4338309615ca238\n        /* \"PrivateStreamMezo.sol\":3684:3695  metadataCID */\n      dup8\n      dup8\n        /* \"PrivateStreamMezo.sol\":3697:3705  priceWei */\n      dup8\n        /* \"PrivateStreamMezo.sol\":3707:3722  durationSeconds */\n      dup8\n        /* \"PrivateStreamMezo.sol\":3652:3723  CampaignCreated(id, msg.sender, metadataCID, priceWei, durationSeconds) */\n      mload(0x40)\n      tag_118\n      swap5\n      swap4\n      swap3\n      swap2\n      swap1\n      tag_119\n      jump\t// in\n    tag_118:\n      mload(0x40)\n      dup1\n      swap2\n      sub\n      swap1\n      log3\n        /* \"PrivateStreamMezo.sol\":2885:3731  function createCampaign(... */\n      swap5\n      swap4\n      pop\n      pop\n      pop\n      pop\n      jump\t// out\n        /* \"PrivateStreamMezo.sol\":5890:6021  function getCampaignByCreator(address creator) external view returns (uint256) {... */\n    tag_56:\n        /* \"PrivateStreamMezo.sol\":5960:5967  uint256 */\n      0x00\n        /* \"PrivateStreamMezo.sol\":5987:6004  creatorCampaignId */\n      0x03\n        /* \"PrivateStreamMezo.sol\":5987:6013  creatorCampaignId[creator] */\n      0x00\n        /* \"PrivateStreamMezo.sol\":6005:6012  creator */\n      dup4\n        /* \"PrivateStreamMezo.sol\":5987:6013  creatorCampaignId[creator] */\n      0xffffffffffffffffffffffffffffffffffffffff\n      and\n      0xffffffffffffffffffffffffffffffffffffffff\n      and\n      dup2\n      mstore\n      0x20\n      add\n      swap1\n      dup2\n      mstore\n      0x20\n      add\n      0x00\n      keccak256\n      sload\n        /* \"PrivateStreamMezo.sol\":5980:6013  return creatorCampaignId[creator] */\n      swap1\n      pop\n        /* \"PrivateStreamMezo.sol\":5890:6021  function getCampaignByCreator(address creator) external view returns (uint256) {... */\n      swap2\n      swap1\n      pop\n      jump\t// out\n        /* \"PrivateStreamMezo.sol\":5336:5502  function getCampaign(uint256 id) external view returns (Campaign memory) {... */\n    tag_61:\n        /* \"PrivateStreamMezo.sol\":5392:5407  Campaign memory */\n      tag_121\n      tag_122\n      jump\t// in\n    tag_121:\n        /* \"PrivateStreamMezo.sol\":5448:5449  0 */\n      0x00\n        /* \"PrivateStreamMezo.sol\":5428:5437  campaigns */\n      0x01\n        /* \"PrivateStreamMezo.sol\":5428:5441  campaigns[id] */\n      0x00\n        /* \"PrivateStreamMezo.sol\":5438:5440  id */\n      dup5\n        /* \"PrivateStreamMezo.sol\":5428:5441  campaigns[id] */\n      dup2\n      mstore\n      0x20\n      add\n      swap1\n      dup2\n      mstore\n      0x20\n      add\n      0x00\n      keccak256\n        /* \"PrivateStreamMezo.sol\":5428:5444  campaigns[id].id */\n      0x00\n      add\n      sload\n        /* \"PrivateStreamMezo.sol\":5428:5449  campaigns[id].id != 0 */\n      sub\n        /* \"PrivateStreamMezo.sol\":5420:5463  require(campaigns[id].id != 0, \"Not found\") */\n      tag_124\n      jumpi\n      mload(0x40)\n      0x08c379a000000000000000000000000000000000000000000000000000000000\n      dup2\n      mstore\n      0x04\n      add\n      tag_125\n      swap1\n      tag_126\n      jump\t// in\n    tag_125:\n      mload(0x40)\n      dup1\n      swap2\n      sub\n      swap1\n      revert\n    tag_124:\n        /* \"PrivateStreamMezo.sol\":5481:5490  campaigns */\n      0x01\n        /* \"PrivateStreamMezo.sol\":5481:5494  campaigns[id] */\n      0x00\n        /* \"PrivateStreamMezo.sol\":5491:5493  id */\n      dup4\n        /* \"PrivateStreamMezo.sol\":5481:5494  campaigns[id] */\n      dup2\n      mstore\n      0x20\n      add\n      swap1\n      dup2\n      mstore\n      0x20\n      add\n      0x00\n      keccak256\n        /* \"PrivateStreamMezo.sol\":5474:5494  return campaigns[id] */\n      mload(0x40)\n      dup1\n      0x0100\n      add\n      0x40\n      mstore\n      swap1\n      dup2\n      0x00\n      dup3\n      add\n      sload\n      dup2\n      mstore\n      0x20\n      add\n      0x01\n      dup3\n      add\n      0x00\n      swap1\n      sload\n      swap1\n      0x0100\n      exp\n      swap1\n      div\n      0xffffffffffffffffffffffffffffffffffffffff\n      and\n      0xffffffffffffffffffffffffffffffffffffffff\n      and\n      0xffffffffffffffffffffffffffffffffffffffff\n      and\n      dup2\n      mstore\n      0x20\n      add\n      0x02\n      dup3\n      add\n      dup1\n      sload\n      tag_127\n      swap1\n      tag_96\n      jump\t// in\n    tag_127:\n      dup1\n      0x1f\n      add\n      0x20\n      dup1\n      swap2\n      div\n      mul\n      0x20\n      add\n      mload(0x40)\n      swap1\n      dup2\n      add\n      0x40\n      mstore\n      dup1\n      swap3\n      swap2\n      swap1\n      dup2\n      dup2\n      mstore\n      0x20\n      add\n      dup3\n      dup1\n      sload\n      tag_128\n      swap1\n      tag_96\n      jump\t// in\n    tag_128:\n      dup1\n      iszero\n      tag_129\n      jumpi\n      dup1\n      0x1f\n      lt\n      tag_130\n      jumpi\n      0x0100\n      dup1\n      dup4\n      sload\n      div\n      mul\n      dup4\n      mstore\n      swap2\n      0x20\n      add\n      swap2\n      jump(tag_129)\n    tag_130:\n      dup3\n      add\n      swap2\n      swap1\n      0x00\n      mstore\n      keccak256(0x00, 0x20)\n      swap1\n    tag_131:\n      dup2\n      sload\n      dup2\n      mstore\n      swap1\n      0x01\n      add\n      swap1\n      0x20\n      add\n      dup1\n      dup4\n      gt\n      tag_131\n      jumpi\n      dup3\n      swap1\n      sub\n      0x1f\n      and\n      dup3\n      add\n      swap2\n    tag_129:\n      pop\n      pop\n      pop\n      pop\n      pop\n      dup2\n      mstore\n      0x20\n      add\n      0x03\n      dup3\n      add\n      sload\n      dup2\n      mstore\n      0x20\n      add\n      0x04\n      dup3\n      add\n      sload\n      dup2\n      mstore\n      0x20\n      add\n      0x05\n      dup3\n      add\n      sload\n      dup2\n      mstore\n      0x20\n      add\n      0x06\n      dup3\n      add\n      0x00\n      swap1\n      sload\n      swap1\n      0x0100\n      exp\n      swap1\n      div\n      0xff\n      and\n      iszero\n      iszero\n      iszero\n      iszero\n      dup2\n      mstore\n      0x20\n      add\n      0x06\n      dup3\n      add\n      0x01\n      swap1\n      sload\n      swap1\n      0x0100\n      exp\n      swap1\n      div\n      0xff\n      and\n      iszero\n      iszero\n      iszero\n      iszero\n      dup2\n      mstore\n      pop\n      pop\n      swap1\n      pop\n        /* \"PrivateStreamMezo.sol\":5336:5502  function getCampaign(uint256 id) external view returns (Campaign memory) {... */\n      swap2\n      swap1\n      pop\n      jump\t// out\n        /* \"PrivateStreamMezo.sol\":1547:1613  mapping(address => bool)                        public hasCampaign */\n    tag_67:\n      mstore(0x20, 0x02)\n      dup1\n      0x00\n      mstore\n      keccak256(0x00, 0x40)\n      0x00\n      swap2\n      pop\n      sload\n      swap1\n      0x0100\n      exp\n      swap1\n      div\n      0xff\n      and\n      dup2\n      jump\t// out\n        /* \"PrivateStreamMezo.sol\":6253:6525  function deactivateCampaign(uint256 id) external {... */\n    tag_73:\n        /* \"PrivateStreamMezo.sol\":6313:6331  Campaign storage c */\n      0x00\n        /* \"PrivateStreamMezo.sol\":6334:6343  campaigns */\n      0x01\n        /* \"PrivateStreamMezo.sol\":6334:6347  campaigns[id] */\n      0x00\n        /* \"PrivateStreamMezo.sol\":6344:6346  id */\n      dup4\n        /* \"PrivateStreamMezo.sol\":6334:6347  campaigns[id] */\n      dup2\n      mstore\n      0x20\n      add\n      swap1\n      dup2\n      mstore\n      0x20\n      add\n      0x00\n      keccak256\n        /* \"PrivateStreamMezo.sol\":6313:6347  Campaign storage c = campaigns[id] */\n      swap1\n      pop\n        /* \"PrivateStreamMezo.sol\":6379:6389  msg.sender */\n      caller\n        /* \"PrivateStreamMezo.sol\":6366:6389  c.creator == msg.sender */\n      0xffffffffffffffffffffffffffffffffffffffff\n      and\n        /* \"PrivateStreamMezo.sol\":6366:6367  c */\n      dup2\n        /* \"PrivateStreamMezo.sol\":6366:6375  c.creator */\n      0x01\n      add\n      0x00\n      swap1\n      sload\n      swap1\n      0x0100\n      exp\n      swap1\n      div\n      0xffffffffffffffffffffffffffffffffffffffff\n      and\n        /* \"PrivateStreamMezo.sol\":6366:6389  c.creator == msg.sender */\n      0xffffffffffffffffffffffffffffffffffffffff\n      and\n      eq\n        /* \"PrivateStreamMezo.sol\":6358:6403  require(c.creator == msg.sender, \"Not owner\") */\n      tag_133\n      jumpi\n      mload(0x40)\n      0x08c379a000000000000000000000000000000000000000000000000000000000\n      dup2\n      mstore\n      0x04\n      add\n      tag_134\n      swap1\n      tag_135\n      jump\t// in\n    tag_134:\n      mload(0x40)\n      dup1\n      swap2\n      sub\n      swap1\n      revert\n    tag_133:\n        /* \"PrivateStreamMezo.sol\":6422:6423  c */\n      dup1\n        /* \"PrivateStreamMezo.sol\":6422:6430  c.active */\n      0x06\n      add\n      0x00\n      swap1\n      sload\n      swap1\n      0x0100\n      exp\n      swap1\n      div\n      0xff\n      and\n        /* \"PrivateStreamMezo.sol\":6414:6451  require(c.active, \"Already inactive\") */\n      tag_136\n      jumpi\n      mload(0x40)\n      0x08c379a000000000000000000000000000000000000000000000000000000000\n      dup2\n      mstore\n      0x04\n      add\n      tag_137\n      swap1\n      tag_138\n      jump\t// in\n    tag_137:\n      mload(0x40)\n      dup1\n      swap2\n      sub\n      swap1\n      revert\n    tag_136:\n        /* \"PrivateStreamMezo.sol\":6473:6478  false */\n      0x00\n        /* \"PrivateStreamMezo.sol\":6462:6463  c */\n      dup2\n        /* \"PrivateStreamMezo.sol\":6462:6470  c.active */\n      0x06\n      add\n      0x00\n        /* \"PrivateStreamMezo.sol\":6462:6478  c.active = false */\n      0x0100\n      exp\n      dup2\n      sload\n      dup2\n      0xff\n      mul\n      not\n      and\n      swap1\n      dup4\n      iszero\n      iszero\n      mul\n      or\n      swap1\n      sstore\n      pop\n        /* \"PrivateStreamMezo.sol\":6514:6516  id */\n      dup2\n        /* \"PrivateStreamMezo.sol\":6494:6517  CampaignDeactivated(id) */\n      0xa8ad368de07a46b4c9632fee456e1227f02e971f82939d68bd4696b2e378dfa7\n      mload(0x40)\n      mload(0x40)\n      dup1\n      swap2\n      sub\n      swap1\n      log2\n        /* \"PrivateStreamMezo.sol\":6302:6525  {... */\n      pop\n        /* \"PrivateStreamMezo.sol\":6253:6525  function deactivateCampaign(uint256 id) external {... */\n      pop\n      jump\t// out\n        /* \"PrivateStreamMezo.sol\":3862:5285  function purchaseAccess(uint256 id) external payable {... */\n    tag_76:\n        /* \"PrivateStreamMezo.sol\":3926:3944  Campaign storage c */\n      0x00\n        /* \"PrivateStreamMezo.sol\":3947:3956  campaigns */\n      0x01\n        /* \"PrivateStreamMezo.sol\":3947:3960  campaigns[id] */\n      0x00\n        /* \"PrivateStreamMezo.sol\":3957:3959  id */\n      dup4\n        /* \"PrivateStreamMezo.sol\":3947:3960  campaigns[id] */\n      dup2\n      mstore\n      0x20\n      add\n      swap1\n      dup2\n      mstore\n      0x20\n      add\n      0x00\n      keccak256\n        /* \"PrivateStreamMezo.sol\":3926:3960  Campaign storage c = campaigns[id] */\n      swap1\n      pop\n        /* \"PrivateStreamMezo.sol\":3987:3988  0 */\n      0x00\n        /* \"PrivateStreamMezo.sol\":3979:3980  c */\n      dup2\n        /* \"PrivateStreamMezo.sol\":3979:3983  c.id */\n      0x00\n      add\n      sload\n        /* \"PrivateStreamMezo.sol\":3979:3988  c.id != 0 */\n      sub\n        /* \"PrivateStreamMezo.sol\":3971:4016  require(c.id != 0,               \"Not found\") */\n      tag_140\n      jumpi\n      mload(0x40)\n      0x08c379a000000000000000000000000000000000000000000000000000000000\n      dup2\n      mstore\n      0x04\n      add\n      tag_141\n      swap1\n      tag_126\n      jump\t// in\n    tag_141:\n      mload(0x40)\n      dup1\n      swap2\n      sub\n      swap1\n      revert\n    tag_140:\n        /* \"PrivateStreamMezo.sol\":4035:4036  c */\n      dup1\n        /* \"PrivateStreamMezo.sol\":4035:4043  c.active */\n      0x06\n      add\n      0x00\n      swap1\n      sload\n      swap1\n      0x0100\n      exp\n      swap1\n      div\n      0xff\n      and\n        /* \"PrivateStreamMezo.sol\":4027:4073  require(c.active,                \"Not active\") */\n      tag_142\n      jumpi\n      mload(0x40)\n      0x08c379a000000000000000000000000000000000000000000000000000000000\n      dup2\n      mstore\n      0x04\n      add\n      tag_143\n      swap1\n      tag_144\n      jump\t// in\n    tag_143:\n      mload(0x40)\n      dup1\n      swap2\n      sub\n      swap1\n      revert\n    tag_142:\n        /* \"PrivateStreamMezo.sol\":4093:4094  c */\n      dup1\n        /* \"PrivateStreamMezo.sol\":4093:4102  c.soldOut */\n      0x06\n      add\n      0x01\n      swap1\n      sload\n      swap1\n      0x0100\n      exp\n      swap1\n      div\n      0xff\n      and\n        /* \"PrivateStreamMezo.sol\":4092:4102  !c.soldOut */\n      iszero\n        /* \"PrivateStreamMezo.sol\":4084:4128  require(!c.soldOut,              \"Sold out\") */\n      tag_145\n      jumpi\n      mload(0x40)\n      0x08c379a000000000000000000000000000000000000000000000000000000000\n      dup2\n      mstore\n      0x04\n      add\n      tag_146\n      swap1\n      tag_147\n      jump\t// in\n    tag_146:\n      mload(0x40)\n      dup1\n      swap2\n      sub\n      swap1\n      revert\n    tag_145:\n        /* \"PrivateStreamMezo.sol\":4160:4161  c */\n      dup1\n        /* \"PrivateStreamMezo.sol\":4160:4170  c.priceWei */\n      0x03\n      add\n      sload\n        /* \"PrivateStreamMezo.sol\":4147:4156  msg.value */\n      callvalue\n        /* \"PrivateStreamMezo.sol\":4147:4170  msg.value >= c.priceWei */\n      lt\n      iszero\n        /* \"PrivateStreamMezo.sol\":4139:4195  require(msg.value >= c.priceWei, \"Insufficient payment\") */\n      tag_148\n      jumpi\n      mload(0x40)\n      0x08c379a000000000000000000000000000000000000000000000000000000000\n      dup2\n      mstore\n      0x04\n      add\n      tag_149\n      swap1\n      tag_150\n      jump\t// in\n    tag_149:\n      mload(0x40)\n      dup1\n      swap2\n      sub\n      swap1\n      revert\n    tag_148:\n        /* \"PrivateStreamMezo.sol\":4239:4254  uint256 payment */\n      0x00\n        /* \"PrivateStreamMezo.sol\":4257:4258  c */\n      dup2\n        /* \"PrivateStreamMezo.sol\":4257:4267  c.priceWei */\n      0x03\n      add\n      sload\n        /* \"PrivateStreamMezo.sol\":4239:4267  uint256 payment = c.priceWei */\n      swap1\n      pop\n        /* \"PrivateStreamMezo.sol\":4294:4301  payment */\n      dup1\n        /* \"PrivateStreamMezo.sol\":4282:4291  msg.value */\n      callvalue\n        /* \"PrivateStreamMezo.sol\":4282:4301  msg.value > payment */\n      gt\n        /* \"PrivateStreamMezo.sol\":4278:4379  if (msg.value > payment) {... */\n      iszero\n      tag_151\n      jumpi\n        /* \"PrivateStreamMezo.sol\":4326:4336  msg.sender */\n      caller\n        /* \"PrivateStreamMezo.sol\":4318:4346  payable(msg.sender).transfer */\n      0xffffffffffffffffffffffffffffffffffffffff\n      and\n        /* \"PrivateStreamMezo.sol\":4318:4367  payable(msg.sender).transfer(msg.value - payment) */\n      0x08fc\n        /* \"PrivateStreamMezo.sol\":4359:4366  payment */\n      dup3\n        /* \"PrivateStreamMezo.sol\":4347:4356  msg.value */\n      callvalue\n        /* \"PrivateStreamMezo.sol\":4347:4366  msg.value - payment */\n      tag_152\n      swap2\n      swap1\n      tag_94\n      jump\t// in\n    tag_152:\n        /* \"PrivateStreamMezo.sol\":4318:4367  payable(msg.sender).transfer(msg.value - payment) */\n      swap1\n      dup2\n      iszero\n      mul\n      swap1\n      mload(0x40)\n      0x00\n      mload(0x40)\n      dup1\n      dup4\n      sub\n      dup2\n      dup6\n      dup9\n      dup9\n      call\n      swap4\n      pop\n      pop\n      pop\n      pop\n      iszero\n      dup1\n      iszero\n      tag_154\n      jumpi\n      returndatacopy(0x00, 0x00, returndatasize)\n      revert(0x00, returndatasize)\n    tag_154:\n      pop\n        /* \"PrivateStreamMezo.sol\":4278:4379  if (msg.value > payment) {... */\n    tag_151:\n        /* \"PrivateStreamMezo.sol\":4456:4467  uint256 fee */\n      0x00\n        /* \"PrivateStreamMezo.sol\":4503:4508  10000 */\n      0x2710\n        /* \"PrivateStreamMezo.sol\":4485:4499  platformFeeBps */\n      immutable(\"0x1572b593c53d839d80004aa4b8c51211864104f06ace9e22be9c4365b50655ea\")\n        /* \"PrivateStreamMezo.sol\":4475:4482  payment */\n      dup4\n        /* \"PrivateStreamMezo.sol\":4475:4499  payment * platformFeeBps */\n      tag_155\n      swap2\n      swap1\n      tag_156\n      jump\t// in\n    tag_155:\n        /* \"PrivateStreamMezo.sol\":4474:4508  (payment * platformFeeBps) / 10000 */\n      tag_157\n      swap2\n      swap1\n      tag_158\n      jump\t// in\n    tag_157:\n        /* \"PrivateStreamMezo.sol\":4456:4508  uint256 fee     = (payment * platformFeeBps) / 10000 */\n      swap1\n      pop\n        /* \"PrivateStreamMezo.sol\":4519:4534  uint256 creator */\n      0x00\n        /* \"PrivateStreamMezo.sol\":4547:4550  fee */\n      dup2\n        /* \"PrivateStreamMezo.sol\":4537:4544  payment */\n      dup4\n        /* \"PrivateStreamMezo.sol\":4537:4550  payment - fee */\n      tag_159\n      swap2\n      swap1\n      tag_94\n      jump\t// in\n    tag_159:\n        /* \"PrivateStreamMezo.sol\":4519:4550  uint256 creator = payment - fee */\n      swap1\n      pop\n        /* \"PrivateStreamMezo.sol\":4569:4570  c */\n      dup4\n        /* \"PrivateStreamMezo.sol\":4569:4578  c.creator */\n      0x01\n      add\n      0x00\n      swap1\n      sload\n      swap1\n      0x0100\n      exp\n      swap1\n      div\n      0xffffffffffffffffffffffffffffffffffffffff\n      and\n        /* \"PrivateStreamMezo.sol\":4561:4588  payable(c.creator).transfer */\n      0xffffffffffffffffffffffffffffffffffffffff\n      and\n        /* \"PrivateStreamMezo.sol\":4561:4597  payable(c.creator).transfer(creator) */\n      0x08fc\n        /* \"PrivateStreamMezo.sol\":4589:4596  creator */\n      dup3\n        /* \"PrivateStreamMezo.sol\":4561:4597  payable(c.creator).transfer(creator) */\n      swap1\n      dup2\n      iszero\n      mul\n      swap1\n      mload(0x40)\n      0x00\n      mload(0x40)\n      dup1\n      dup4\n      sub\n      dup2\n      dup6\n      dup9\n      dup9\n      call\n      swap4\n      pop\n      pop\n      pop\n      pop\n      iszero\n      dup1\n      iszero\n      tag_161\n      jumpi\n      returndatacopy(0x00, 0x00, returndatasize)\n      revert(0x00, returndatasize)\n    tag_161:\n      pop\n        /* \"PrivateStreamMezo.sol\":4616:4632  platformTreasury */\n      immutable(\"0xf4c2b5de886427473655d4c904c743576dc2d53249b7535d96c06cc97ae7216b\")\n        /* \"PrivateStreamMezo.sol\":4608:4642  payable(platformTreasury).transfer */\n      0xffffffffffffffffffffffffffffffffffffffff\n      and\n        /* \"PrivateStreamMezo.sol\":4608:4647  payable(platformTreasury).transfer(fee) */\n      0x08fc\n        /* \"PrivateStreamMezo.sol\":4643:4646  fee */\n      dup4\n        /* \"PrivateStreamMezo.sol\":4608:4647  payable(platformTreasury).transfer(fee) */\n      swap1\n      dup2\n      iszero\n      mul\n      swap1\n      mload(0x40)\n      0x00\n      mload(0x40)\n      dup1\n      dup4\n      sub\n      dup2\n      dup6\n      dup9\n      dup9\n      call\n      swap4\n      pop\n      pop\n      pop\n      pop\n      iszero\n      dup1\n      iszero\n      tag_163\n      jumpi\n      returndatacopy(0x00, 0x00, returndatasize)\n      revert(0x00, returndatasize)\n    tag_163:\n      pop\n        /* \"PrivateStreamMezo.sol\":4704:4715  uint256 exp */\n      0x00\n        /* \"PrivateStreamMezo.sol\":4736:4737  c */\n      dup5\n        /* \"PrivateStreamMezo.sol\":4736:4753  c.durationSeconds */\n      0x04\n      add\n      sload\n        /* \"PrivateStreamMezo.sol\":4718:4733  block.timestamp */\n      timestamp\n        /* \"PrivateStreamMezo.sol\":4718:4753  block.timestamp + c.durationSeconds */\n      tag_164\n      swap2\n      swap1\n      tag_165\n      jump\t// in\n    tag_164:\n        /* \"PrivateStreamMezo.sol\":4704:4753  uint256 exp = block.timestamp + c.durationSeconds */\n      swap1\n      pop\n        /* \"PrivateStreamMezo.sol\":4799:4814  block.timestamp */\n      timestamp\n        /* \"PrivateStreamMezo.sol\":4768:4780  accessExpiry */\n      0x04\n        /* \"PrivateStreamMezo.sol\":4768:4784  accessExpiry[id] */\n      0x00\n        /* \"PrivateStreamMezo.sol\":4781:4783  id */\n      dup9\n        /* \"PrivateStreamMezo.sol\":4768:4784  accessExpiry[id] */\n      dup2\n      mstore\n      0x20\n      add\n      swap1\n      dup2\n      mstore\n      0x20\n      add\n      0x00\n      keccak256\n        /* \"PrivateStreamMezo.sol\":4768:4796  accessExpiry[id][msg.sender] */\n      0x00\n        /* \"PrivateStreamMezo.sol\":4785:4795  msg.sender */\n      caller\n        /* \"PrivateStreamMezo.sol\":4768:4796  accessExpiry[id][msg.sender] */\n      0xffffffffffffffffffffffffffffffffffffffff\n      and\n      0xffffffffffffffffffffffffffffffffffffffff\n      and\n      dup2\n      mstore\n      0x20\n      add\n      swap1\n      dup2\n      mstore\n      0x20\n      add\n      0x00\n      keccak256\n      sload\n        /* \"PrivateStreamMezo.sol\":4768:4814  accessExpiry[id][msg.sender] > block.timestamp */\n      gt\n        /* \"PrivateStreamMezo.sol\":4764:4897  if (accessExpiry[id][msg.sender] > block.timestamp) {... */\n      iszero\n      tag_166\n      jumpi\n        /* \"PrivateStreamMezo.sol\":4868:4869  c */\n      dup5\n        /* \"PrivateStreamMezo.sol\":4868:4885  c.durationSeconds */\n      0x04\n      add\n      sload\n        /* \"PrivateStreamMezo.sol\":4837:4849  accessExpiry */\n      0x04\n        /* \"PrivateStreamMezo.sol\":4837:4853  accessExpiry[id] */\n      0x00\n        /* \"PrivateStreamMezo.sol\":4850:4852  id */\n      dup9\n        /* \"PrivateStreamMezo.sol\":4837:4853  accessExpiry[id] */\n      dup2\n      mstore\n      0x20\n      add\n      swap1\n      dup2\n      mstore\n      0x20\n      add\n      0x00\n      keccak256\n        /* \"PrivateStreamMezo.sol\":4837:4865  accessExpiry[id][msg.sender] */\n      0x00\n        /* \"PrivateStreamMezo.sol\":4854:4864  msg.sender */\n      caller\n        /* \"PrivateStreamMezo.sol\":4837:4865  accessExpiry[id][msg.sender] */\n      0xffffffffffffffffffffffffffffffffffffffff\n      and\n      0xffffffffffffffffffffffffffffffffffffffff\n      and\n      dup2\n      mstore\n      0x20\n      add\n      swap1\n      dup2\n      mstore\n      0x20\n      add\n      0x00\n      keccak256\n      sload\n        /* \"PrivateStreamMezo.sol\":4837:4885  accessExpiry[id][msg.sender] + c.durationSeconds */\n      tag_167\n      swap2\n      swap1\n      tag_165\n      jump\t// in\n    tag_167:\n        /* \"PrivateStreamMezo.sol\":4831:4885  exp = accessExpiry[id][msg.sender] + c.durationSeconds */\n      swap1\n      pop\n        /* \"PrivateStreamMezo.sol\":4764:4897  if (accessExpiry[id][msg.sender] > block.timestamp) {... */\n    tag_166:\n        /* \"PrivateStreamMezo.sol\":4938:4941  exp */\n      dup1\n        /* \"PrivateStreamMezo.sol\":4907:4919  accessExpiry */\n      0x04\n        /* \"PrivateStreamMezo.sol\":4907:4923  accessExpiry[id] */\n      0x00\n        /* \"PrivateStreamMezo.sol\":4920:4922  id */\n      dup9\n        /* \"PrivateStreamMezo.sol\":4907:4923  accessExpiry[id] */\n      dup2\n      mstore\n      0x20\n      add\n      swap1\n      dup2\n      mstore\n      0x20\n      add\n      0x00\n      keccak256\n        /* \"PrivateStreamMezo.sol\":4907:4935  accessExpiry[id][msg.sender] */\n      0x00\n        /* \"PrivateStreamMezo.sol\":4924:4934  msg.sender */\n      caller\n        /* \"PrivateStreamMezo.sol\":4907:4935  accessExpiry[id][msg.sender] */\n      0xffffffffffffffffffffffffffffffffffffffff\n      and\n      0xffffffffffffffffffffffffffffffffffffffff\n      and\n      dup2\n      mstore\n      0x20\n      add\n      swap1\n      dup2\n      mstore\n      0x20\n      add\n      0x00\n      keccak256\n        /* \"PrivateStreamMezo.sol\":4907:4941  accessExpiry[id][msg.sender] = exp */\n      dup2\n      swap1\n      sstore\n      pop\n        /* \"PrivateStreamMezo.sol\":4975:4982  payment */\n      dup4\n        /* \"PrivateStreamMezo.sol\":4954:4955  c */\n      dup6\n        /* \"PrivateStreamMezo.sol\":4954:4971  c.totalRevenueWei */\n      0x05\n      add\n      0x00\n        /* \"PrivateStreamMezo.sol\":4954:4982  c.totalRevenueWei += payment */\n      dup3\n      dup3\n      sload\n      tag_168\n      swap2\n      swap1\n      tag_165\n      jump\t// in\n    tag_168:\n      swap3\n      pop\n      pop\n      dup2\n      swap1\n      sstore\n      pop\n        /* \"PrivateStreamMezo.sol\":5018:5028  msg.sender */\n      caller\n        /* \"PrivateStreamMezo.sol\":4998:5043  AccessPurchased(id, msg.sender, payment, exp) */\n      0xffffffffffffffffffffffffffffffffffffffff\n      and\n        /* \"PrivateStreamMezo.sol\":5014:5016  id */\n      dup7\n        /* \"PrivateStreamMezo.sol\":4998:5043  AccessPurchased(id, msg.sender, payment, exp) */\n      0x79f205d05e1d9f99a7e4a6d2e5d9fc75c372c7033d239fefe5e5dec18d472bd9\n        /* \"PrivateStreamMezo.sol\":5030:5037  payment */\n      dup7\n        /* \"PrivateStreamMezo.sol\":5039:5042  exp */\n      dup5\n        /* \"PrivateStreamMezo.sol\":4998:5043  AccessPurchased(id, msg.sender, payment, exp) */\n      mload(0x40)\n      tag_169\n      swap3\n      swap2\n      swap1\n      tag_170\n      jump\t// in\n    tag_169:\n      mload(0x40)\n      dup1\n      swap2\n      sub\n      swap1\n      log3\n        /* \"PrivateStreamMezo.sol\":5128:5141  revenueCapWei */\n      immutable(\"0x81e080ffc23e8b8d44dd829bc823229e92b893eb1d8f624419d3f5682eb97fc3\")\n        /* \"PrivateStreamMezo.sol\":5107:5108  c */\n      dup6\n        /* \"PrivateStreamMezo.sol\":5107:5124  c.totalRevenueWei */\n      0x05\n      add\n      sload\n        /* \"PrivateStreamMezo.sol\":5107:5141  c.totalRevenueWei >= revenueCapWei */\n      lt\n        /* \"PrivateStreamMezo.sol\":5103:5278  if (c.totalRevenueWei >= revenueCapWei) {... */\n      tag_171\n      jumpi\n        /* \"PrivateStreamMezo.sol\":5170:5174  true */\n      0x01\n        /* \"PrivateStreamMezo.sol\":5158:5159  c */\n      dup6\n        /* \"PrivateStreamMezo.sol\":5158:5167  c.soldOut */\n      0x06\n      add\n      0x01\n        /* \"PrivateStreamMezo.sol\":5158:5174  c.soldOut = true */\n      0x0100\n      exp\n      dup2\n      sload\n      dup2\n      0xff\n      mul\n      not\n      and\n      swap1\n      dup4\n      iszero\n      iszero\n      mul\n      or\n      swap1\n      sstore\n      pop\n        /* \"PrivateStreamMezo.sol\":5201:5206  false */\n      0x00\n        /* \"PrivateStreamMezo.sol\":5189:5190  c */\n      dup6\n        /* \"PrivateStreamMezo.sol\":5189:5197  c.active */\n      0x06\n      add\n      0x00\n        /* \"PrivateStreamMezo.sol\":5189:5206  c.active  = false */\n      0x0100\n      exp\n      dup2\n      sload\n      dup2\n      0xff\n      mul\n      not\n      and\n      swap1\n      dup4\n      iszero\n      iszero\n      mul\n      or\n      swap1\n      sstore\n      pop\n        /* \"PrivateStreamMezo.sol\":5244:5246  id */\n      dup6\n        /* \"PrivateStreamMezo.sol\":5226:5266  RevenueCapReached(id, c.totalRevenueWei) */\n      0x428863f46f1c52b568c5a1c58db93b0efaa495735ce458976e47ac5d38b36c51\n        /* \"PrivateStreamMezo.sol\":5248:5249  c */\n      dup7\n        /* \"PrivateStreamMezo.sol\":5248:5265  c.totalRevenueWei */\n      0x05\n      add\n      sload\n        /* \"PrivateStreamMezo.sol\":5226:5266  RevenueCapReached(id, c.totalRevenueWei) */\n      mload(0x40)\n      tag_172\n      swap2\n      swap1\n      tag_23\n      jump\t// in\n    tag_172:\n      mload(0x40)\n      dup1\n      swap2\n      sub\n      swap1\n      log2\n        /* \"PrivateStreamMezo.sol\":5103:5278  if (c.totalRevenueWei >= revenueCapWei) {... */\n    tag_171:\n        /* \"PrivateStreamMezo.sol\":3915:5285  {... */\n      pop\n      pop\n      pop\n      pop\n      pop\n        /* \"PrivateStreamMezo.sol\":3862:5285  function purchaseAccess(uint256 id) external payable {... */\n      pop\n      jump\t// out\n        /* \"PrivateStreamMezo.sol\":1399:1437  uint256 public immutable revenueCapWei */\n    tag_79:\n      immutable(\"0x81e080ffc23e8b8d44dd829bc823229e92b893eb1d8f624419d3f5682eb97fc3\")\n      dup2\n      jump\t// out\n        /* \"PrivateStreamMezo.sol\":5575:5811  function hasAccess(uint256 id, address buyer)... */\n    tag_84:\n        /* \"PrivateStreamMezo.sol\":5671:5681  bool valid */\n      0x00\n        /* \"PrivateStreamMezo.sol\":5683:5700  uint256 expiresAt */\n      0x00\n        /* \"PrivateStreamMezo.sol\":5730:5742  accessExpiry */\n      0x04\n        /* \"PrivateStreamMezo.sol\":5730:5746  accessExpiry[id] */\n      0x00\n        /* \"PrivateStreamMezo.sol\":5743:5745  id */\n      dup6\n        /* \"PrivateStreamMezo.sol\":5730:5746  accessExpiry[id] */\n      dup2\n      mstore\n      0x20\n      add\n      swap1\n      dup2\n      mstore\n      0x20\n      add\n      0x00\n      keccak256\n        /* \"PrivateStreamMezo.sol\":5730:5753  accessExpiry[id][buyer] */\n      0x00\n        /* \"PrivateStreamMezo.sol\":5747:5752  buyer */\n      dup5\n        /* \"PrivateStreamMezo.sol\":5730:5753  accessExpiry[id][buyer] */\n      0xffffffffffffffffffffffffffffffffffffffff\n      and\n      0xffffffffffffffffffffffffffffffffffffffff\n      and\n      dup2\n      mstore\n      0x20\n      add\n      swap1\n      dup2\n      mstore\n      0x20\n      add\n      0x00\n      keccak256\n      sload\n        /* \"PrivateStreamMezo.sol\":5718:5753  expiresAt = accessExpiry[id][buyer] */\n      swap1\n      pop\n        /* \"PrivateStreamMezo.sol\":5788:5803  block.timestamp */\n      timestamp\n        /* \"PrivateStreamMezo.sol\":5776:5785  expiresAt */\n      dup2\n        /* \"PrivateStreamMezo.sol\":5776:5803  expiresAt > block.timestamp */\n      gt\n        /* \"PrivateStreamMezo.sol\":5764:5803  valid     = expiresAt > block.timestamp */\n      swap2\n      pop\n        /* \"PrivateStreamMezo.sol\":5575:5811  function hasAccess(uint256 id, address buyer)... */\n      swap3\n      pop\n      swap3\n      swap1\n      pop\n      jump\t// out\n        /* \"PrivateStreamMezo.sol\":1305:1346  address public immutable platformTreasury */\n    tag_89:\n      immutable(\"0xf4c2b5de886427473655d4c904c743576dc2d53249b7535d96c06cc97ae7216b\")\n      dup2\n      jump\t// out\n    tag_122:\n      mload(0x40)\n      dup1\n      0x0100\n      add\n      0x40\n      mstore\n      dup1\n      0x00\n      dup2\n      mstore\n      0x20\n      add\n      and(0xffffffffffffffffffffffffffffffffffffffff, 0x00)\n      dup2\n      mstore\n      0x20\n      add\n      0x60\n      dup2\n      mstore\n      0x20\n      add\n      0x00\n      dup2\n      mstore\n      0x20\n      add\n      0x00\n      dup2\n      mstore\n      0x20\n      add\n      0x00\n      dup2\n      mstore\n      0x20\n      add\n      iszero(iszero(0x00))\n      dup2\n      mstore\n      0x20\n      add\n      iszero(iszero(0x00))\n      dup2\n      mstore\n      pop\n      swap1\n      jump\t// out\n        /* \"#utility.yul\":7:84   */\n    tag_174:\n        /* \"#utility.yul\":44:51   */\n      0x00\n        /* \"#utility.yul\":73:78   */\n      dup2\n        /* \"#utility.yul\":62:78   */\n      swap1\n      pop\n        /* \"#utility.yul\":7:84   */\n      swap2\n      swap1\n      pop\n      jump\t// out\n        /* \"#utility.yul\":90:208   */\n    tag_175:\n        /* \"#utility.yul\":177:201   */\n      tag_247\n        /* \"#utility.yul\":195:200   */\n      dup2\n        /* \"#utility.yul\":177:201   */\n      tag_174\n      jump\t// in\n    tag_247:\n        /* \"#utility.yul\":172:175   */\n      dup3\n        /* \"#utility.yul\":165:202   */\n      mstore\n        /* \"#utility.yul\":90:208   */\n      pop\n      pop\n      jump\t// out\n        /* \"#utility.yul\":214:436   */\n    tag_23:\n        /* \"#utility.yul\":307:311   */\n      0x00\n        /* \"#utility.yul\":345:347   */\n      0x20\n        /* \"#utility.yul\":334:343   */\n      dup3\n        /* \"#utility.yul\":330:348   */\n      add\n        /* \"#utility.yul\":322:348   */\n      swap1\n      pop\n        /* \"#utility.yul\":358:429   */\n      tag_249\n        /* \"#utility.yul\":426:427   */\n      0x00\n        /* \"#utility.yul\":415:424   */\n      dup4\n        /* \"#utility.yul\":411:428   */\n      add\n        /* \"#utility.yul\":402:408   */\n      dup5\n        /* \"#utility.yul\":358:429   */\n      tag_175\n      jump\t// in\n    tag_249:\n        /* \"#utility.yul\":214:436   */\n      swap3\n      swap2\n      pop\n      pop\n      jump\t// out\n        /* \"#utility.yul\":523:640   */\n    tag_177:\n        /* \"#utility.yul\":632:633   */\n      0x00\n        /* \"#utility.yul\":629:630   */\n      0x00\n        /* \"#utility.yul\":622:634   */\n      revert\n        /* \"#utility.yul\":646:763   */\n    tag_178:\n        /* \"#utility.yul\":755:756   */\n      0x00\n        /* \"#utility.yul\":752:753   */\n      0x00\n        /* \"#utility.yul\":745:757   */\n      revert\n        /* \"#utility.yul\":769:895   */\n    tag_179:\n        /* \"#utility.yul\":806:813   */\n      0x00\n        /* \"#utility.yul\":846:888   */\n      0xffffffffffffffffffffffffffffffffffffffff\n        /* \"#utility.yul\":839:844   */\n      dup3\n        /* \"#utility.yul\":835:889   */\n      and\n        /* \"#utility.yul\":824:889   */\n      swap1\n      pop\n        /* \"#utility.yul\":769:895   */\n      swap2\n      swap1\n      pop\n      jump\t// out\n        /* \"#utility.yul\":901:997   */\n    tag_180:\n        /* \"#utility.yul\":938:945   */\n      0x00\n        /* \"#utility.yul\":967:991   */\n      tag_255\n        /* \"#utility.yul\":985:990   */\n      dup3\n        /* \"#utility.yul\":967:991   */\n      tag_179\n      jump\t// in\n    tag_255:\n        /* \"#utility.yul\":956:991   */\n      swap1\n      pop\n        /* \"#utility.yul\":901:997   */\n      swap2\n      swap1\n      pop\n      jump\t// out\n        /* \"#utility.yul\":1003:1125   */\n    tag_181:\n        /* \"#utility.yul\":1076:1100   */\n      tag_257\n        /* \"#utility.yul\":1094:1099   */\n      dup2\n        /* \"#utility.yul\":1076:1100   */\n      tag_180\n      jump\t// in\n    tag_257:\n        /* \"#utility.yul\":1069:1074   */\n      dup2\n        /* \"#utility.yul\":1066:1101   */\n      eq\n        /* \"#utility.yul\":1056:1119   */\n      tag_258\n      jumpi\n        /* \"#utility.yul\":1115:1116   */\n      0x00\n        /* \"#utility.yul\":1112:1113   */\n      0x00\n        /* \"#utility.yul\":1105:1117   */\n      revert\n        /* \"#utility.yul\":1056:1119   */\n    tag_258:\n        /* \"#utility.yul\":1003:1125   */\n      pop\n      jump\t// out\n        /* \"#utility.yul\":1131:1270   */\n    tag_182:\n        /* \"#utility.yul\":1177:1182   */\n      0x00\n        /* \"#utility.yul\":1215:1221   */\n      dup2\n        /* \"#utility.yul\":1202:1222   */\n      calldataload\n        /* \"#utility.yul\":1193:1222   */\n      swap1\n      pop\n        /* \"#utility.yul\":1231:1264   */\n      tag_260\n        /* \"#utility.yul\":1258:1263   */\n      dup2\n        /* \"#utility.yul\":1231:1264   */\n      tag_181\n      jump\t// in\n    tag_260:\n        /* \"#utility.yul\":1131:1270   */\n      swap3\n      swap2\n      pop\n      pop\n      jump\t// out\n        /* \"#utility.yul\":1276:1605   */\n    tag_27:\n        /* \"#utility.yul\":1335:1341   */\n      0x00\n        /* \"#utility.yul\":1384:1386   */\n      0x20\n        /* \"#utility.yul\":1372:1381   */\n      dup3\n        /* \"#utility.yul\":1363:1370   */\n      dup5\n        /* \"#utility.yul\":1359:1382   */\n      sub\n        /* \"#utility.yul\":1355:1387   */\n      slt\n        /* \"#utility.yul\":1352:1471   */\n      iszero\n      tag_262\n      jumpi\n        /* \"#utility.yul\":1390:1469   */\n      tag_263\n      tag_177\n      jump\t// in\n    tag_263:\n        /* \"#utility.yul\":1352:1471   */\n    tag_262:\n        /* \"#utility.yul\":1510:1511   */\n      0x00\n        /* \"#utility.yul\":1535:1588   */\n      tag_264\n        /* \"#utility.yul\":1580:1587   */\n      dup5\n        /* \"#utility.yul\":1571:1577   */\n      dup3\n        /* \"#utility.yul\":1560:1569   */\n      dup6\n        /* \"#utility.yul\":1556:1578   */\n      add\n        /* \"#utility.yul\":1535:1588   */\n      tag_182\n      jump\t// in\n    tag_264:\n        /* \"#utility.yul\":1525:1588   */\n      swap2\n      pop\n        /* \"#utility.yul\":1481:1598   */\n      pop\n        /* \"#utility.yul\":1276:1605   */\n      swap3\n      swap2\n      pop\n      pop\n      jump\t// out\n        /* \"#utility.yul\":1611:1733   */\n    tag_183:\n        /* \"#utility.yul\":1684:1708   */\n      tag_266\n        /* \"#utility.yul\":1702:1707   */\n      dup2\n        /* \"#utility.yul\":1684:1708   */\n      tag_174\n      jump\t// in\n    tag_266:\n        /* \"#utility.yul\":1677:1682   */\n      dup2\n        /* \"#utility.yul\":1674:1709   */\n      eq\n        /* \"#utility.yul\":1664:1727   */\n      tag_267\n      jumpi\n        /* \"#utility.yul\":1723:1724   */\n      0x00\n        /* \"#utility.yul\":1720:1721   */\n      0x00\n        /* \"#utility.yul\":1713:1725   */\n      revert\n        /* \"#utility.yul\":1664:1727   */\n    tag_267:\n        /* \"#utility.yul\":1611:1733   */\n      pop\n      jump\t// out\n        /* \"#utility.yul\":1739:1878   */\n    tag_184:\n        /* \"#utility.yul\":1785:1790   */\n      0x00\n        /* \"#utility.yul\":1823:1829   */\n      dup2\n        /* \"#utility.yul\":1810:1830   */\n      calldataload\n        /* \"#utility.yul\":1801:1830   */\n      swap1\n      pop\n        /* \"#utility.yul\":1839:1872   */\n      tag_269\n        /* \"#utility.yul\":1866:1871   */\n      dup2\n        /* \"#utility.yul\":1839:1872   */\n      tag_183\n      jump\t// in\n    tag_269:\n        /* \"#utility.yul\":1739:1878   */\n      swap3\n      swap2\n      pop\n      pop\n      jump\t// out\n        /* \"#utility.yul\":1884:2213   */\n    tag_33:\n        /* \"#utility.yul\":1943:1949   */\n      0x00\n        /* \"#utility.yul\":1992:1994   */\n      0x20\n        /* \"#utility.yul\":1980:1989   */\n      dup3\n        /* \"#utility.yul\":1971:1978   */\n      dup5\n        /* \"#utility.yul\":1967:1990   */\n      sub\n        /* \"#utility.yul\":1963:1995   */\n      slt\n        /* \"#utility.yul\":1960:2079   */\n      iszero\n      tag_271\n      jumpi\n        /* \"#utility.yul\":1998:2077   */\n      tag_272\n      tag_177\n      jump\t// in\n    tag_272:\n        /* \"#utility.yul\":1960:2079   */\n    tag_271:\n        /* \"#utility.yul\":2118:2119   */\n      0x00\n        /* \"#utility.yul\":2143:2196   */\n      tag_273\n        /* \"#utility.yul\":2188:2195   */\n      dup5\n        /* \"#utility.yul\":2179:2185   */\n      dup3\n        /* \"#utility.yul\":2168:2177   */\n      dup6\n        /* \"#utility.yul\":2164:2186   */\n      add\n        /* \"#utility.yul\":2143:2196   */\n      tag_184\n      jump\t// in\n    tag_273:\n        /* \"#utility.yul\":2133:2196   */\n      swap2\n      pop\n        /* \"#utility.yul\":2089:2206   */\n      pop\n        /* \"#utility.yul\":1884:2213   */\n      swap3\n      swap2\n      pop\n      pop\n      jump\t// out\n        /* \"#utility.yul\":2219:2337   */\n    tag_185:\n        /* \"#utility.yul\":2306:2330   */\n      tag_275\n        /* \"#utility.yul\":2324:2329   */\n      dup2\n        /* \"#utility.yul\":2306:2330   */\n      tag_180\n      jump\t// in\n    tag_275:\n        /* \"#utility.yul\":2301:2304   */\n      dup3\n        /* \"#utility.yul\":2294:2331   */\n      mstore\n        /* \"#utility.yul\":2219:2337   */\n      pop\n      pop\n      jump\t// out\n        /* \"#utility.yul\":2343:2442   */\n    tag_186:\n        /* \"#utility.yul\":2395:2401   */\n      0x00\n        /* \"#utility.yul\":2429:2434   */\n      dup2\n        /* \"#utility.yul\":2423:2435   */\n      mload\n        /* \"#utility.yul\":2413:2435   */\n      swap1\n      pop\n        /* \"#utility.yul\":2343:2442   */\n      swap2\n      swap1\n      pop\n      jump\t// out\n        /* \"#utility.yul\":2448:2617   */\n    tag_187:\n        /* \"#utility.yul\":2532:2543   */\n      0x00\n        /* \"#utility.yul\":2566:2572   */\n      dup3\n        /* \"#utility.yul\":2561:2564   */\n      dup3\n        /* \"#utility.yul\":2554:2573   */\n      mstore\n        /* \"#utility.yul\":2606:2610   */\n      0x20\n        /* \"#utility.yul\":2601:2604   */\n      dup3\n        /* \"#utility.yul\":2597:2611   */\n      add\n        /* \"#utility.yul\":2582:2611   */\n      swap1\n      pop\n        /* \"#utility.yul\":2448:2617   */\n      swap3\n      swap2\n      pop\n      pop\n      jump\t// out\n        /* \"#utility.yul\":2623:2762   */\n    tag_188:\n        /* \"#utility.yul\":2712:2718   */\n      dup3\n        /* \"#utility.yul\":2707:2710   */\n      dup2\n        /* \"#utility.yul\":2702:2705   */\n      dup4\n        /* \"#utility.yul\":2696:2719   */\n      mcopy\n        /* \"#utility.yul\":2753:2754   */\n      0x00\n        /* \"#utility.yul\":2744:2750   */\n      dup4\n        /* \"#utility.yul\":2739:2742   */\n      dup4\n        /* \"#utility.yul\":2735:2751   */\n      add\n        /* \"#utility.yul\":2728:2755   */\n      mstore\n        /* \"#utility.yul\":2623:2762   */\n      pop\n      pop\n      pop\n      jump\t// out\n        /* \"#utility.yul\":2768:2870   */\n    tag_189:\n        /* \"#utility.yul\":2809:2815   */\n      0x00\n        /* \"#utility.yul\":2860:2862   */\n      0x1f\n        /* \"#utility.yul\":2856:2863   */\n      not\n        /* \"#utility.yul\":2851:2853   */\n      0x1f\n        /* \"#utility.yul\":2844:2849   */\n      dup4\n        /* \"#utility.yul\":2840:2854   */\n      add\n        /* \"#utility.yul\":2836:2864   */\n      and\n        /* \"#utility.yul\":2826:2864   */\n      swap1\n      pop\n        /* \"#utility.yul\":2768:2870   */\n      swap2\n      swap1\n      pop\n      jump\t// out\n        /* \"#utility.yul\":2876:3253   */\n    tag_190:\n        /* \"#utility.yul\":2964:2967   */\n      0x00\n        /* \"#utility.yul\":2992:3031   */\n      tag_281\n        /* \"#utility.yul\":3025:3030   */\n      dup3\n        /* \"#utility.yul\":2992:3031   */\n      tag_186\n      jump\t// in\n    tag_281:\n        /* \"#utility.yul\":3047:3118   */\n      tag_282\n        /* \"#utility.yul\":3111:3117   */\n      dup2\n        /* \"#utility.yul\":3106:3109   */\n      dup6\n        /* \"#utility.yul\":3047:3118   */\n      tag_187\n      jump\t// in\n    tag_282:\n        /* \"#utility.yul\":3040:3118   */\n      swap4\n      pop\n        /* \"#utility.yul\":3127:3192   */\n      tag_283\n        /* \"#utility.yul\":3185:3191   */\n      dup2\n        /* \"#utility.yul\":3180:3183   */\n      dup6\n        /* \"#utility.yul\":3173:3177   */\n      0x20\n        /* \"#utility.yul\":3166:3171   */\n      dup7\n        /* \"#utility.yul\":3162:3178   */\n      add\n        /* \"#utility.yul\":3127:3192   */\n      tag_188\n      jump\t// in\n    tag_283:\n        /* \"#utility.yul\":3217:3246   */\n      tag_284\n        /* \"#utility.yul\":3239:3245   */\n      dup2\n        /* \"#utility.yul\":3217:3246   */\n      tag_189\n      jump\t// in\n    tag_284:\n        /* \"#utility.yul\":3212:3215   */\n      dup5\n        /* \"#utility.yul\":3208:3247   */\n      add\n        /* \"#utility.yul\":3201:3247   */\n      swap2\n      pop\n        /* \"#utility.yul\":2968:3253   */\n      pop\n        /* \"#utility.yul\":2876:3253   */\n      swap3\n      swap2\n      pop\n      pop\n      jump\t// out\n        /* \"#utility.yul\":3259:3349   */\n    tag_191:\n        /* \"#utility.yul\":3293:3300   */\n      0x00\n        /* \"#utility.yul\":3336:3341   */\n      dup2\n        /* \"#utility.yul\":3329:3342   */\n      iszero\n        /* \"#utility.yul\":3322:3343   */\n      iszero\n        /* \"#utility.yul\":3311:3343   */\n      swap1\n      pop\n        /* \"#utility.yul\":3259:3349   */\n      swap2\n      swap1\n      pop\n      jump\t// out\n        /* \"#utility.yul\":3355:3464   */\n    tag_192:\n        /* \"#utility.yul\":3436:3457   */\n      tag_287\n        /* \"#utility.yul\":3451:3456   */\n      dup2\n        /* \"#utility.yul\":3436:3457   */\n      tag_191\n      jump\t// in\n    tag_287:\n        /* \"#utility.yul\":3431:3434   */\n      dup3\n        /* \"#utility.yul\":3424:3458   */\n      mstore\n        /* \"#utility.yul\":3355:3464   */\n      pop\n      pop\n      jump\t// out\n        /* \"#utility.yul\":3470:4534   */\n    tag_36:\n        /* \"#utility.yul\":3767:3771   */\n      0x00\n        /* \"#utility.yul\":3805:3808   */\n      0x0100\n        /* \"#utility.yul\":3794:3803   */\n      dup3\n        /* \"#utility.yul\":3790:3809   */\n      add\n        /* \"#utility.yul\":3782:3809   */\n      swap1\n      pop\n        /* \"#utility.yul\":3819:3890   */\n      tag_289\n        /* \"#utility.yul\":3887:3888   */\n      0x00\n        /* \"#utility.yul\":3876:3885   */\n      dup4\n        /* \"#utility.yul\":3872:3889   */\n      add\n        /* \"#utility.yul\":3863:3869   */\n      dup12\n        /* \"#utility.yul\":3819:3890   */\n      tag_175\n      jump\t// in\n    tag_289:\n        /* \"#utility.yul\":3900:3972   */\n      tag_290\n        /* \"#utility.yul\":3968:3970   */\n      0x20\n        /* \"#utility.yul\":3957:3966   */\n      dup4\n        /* \"#utility.yul\":3953:3971   */\n      add\n        /* \"#utility.yul\":3944:3950   */\n      dup11\n        /* \"#utility.yul\":3900:3972   */\n      tag_185\n      jump\t// in\n    tag_290:\n        /* \"#utility.yul\":4019:4028   */\n      dup2\n        /* \"#utility.yul\":4013:4017   */\n      dup2\n        /* \"#utility.yul\":4009:4029   */\n      sub\n        /* \"#utility.yul\":4004:4006   */\n      0x40\n        /* \"#utility.yul\":3993:4002   */\n      dup4\n        /* \"#utility.yul\":3989:4007   */\n      add\n        /* \"#utility.yul\":3982:4030   */\n      mstore\n        /* \"#utility.yul\":4047:4125   */\n      tag_291\n        /* \"#utility.yul\":4120:4124   */\n      dup2\n        /* \"#utility.yul\":4111:4117   */\n      dup10\n        /* \"#utility.yul\":4047:4125   */\n      tag_190\n      jump\t// in\n    tag_291:\n        /* \"#utility.yul\":4039:4125   */\n      swap1\n      pop\n        /* \"#utility.yul\":4135:4207   */\n      tag_292\n        /* \"#utility.yul\":4203:4205   */\n      0x60\n        /* \"#utility.yul\":4192:4201   */\n      dup4\n        /* \"#utility.yul\":4188:4206   */\n      add\n        /* \"#utility.yul\":4179:4185   */\n      dup9\n        /* \"#utility.yul\":4135:4207   */\n      tag_175\n      jump\t// in\n    tag_292:\n        /* \"#utility.yul\":4217:4290   */\n      tag_293\n        /* \"#utility.yul\":4285:4288   */\n      0x80\n        /* \"#utility.yul\":4274:4283   */\n      dup4\n        /* \"#utility.yul\":4270:4289   */\n      add\n        /* \"#utility.yul\":4261:4267   */\n      dup8\n        /* \"#utility.yul\":4217:4290   */\n      tag_175\n      jump\t// in\n    tag_293:\n        /* \"#utility.yul\":4300:4373   */\n      tag_294\n        /* \"#utility.yul\":4368:4371   */\n      0xa0\n        /* \"#utility.yul\":4357:4366   */\n      dup4\n        /* \"#utility.yul\":4353:4372   */\n      add\n        /* \"#utility.yul\":4344:4350   */\n      dup7\n        /* \"#utility.yul\":4300:4373   */\n      tag_175\n      jump\t// in\n    tag_294:\n        /* \"#utility.yul\":4383:4450   */\n      tag_295\n        /* \"#utility.yul\":4445:4448   */\n      0xc0\n        /* \"#utility.yul\":4434:4443   */\n      dup4\n        /* \"#utility.yul\":4430:4449   */\n      add\n        /* \"#utility.yul\":4421:4427   */\n      dup6\n        /* \"#utility.yul\":4383:4450   */\n      tag_192\n      jump\t// in\n    tag_295:\n        /* \"#utility.yul\":4460:4527   */\n      tag_296\n        /* \"#utility.yul\":4522:4525   */\n      0xe0\n        /* \"#utility.yul\":4511:4520   */\n      dup4\n        /* \"#utility.yul\":4507:4526   */\n      add\n        /* \"#utility.yul\":4498:4504   */\n      dup5\n        /* \"#utility.yul\":4460:4527   */\n      tag_192\n      jump\t// in\n    tag_296:\n        /* \"#utility.yul\":3470:4534   */\n      swap10\n      swap9\n      pop\n      pop\n      pop\n      pop\n      pop\n      pop\n      pop\n      pop\n      pop\n      jump\t// out\n        /* \"#utility.yul\":4540:5014   */\n    tag_44:\n        /* \"#utility.yul\":4608:4614   */\n      0x00\n        /* \"#utility.yul\":4616:4622   */\n      0x00\n        /* \"#utility.yul\":4665:4667   */\n      0x40\n        /* \"#utility.yul\":4653:4662   */\n      dup4\n        /* \"#utility.yul\":4644:4651   */\n      dup6\n        /* \"#utility.yul\":4640:4663   */\n      sub\n        /* \"#utility.yul\":4636:4668   */\n      slt\n        /* \"#utility.yul\":4633:4752   */\n      iszero\n      tag_298\n      jumpi\n        /* \"#utility.yul\":4671:4750   */\n      tag_299\n      tag_177\n      jump\t// in\n    tag_299:\n        /* \"#utility.yul\":4633:4752   */\n    tag_298:\n        /* \"#utility.yul\":4791:4792   */\n      0x00\n        /* \"#utility.yul\":4816:4869   */\n      tag_300\n        /* \"#utility.yul\":4861:4868   */\n      dup6\n        /* \"#utility.yul\":4852:4858   */\n      dup3\n        /* \"#utility.yul\":4841:4850   */\n      dup7\n        /* \"#utility.yul\":4837:4859   */\n      add\n        /* \"#utility.yul\":4816:4869   */\n      tag_184\n      jump\t// in\n    tag_300:\n        /* \"#utility.yul\":4806:4869   */\n      swap3\n      pop\n        /* \"#utility.yul\":4762:4879   */\n      pop\n        /* \"#utility.yul\":4918:4920   */\n      0x20\n        /* \"#utility.yul\":4944:4997   */\n      tag_301\n        /* \"#utility.yul\":4989:4996   */\n      dup6\n        /* \"#utility.yul\":4980:4986   */\n      dup3\n        /* \"#utility.yul\":4969:4978   */\n      dup7\n        /* \"#utility.yul\":4965:4987   */\n      add\n        /* \"#utility.yul\":4944:4997   */\n      tag_182\n      jump\t// in\n    tag_301:\n        /* \"#utility.yul\":4934:4997   */\n      swap2\n      pop\n        /* \"#utility.yul\":4889:5007   */\n      pop\n        /* \"#utility.yul\":4540:5014   */\n      swap3\n      pop\n      swap3\n      swap1\n      pop\n      jump\t// out\n        /* \"#utility.yul\":5020:5137   */\n    tag_193:\n        /* \"#utility.yul\":5129:5130   */\n      0x00\n        /* \"#utility.yul\":5126:5127   */\n      0x00\n        /* \"#utility.yul\":5119:5131   */\n      revert\n        /* \"#utility.yul\":5143:5260   */\n    tag_194:\n        /* \"#utility.yul\":5252:5253   */\n      0x00\n        /* \"#utility.yul\":5249:5250   */\n      0x00\n        /* \"#utility.yul\":5242:5254   */\n      revert\n        /* \"#utility.yul\":5266:5383   */\n    tag_195:\n        /* \"#utility.yul\":5375:5376   */\n      0x00\n        /* \"#utility.yul\":5372:5373   */\n      0x00\n        /* \"#utility.yul\":5365:5377   */\n      revert\n        /* \"#utility.yul\":5403:5956   */\n    tag_196:\n        /* \"#utility.yul\":5461:5469   */\n      0x00\n        /* \"#utility.yul\":5471:5477   */\n      0x00\n        /* \"#utility.yul\":5521:5524   */\n      dup4\n        /* \"#utility.yul\":5514:5518   */\n      0x1f\n        /* \"#utility.yul\":5506:5512   */\n      dup5\n        /* \"#utility.yul\":5502:5519   */\n      add\n        /* \"#utility.yul\":5498:5525   */\n      slt\n        /* \"#utility.yul\":5488:5610   */\n      tag_306\n      jumpi\n        /* \"#utility.yul\":5529:5608   */\n      tag_307\n      tag_193\n      jump\t// in\n    tag_307:\n        /* \"#utility.yul\":5488:5610   */\n    tag_306:\n        /* \"#utility.yul\":5642:5648   */\n      dup3\n        /* \"#utility.yul\":5629:5649   */\n      calldataload\n        /* \"#utility.yul\":5619:5649   */\n      swap1\n      pop\n        /* \"#utility.yul\":5672:5690   */\n      0xffffffffffffffff\n        /* \"#utility.yul\":5664:5670   */\n      dup2\n        /* \"#utility.yul\":5661:5691   */\n      gt\n        /* \"#utility.yul\":5658:5775   */\n      iszero\n      tag_308\n      jumpi\n        /* \"#utility.yul\":5694:5773   */\n      tag_309\n      tag_194\n      jump\t// in\n    tag_309:\n        /* \"#utility.yul\":5658:5775   */\n    tag_308:\n        /* \"#utility.yul\":5808:5812   */\n      0x20\n        /* \"#utility.yul\":5800:5806   */\n      dup4\n        /* \"#utility.yul\":5796:5813   */\n      add\n        /* \"#utility.yul\":5784:5813   */\n      swap2\n      pop\n        /* \"#utility.yul\":5862:5865   */\n      dup4\n        /* \"#utility.yul\":5854:5858   */\n      0x01\n        /* \"#utility.yul\":5846:5852   */\n      dup3\n        /* \"#utility.yul\":5842:5859   */\n      mul\n        /* \"#utility.yul\":5832:5840   */\n      dup4\n        /* \"#utility.yul\":5828:5860   */\n      add\n        /* \"#utility.yul\":5825:5866   */\n      gt\n        /* \"#utility.yul\":5822:5950   */\n      iszero\n      tag_310\n      jumpi\n        /* \"#utility.yul\":5869:5948   */\n      tag_311\n      tag_195\n      jump\t// in\n    tag_311:\n        /* \"#utility.yul\":5822:5950   */\n    tag_310:\n        /* \"#utility.yul\":5403:5956   */\n      swap3\n      pop\n      swap3\n      swap1\n      pop\n      jump\t// out\n        /* \"#utility.yul\":5962:6781   */\n    tag_50:\n        /* \"#utility.yul\":6051:6057   */\n      0x00\n        /* \"#utility.yul\":6059:6065   */\n      0x00\n        /* \"#utility.yul\":6067:6073   */\n      0x00\n        /* \"#utility.yul\":6075:6081   */\n      0x00\n        /* \"#utility.yul\":6124:6126   */\n      0x60\n        /* \"#utility.yul\":6112:6121   */\n      dup6\n        /* \"#utility.yul\":6103:6110   */\n      dup8\n        /* \"#utility.yul\":6099:6122   */\n      sub\n        /* \"#utility.yul\":6095:6127   */\n      slt\n        /* \"#utility.yul\":6092:6211   */\n      iszero\n      tag_313\n      jumpi\n        /* \"#utility.yul\":6130:6209   */\n      tag_314\n      tag_177\n      jump\t// in\n    tag_314:\n        /* \"#utility.yul\":6092:6211   */\n    tag_313:\n        /* \"#utility.yul\":6278:6279   */\n      0x00\n        /* \"#utility.yul\":6267:6276   */\n      dup6\n        /* \"#utility.yul\":6263:6280   */\n      add\n        /* \"#utility.yul\":6250:6281   */\n      calldataload\n        /* \"#utility.yul\":6308:6326   */\n      0xffffffffffffffff\n        /* \"#utility.yul\":6300:6306   */\n      dup2\n        /* \"#utility.yul\":6297:6327   */\n      gt\n        /* \"#utility.yul\":6294:6411   */\n      iszero\n      tag_315\n      jumpi\n        /* \"#utility.yul\":6330:6409   */\n      tag_316\n      tag_178\n      jump\t// in\n    tag_316:\n        /* \"#utility.yul\":6294:6411   */\n    tag_315:\n        /* \"#utility.yul\":6443:6508   */\n      tag_317\n        /* \"#utility.yul\":6500:6507   */\n      dup8\n        /* \"#utility.yul\":6491:6497   */\n      dup3\n        /* \"#utility.yul\":6480:6489   */\n      dup9\n        /* \"#utility.yul\":6476:6498   */\n      add\n        /* \"#utility.yul\":6443:6508   */\n      tag_196\n      jump\t// in\n    tag_317:\n        /* \"#utility.yul\":6425:6508   */\n      swap5\n      pop\n      swap5\n      pop\n        /* \"#utility.yul\":6221:6518   */\n      pop\n        /* \"#utility.yul\":6557:6559   */\n      0x20\n        /* \"#utility.yul\":6583:6636   */\n      tag_318\n        /* \"#utility.yul\":6628:6635   */\n      dup8\n        /* \"#utility.yul\":6619:6625   */\n      dup3\n        /* \"#utility.yul\":6608:6617   */\n      dup9\n        /* \"#utility.yul\":6604:6626   */\n      add\n        /* \"#utility.yul\":6583:6636   */\n      tag_184\n      jump\t// in\n    tag_318:\n        /* \"#utility.yul\":6573:6636   */\n      swap3\n      pop\n        /* \"#utility.yul\":6528:6646   */\n      pop\n        /* \"#utility.yul\":6685:6687   */\n      0x40\n        /* \"#utility.yul\":6711:6764   */\n      tag_319\n        /* \"#utility.yul\":6756:6763   */\n      dup8\n        /* \"#utility.yul\":6747:6753   */\n      dup3\n        /* \"#utility.yul\":6736:6745   */\n      dup9\n        /* \"#utility.yul\":6732:6754   */\n      add\n        /* \"#utility.yul\":6711:6764   */\n      tag_184\n      jump\t// in\n    tag_319:\n        /* \"#utility.yul\":6701:6764   */\n      swap2\n      pop\n        /* \"#utility.yul\":6656:6774   */\n      pop\n        /* \"#utility.yul\":5962:6781   */\n      swap3\n      swap6\n      swap2\n      swap5\n      pop\n      swap3\n      pop\n      jump\t// out\n        /* \"#utility.yul\":6787:6895   */\n    tag_197:\n        /* \"#utility.yul\":6864:6888   */\n      tag_321\n        /* \"#utility.yul\":6882:6887   */\n      dup2\n        /* \"#utility.yul\":6864:6888   */\n      tag_174\n      jump\t// in\n    tag_321:\n        /* \"#utility.yul\":6859:6862   */\n      dup3\n        /* \"#utility.yul\":6852:6889   */\n      mstore\n        /* \"#utility.yul\":6787:6895   */\n      pop\n      pop\n      jump\t// out\n        /* \"#utility.yul\":6901:7009   */\n    tag_198:\n        /* \"#utility.yul\":6978:7002   */\n      tag_323\n        /* \"#utility.yul\":6996:7001   */\n      dup2\n        /* \"#utility.yul\":6978:7002   */\n      tag_180\n      jump\t// in\n    tag_323:\n        /* \"#utility.yul\":6973:6976   */\n      dup3\n        /* \"#utility.yul\":6966:7003   */\n      mstore\n        /* \"#utility.yul\":6901:7009   */\n      pop\n      pop\n      jump\t// out\n        /* \"#utility.yul\":7015:7174   */\n    tag_199:\n        /* \"#utility.yul\":7089:7100   */\n      0x00\n        /* \"#utility.yul\":7123:7129   */\n      dup3\n        /* \"#utility.yul\":7118:7121   */\n      dup3\n        /* \"#utility.yul\":7111:7130   */\n      mstore\n        /* \"#utility.yul\":7163:7167   */\n      0x20\n        /* \"#utility.yul\":7158:7161   */\n      dup3\n        /* \"#utility.yul\":7154:7168   */\n      add\n        /* \"#utility.yul\":7139:7168   */\n      swap1\n      pop\n        /* \"#utility.yul\":7015:7174   */\n      swap3\n      swap2\n      pop\n      pop\n      jump\t// out\n        /* \"#utility.yul\":7180:7537   */\n    tag_200:\n        /* \"#utility.yul\":7258:7261   */\n      0x00\n        /* \"#utility.yul\":7286:7325   */\n      tag_326\n        /* \"#utility.yul\":7319:7324   */\n      dup3\n        /* \"#utility.yul\":7286:7325   */\n      tag_186\n      jump\t// in\n    tag_326:\n        /* \"#utility.yul\":7341:7402   */\n      tag_327\n        /* \"#utility.yul\":7395:7401   */\n      dup2\n        /* \"#utility.yul\":7390:7393   */\n      dup6\n        /* \"#utility.yul\":7341:7402   */\n      tag_199\n      jump\t// in\n    tag_327:\n        /* \"#utility.yul\":7334:7402   */\n      swap4\n      pop\n        /* \"#utility.yul\":7411:7476   */\n      tag_328\n        /* \"#utility.yul\":7469:7475   */\n      dup2\n        /* \"#utility.yul\":7464:7467   */\n      dup6\n        /* \"#utility.yul\":7457:7461   */\n      0x20\n        /* \"#utility.yul\":7450:7455   */\n      dup7\n        /* \"#utility.yul\":7446:7462   */\n      add\n        /* \"#utility.yul\":7411:7476   */\n      tag_188\n      jump\t// in\n    tag_328:\n        /* \"#utility.yul\":7501:7530   */\n      tag_329\n        /* \"#utility.yul\":7523:7529   */\n      dup2\n        /* \"#utility.yul\":7501:7530   */\n      tag_189\n      jump\t// in\n    tag_329:\n        /* \"#utility.yul\":7496:7499   */\n      dup5\n        /* \"#utility.yul\":7492:7531   */\n      add\n        /* \"#utility.yul\":7485:7531   */\n      swap2\n      pop\n        /* \"#utility.yul\":7262:7537   */\n      pop\n        /* \"#utility.yul\":7180:7537   */\n      swap3\n      swap2\n      pop\n      pop\n      jump\t// out\n        /* \"#utility.yul\":7543:7642   */\n    tag_201:\n        /* \"#utility.yul\":7614:7635   */\n      tag_331\n        /* \"#utility.yul\":7629:7634   */\n      dup2\n        /* \"#utility.yul\":7614:7635   */\n      tag_191\n      jump\t// in\n    tag_331:\n        /* \"#utility.yul\":7609:7612   */\n      dup3\n        /* \"#utility.yul\":7602:7636   */\n      mstore\n        /* \"#utility.yul\":7543:7642   */\n      pop\n      pop\n      jump\t// out\n        /* \"#utility.yul\":7726:9403   */\n    tag_202:\n        /* \"#utility.yul\":7843:7846   */\n      0x00\n        /* \"#utility.yul\":7879:7885   */\n      0x0100\n        /* \"#utility.yul\":7874:7877   */\n      dup4\n        /* \"#utility.yul\":7870:7886   */\n      add\n        /* \"#utility.yul\":7966:7970   */\n      0x00\n        /* \"#utility.yul\":7959:7964   */\n      dup4\n        /* \"#utility.yul\":7955:7971   */\n      add\n        /* \"#utility.yul\":7949:7972   */\n      mload\n        /* \"#utility.yul\":7985:8048   */\n      tag_333\n        /* \"#utility.yul\":8042:8046   */\n      0x00\n        /* \"#utility.yul\":8037:8040   */\n      dup7\n        /* \"#utility.yul\":8033:8047   */\n      add\n        /* \"#utility.yul\":8019:8031   */\n      dup3\n        /* \"#utility.yul\":7985:8048   */\n      tag_197\n      jump\t// in\n    tag_333:\n        /* \"#utility.yul\":7896:8058   */\n      pop\n        /* \"#utility.yul\":8143:8147   */\n      0x20\n        /* \"#utility.yul\":8136:8141   */\n      dup4\n        /* \"#utility.yul\":8132:8148   */\n      add\n        /* \"#utility.yul\":8126:8149   */\n      mload\n        /* \"#utility.yul\":8162:8225   */\n      tag_334\n        /* \"#utility.yul\":8219:8223   */\n      0x20\n        /* \"#utility.yul\":8214:8217   */\n      dup7\n        /* \"#utility.yul\":8210:8224   */\n      add\n        /* \"#utility.yul\":8196:8208   */\n      dup3\n        /* \"#utility.yul\":8162:8225   */\n      tag_198\n      jump\t// in\n    tag_334:\n        /* \"#utility.yul\":8068:8235   */\n      pop\n        /* \"#utility.yul\":8324:8328   */\n      0x40\n        /* \"#utility.yul\":8317:8322   */\n      dup4\n        /* \"#utility.yul\":8313:8329   */\n      add\n        /* \"#utility.yul\":8307:8330   */\n      mload\n        /* \"#utility.yul\":8377:8380   */\n      dup5\n        /* \"#utility.yul\":8371:8375   */\n      dup3\n        /* \"#utility.yul\":8367:8381   */\n      sub\n        /* \"#utility.yul\":8360:8364   */\n      0x40\n        /* \"#utility.yul\":8355:8358   */\n      dup7\n        /* \"#utility.yul\":8351:8365   */\n      add\n        /* \"#utility.yul\":8344:8382   */\n      mstore\n        /* \"#utility.yul\":8403:8476   */\n      tag_335\n        /* \"#utility.yul\":8471:8475   */\n      dup3\n        /* \"#utility.yul\":8457:8469   */\n      dup3\n        /* \"#utility.yul\":8403:8476   */\n      tag_200\n      jump\t// in\n    tag_335:\n        /* \"#utility.yul\":8395:8476   */\n      swap2\n      pop\n        /* \"#utility.yul\":8245:8487   */\n      pop\n        /* \"#utility.yul\":8573:8577   */\n      0x60\n        /* \"#utility.yul\":8566:8571   */\n      dup4\n        /* \"#utility.yul\":8562:8578   */\n      add\n        /* \"#utility.yul\":8556:8579   */\n      mload\n        /* \"#utility.yul\":8592:8655   */\n      tag_336\n        /* \"#utility.yul\":8649:8653   */\n      0x60\n        /* \"#utility.yul\":8644:8647   */\n      dup7\n        /* \"#utility.yul\":8640:8654   */\n      add\n        /* \"#utility.yul\":8626:8638   */\n      dup3\n        /* \"#utility.yul\":8592:8655   */\n      tag_197\n      jump\t// in\n    tag_336:\n        /* \"#utility.yul\":8497:8665   */\n      pop\n        /* \"#utility.yul\":8758:8762   */\n      0x80\n        /* \"#utility.yul\":8751:8756   */\n      dup4\n        /* \"#utility.yul\":8747:8763   */\n      add\n        /* \"#utility.yul\":8741:8764   */\n      mload\n        /* \"#utility.yul\":8777:8840   */\n      tag_337\n        /* \"#utility.yul\":8834:8838   */\n      0x80\n        /* \"#utility.yul\":8829:8832   */\n      dup7\n        /* \"#utility.yul\":8825:8839   */\n      add\n        /* \"#utility.yul\":8811:8823   */\n      dup3\n        /* \"#utility.yul\":8777:8840   */\n      tag_197\n      jump\t// in\n    tag_337:\n        /* \"#utility.yul\":8675:8850   */\n      pop\n        /* \"#utility.yul\":8943:8947   */\n      0xa0\n        /* \"#utility.yul\":8936:8941   */\n      dup4\n        /* \"#utility.yul\":8932:8948   */\n      add\n        /* \"#utility.yul\":8926:8949   */\n      mload\n        /* \"#utility.yul\":8962:9025   */\n      tag_338\n        /* \"#utility.yul\":9019:9023   */\n      0xa0\n        /* \"#utility.yul\":9014:9017   */\n      dup7\n        /* \"#utility.yul\":9010:9024   */\n      add\n        /* \"#utility.yul\":8996:9008   */\n      dup3\n        /* \"#utility.yul\":8962:9025   */\n      tag_197\n      jump\t// in\n    tag_338:\n        /* \"#utility.yul\":8860:9035   */\n      pop\n        /* \"#utility.yul\":9119:9123   */\n      0xc0\n        /* \"#utility.yul\":9112:9117   */\n      dup4\n        /* \"#utility.yul\":9108:9124   */\n      add\n        /* \"#utility.yul\":9102:9125   */\n      mload\n        /* \"#utility.yul\":9138:9195   */\n      tag_339\n        /* \"#utility.yul\":9189:9193   */\n      0xc0\n        /* \"#utility.yul\":9184:9187   */\n      dup7\n        /* \"#utility.yul\":9180:9194   */\n      add\n        /* \"#utility.yul\":9166:9178   */\n      dup3\n        /* \"#utility.yul\":9138:9195   */\n      tag_201\n      jump\t// in\n    tag_339:\n        /* \"#utility.yul\":9045:9205   */\n      pop\n        /* \"#utility.yul\":9290:9294   */\n      0xe0\n        /* \"#utility.yul\":9283:9288   */\n      dup4\n        /* \"#utility.yul\":9279:9295   */\n      add\n        /* \"#utility.yul\":9273:9296   */\n      mload\n        /* \"#utility.yul\":9309:9366   */\n      tag_340\n        /* \"#utility.yul\":9360:9364   */\n      0xe0\n        /* \"#utility.yul\":9355:9358   */\n      dup7\n        /* \"#utility.yul\":9351:9365   */\n      add\n        /* \"#utility.yul\":9337:9349   */\n      dup3\n        /* \"#utility.yul\":9309:9366   */\n      tag_201\n      jump\t// in\n    tag_340:\n        /* \"#utility.yul\":9215:9376   */\n      pop\n        /* \"#utility.yul\":9393:9397   */\n      dup1\n        /* \"#utility.yul\":9386:9397   */\n      swap2\n      pop\n        /* \"#utility.yul\":7848:9403   */\n      pop\n        /* \"#utility.yul\":7726:9403   */\n      swap3\n      swap2\n      pop\n      pop\n      jump\t// out\n        /* \"#utility.yul\":9409:9778   */\n    tag_63:\n        /* \"#utility.yul\":9550:9554   */\n      0x00\n        /* \"#utility.yul\":9588:9590   */\n      0x20\n        /* \"#utility.yul\":9577:9586   */\n      dup3\n        /* \"#utility.yul\":9573:9591   */\n      add\n        /* \"#utility.yul\":9565:9591   */\n      swap1\n      pop\n        /* \"#utility.yul\":9637:9646   */\n      dup2\n        /* \"#utility.yul\":9631:9635   */\n      dup2\n        /* \"#utility.yul\":9627:9647   */\n      sub\n        /* \"#utility.yul\":9623:9624   */\n      0x00\n        /* \"#utility.yul\":9612:9621   */\n      dup4\n        /* \"#utility.yul\":9608:9625   */\n      add\n        /* \"#utility.yul\":9601:9648   */\n      mstore\n        /* \"#utility.yul\":9665:9771   */\n      tag_342\n        /* \"#utility.yul\":9766:9770   */\n      dup2\n        /* \"#utility.yul\":9757:9763   */\n      dup5\n        /* \"#utility.yul\":9665:9771   */\n      tag_202\n      jump\t// in\n    tag_342:\n        /* \"#utility.yul\":9657:9771   */\n      swap1\n      pop\n        /* \"#utility.yul\":9409:9778   */\n      swap3\n      swap2\n      pop\n      pop\n      jump\t// out\n        /* \"#utility.yul\":9784:9994   */\n    tag_69:\n        /* \"#utility.yul\":9871:9875   */\n      0x00\n        /* \"#utility.yul\":9909:9911   */\n      0x20\n        /* \"#utility.yul\":9898:9907   */\n      dup3\n        /* \"#utility.yul\":9894:9912   */\n      add\n        /* \"#utility.yul\":9886:9912   */\n      swap1\n      pop\n        /* \"#utility.yul\":9922:9987   */\n      tag_344\n        /* \"#utility.yul\":9984:9985   */\n      0x00\n        /* \"#utility.yul\":9973:9982   */\n      dup4\n        /* \"#utility.yul\":9969:9986   */\n      add\n        /* \"#utility.yul\":9960:9966   */\n      dup5\n        /* \"#utility.yul\":9922:9987   */\n      tag_192\n      jump\t// in\n    tag_344:\n        /* \"#utility.yul\":9784:9994   */\n      swap3\n      swap2\n      pop\n      pop\n      jump\t// out\n        /* \"#utility.yul\":10000:10320   */\n    tag_86:\n        /* \"#utility.yul\":10115:10119   */\n      0x00\n        /* \"#utility.yul\":10153:10155   */\n      0x40\n        /* \"#utility.yul\":10142:10151   */\n      dup3\n        /* \"#utility.yul\":10138:10156   */\n      add\n        /* \"#utility.yul\":10130:10156   */\n      swap1\n      pop\n        /* \"#utility.yul\":10166:10231   */\n      tag_346\n        /* \"#utility.yul\":10228:10229   */\n      0x00\n        /* \"#utility.yul\":10217:10226   */\n      dup4\n        /* \"#utility.yul\":10213:10230   */\n      add\n        /* \"#utility.yul\":10204:10210   */\n      dup6\n        /* \"#utility.yul\":10166:10231   */\n      tag_192\n      jump\t// in\n    tag_346:\n        /* \"#utility.yul\":10241:10313   */\n      tag_347\n        /* \"#utility.yul\":10309:10311   */\n      0x20\n        /* \"#utility.yul\":10298:10307   */\n      dup4\n        /* \"#utility.yul\":10294:10312   */\n      add\n        /* \"#utility.yul\":10285:10291   */\n      dup5\n        /* \"#utility.yul\":10241:10313   */\n      tag_175\n      jump\t// in\n    tag_347:\n        /* \"#utility.yul\":10000:10320   */\n      swap4\n      swap3\n      pop\n      pop\n      pop\n      jump\t// out\n        /* \"#utility.yul\":10326:10548   */\n    tag_91:\n        /* \"#utility.yul\":10419:10423   */\n      0x00\n        /* \"#utility.yul\":10457:10459   */\n      0x20\n        /* \"#utility.yul\":10446:10455   */\n      dup3\n        /* \"#utility.yul\":10442:10460   */\n      add\n        /* \"#utility.yul\":10434:10460   */\n      swap1\n      pop\n        /* \"#utility.yul\":10470:10541   */\n      tag_349\n        /* \"#utility.yul\":10538:10539   */\n      0x00\n        /* \"#utility.yul\":10527:10536   */\n      dup4\n        /* \"#utility.yul\":10523:10540   */\n      add\n        /* \"#utility.yul\":10514:10520   */\n      dup5\n        /* \"#utility.yul\":10470:10541   */\n      tag_185\n      jump\t// in\n    tag_349:\n        /* \"#utility.yul\":10326:10548   */\n      swap3\n      swap2\n      pop\n      pop\n      jump\t// out\n        /* \"#utility.yul\":10554:10734   */\n    tag_203:\n        /* \"#utility.yul\":10602:10679   */\n      0x4e487b7100000000000000000000000000000000000000000000000000000000\n        /* \"#utility.yul\":10599:10600   */\n      0x00\n        /* \"#utility.yul\":10592:10680   */\n      mstore\n        /* \"#utility.yul\":10699:10703   */\n      0x11\n        /* \"#utility.yul\":10696:10697   */\n      0x04\n        /* \"#utility.yul\":10689:10704   */\n      mstore\n        /* \"#utility.yul\":10723:10727   */\n      0x24\n        /* \"#utility.yul\":10720:10721   */\n      0x00\n        /* \"#utility.yul\":10713:10728   */\n      revert\n        /* \"#utility.yul\":10740:10934   */\n    tag_94:\n        /* \"#utility.yul\":10780:10784   */\n      0x00\n        /* \"#utility.yul\":10800:10820   */\n      tag_352\n        /* \"#utility.yul\":10818:10819   */\n      dup3\n        /* \"#utility.yul\":10800:10820   */\n      tag_174\n      jump\t// in\n    tag_352:\n        /* \"#utility.yul\":10795:10820   */\n      swap2\n      pop\n        /* \"#utility.yul\":10834:10854   */\n      tag_353\n        /* \"#utility.yul\":10852:10853   */\n      dup4\n        /* \"#utility.yul\":10834:10854   */\n      tag_174\n      jump\t// in\n    tag_353:\n        /* \"#utility.yul\":10829:10854   */\n      swap3\n      pop\n        /* \"#utility.yul\":10878:10879   */\n      dup3\n        /* \"#utility.yul\":10875:10876   */\n      dup3\n        /* \"#utility.yul\":10871:10880   */\n      sub\n        /* \"#utility.yul\":10863:10880   */\n      swap1\n      pop\n        /* \"#utility.yul\":10902:10903   */\n      dup2\n        /* \"#utility.yul\":10896:10900   */\n      dup2\n        /* \"#utility.yul\":10893:10904   */\n      gt\n        /* \"#utility.yul\":10890:10927   */\n      iszero\n      tag_354\n      jumpi\n        /* \"#utility.yul\":10907:10925   */\n      tag_355\n      tag_203\n      jump\t// in\n    tag_355:\n        /* \"#utility.yul\":10890:10927   */\n    tag_354:\n        /* \"#utility.yul\":10740:10934   */\n      swap3\n      swap2\n      pop\n      pop\n      jump\t// out\n        /* \"#utility.yul\":10940:11120   */\n    tag_204:\n        /* \"#utility.yul\":10988:11065   */\n      0x4e487b7100000000000000000000000000000000000000000000000000000000\n        /* \"#utility.yul\":10985:10986   */\n      0x00\n        /* \"#utility.yul\":10978:11066   */\n      mstore\n        /* \"#utility.yul\":11085:11089   */\n      0x22\n        /* \"#utility.yul\":11082:11083   */\n      0x04\n        /* \"#utility.yul\":11075:11090   */\n      mstore\n        /* \"#utility.yul\":11109:11113   */\n      0x24\n        /* \"#utility.yul\":11106:11107   */\n      0x00\n        /* \"#utility.yul\":11099:11114   */\n      revert\n        /* \"#utility.yul\":11126:11446   */\n    tag_96:\n        /* \"#utility.yul\":11170:11176   */\n      0x00\n        /* \"#utility.yul\":11207:11208   */\n      0x02\n        /* \"#utility.yul\":11201:11205   */\n      dup3\n        /* \"#utility.yul\":11197:11209   */\n      div\n        /* \"#utility.yul\":11187:11209   */\n      swap1\n      pop\n        /* \"#utility.yul\":11254:11255   */\n      0x01\n        /* \"#utility.yul\":11248:11252   */\n      dup3\n        /* \"#utility.yul\":11244:11256   */\n      and\n        /* \"#utility.yul\":11275:11293   */\n      dup1\n        /* \"#utility.yul\":11265:11346   */\n      tag_358\n      jumpi\n        /* \"#utility.yul\":11331:11335   */\n      0x7f\n        /* \"#utility.yul\":11323:11329   */\n      dup3\n        /* \"#utility.yul\":11319:11336   */\n      and\n        /* \"#utility.yul\":11309:11336   */\n      swap2\n      pop\n        /* \"#utility.yul\":11265:11346   */\n    tag_358:\n        /* \"#utility.yul\":11393:11395   */\n      0x20\n        /* \"#utility.yul\":11385:11391   */\n      dup3\n        /* \"#utility.yul\":11382:11396   */\n      lt\n        /* \"#utility.yul\":11362:11380   */\n      dup2\n        /* \"#utility.yul\":11359:11397   */\n      sub\n        /* \"#utility.yul\":11356:11440   */\n      tag_359\n      jumpi\n        /* \"#utility.yul\":11412:11430   */\n      tag_360\n      tag_204\n      jump\t// in\n    tag_360:\n        /* \"#utility.yul\":11356:11440   */\n    tag_359:\n        /* \"#utility.yul\":11177:11446   */\n      pop\n        /* \"#utility.yul\":11126:11446   */\n      swap2\n      swap1\n      pop\n      jump\t// out\n        /* \"#utility.yul\":11452:11624   */\n    tag_205:\n        /* \"#utility.yul\":11592:11616   */\n      0x416c7265616479206f776e20612063616d706169676e00000000000000000000\n        /* \"#utility.yul\":11588:11589   */\n      0x00\n        /* \"#utility.yul\":11580:11586   */\n      dup3\n        /* \"#utility.yul\":11576:11590   */\n      add\n        /* \"#utility.yul\":11569:11617   */\n      mstore\n        /* \"#utility.yul\":11452:11624   */\n      pop\n      jump\t// out\n        /* \"#utility.yul\":11630:11996   */\n    tag_206:\n        /* \"#utility.yul\":11772:11775   */\n      0x00\n        /* \"#utility.yul\":11793:11860   */\n      tag_363\n        /* \"#utility.yul\":11857:11859   */\n      0x16\n        /* \"#utility.yul\":11852:11855   */\n      dup4\n        /* \"#utility.yul\":11793:11860   */\n      tag_187\n      jump\t// in\n    tag_363:\n        /* \"#utility.yul\":11786:11860   */\n      swap2\n      pop\n        /* \"#utility.yul\":11869:11962   */\n      tag_364\n        /* \"#utility.yul\":11958:11961   */\n      dup3\n        /* \"#utility.yul\":11869:11962   */\n      tag_205\n      jump\t// in\n    tag_364:\n        /* \"#utility.yul\":11987:11989   */\n      0x20\n        /* \"#utility.yul\":11982:11985   */\n      dup3\n        /* \"#utility.yul\":11978:11990   */\n      add\n        /* \"#utility.yul\":11971:11990   */\n      swap1\n      pop\n        /* \"#utility.yul\":11630:11996   */\n      swap2\n      swap1\n      pop\n      jump\t// out\n        /* \"#utility.yul\":12002:12421   */\n    tag_104:\n        /* \"#utility.yul\":12168:12172   */\n      0x00\n        /* \"#utility.yul\":12206:12208   */\n      0x20\n        /* \"#utility.yul\":12195:12204   */\n      dup3\n        /* \"#utility.yul\":12191:12209   */\n      add\n        /* \"#utility.yul\":12183:12209   */\n      swap1\n      pop\n        /* \"#utility.yul\":12255:12264   */\n      dup2\n        /* \"#utility.yul\":12249:12253   */\n      dup2\n        /* \"#utility.yul\":12245:12265   */\n      sub\n        /* \"#utility.yul\":12241:12242   */\n      0x00\n        /* \"#utility.yul\":12230:12239   */\n      dup4\n        /* \"#utility.yul\":12226:12243   */\n      add\n        /* \"#utility.yul\":12219:12266   */\n      mstore\n        /* \"#utility.yul\":12283:12414   */\n      tag_366\n        /* \"#utility.yul\":12409:12413   */\n      dup2\n        /* \"#utility.yul\":12283:12414   */\n      tag_206\n      jump\t// in\n    tag_366:\n        /* \"#utility.yul\":12275:12414   */\n      swap1\n      pop\n        /* \"#utility.yul\":12002:12421   */\n      swap2\n      swap1\n      pop\n      jump\t// out\n        /* \"#utility.yul\":12427:12586   */\n    tag_207:\n        /* \"#utility.yul\":12567:12578   */\n      0x456d707479204349440000000000000000000000000000000000000000000000\n        /* \"#utility.yul\":12563:12564   */\n      0x00\n        /* \"#utility.yul\":12555:12561   */\n      dup3\n        /* \"#utility.yul\":12551:12565   */\n      add\n        /* \"#utility.yul\":12544:12579   */\n      mstore\n        /* \"#utility.yul\":12427:12586   */\n      pop\n      jump\t// out\n        /* \"#utility.yul\":12592:12957   */\n    tag_208:\n        /* \"#utility.yul\":12734:12737   */\n      0x00\n        /* \"#utility.yul\":12755:12821   */\n      tag_369\n        /* \"#utility.yul\":12819:12820   */\n      0x09\n        /* \"#utility.yul\":12814:12817   */\n      dup4\n        /* \"#utility.yul\":12755:12821   */\n      tag_187\n      jump\t// in\n    tag_369:\n        /* \"#utility.yul\":12748:12821   */\n      swap2\n      pop\n        /* \"#utility.yul\":12830:12923   */\n      tag_370\n        /* \"#utility.yul\":12919:12922   */\n      dup3\n        /* \"#utility.yul\":12830:12923   */\n      tag_207\n      jump\t// in\n    tag_370:\n        /* \"#utility.yul\":12948:12950   */\n      0x20\n        /* \"#utility.yul\":12943:12946   */\n      dup3\n        /* \"#utility.yul\":12939:12951   */\n      add\n        /* \"#utility.yul\":12932:12951   */\n      swap1\n      pop\n        /* \"#utility.yul\":12592:12957   */\n      swap2\n      swap1\n      pop\n      jump\t// out\n        /* \"#utility.yul\":12963:13382   */\n    tag_107:\n        /* \"#utility.yul\":13129:13133   */\n      0x00\n        /* \"#utility.yul\":13167:13169   */\n      0x20\n        /* \"#utility.yul\":13156:13165   */\n      dup3\n        /* \"#utility.yul\":13152:13170   */\n      add\n        /* \"#utility.yul\":13144:13170   */\n      swap1\n      pop\n        /* \"#utility.yul\":13216:13225   */\n      dup2\n        /* \"#utility.yul\":13210:13214   */\n      dup2\n        /* \"#utility.yul\":13206:13226   */\n      sub\n        /* \"#utility.yul\":13202:13203   */\n      0x00\n        /* \"#utility.yul\":13191:13200   */\n      dup4\n        /* \"#utility.yul\":13187:13204   */\n      add\n        /* \"#utility.yul\":13180:13227   */\n      mstore\n        /* \"#utility.yul\":13244:13375   */\n      tag_372\n        /* \"#utility.yul\":13370:13374   */\n      dup2\n        /* \"#utility.yul\":13244:13375   */\n      tag_208\n      jump\t// in\n    tag_372:\n        /* \"#utility.yul\":13236:13375   */\n      swap1\n      pop\n        /* \"#utility.yul\":12963:13382   */\n      swap2\n      swap1\n      pop\n      jump\t// out\n        /* \"#utility.yul\":13388:13555   */\n    tag_209:\n        /* \"#utility.yul\":13528:13547   */\n      0x5072696365206d757374206265203e2030000000000000000000000000000000\n        /* \"#utility.yul\":13524:13525   */\n      0x00\n        /* \"#utility.yul\":13516:13522   */\n      dup3\n        /* \"#utility.yul\":13512:13526   */\n      add\n        /* \"#utility.yul\":13505:13548   */\n      mstore\n        /* \"#utility.yul\":13388:13555   */\n      pop\n      jump\t// out\n        /* \"#utility.yul\":13561:13927   */\n    tag_210:\n        /* \"#utility.yul\":13703:13706   */\n      0x00\n        /* \"#utility.yul\":13724:13791   */\n      tag_375\n        /* \"#utility.yul\":13788:13790   */\n      0x11\n        /* \"#utility.yul\":13783:13786   */\n      dup4\n        /* \"#utility.yul\":13724:13791   */\n      tag_187\n      jump\t// in\n    tag_375:\n        /* \"#utility.yul\":13717:13791   */\n      swap2\n      pop\n        /* \"#utility.yul\":13800:13893   */\n      tag_376\n        /* \"#utility.yul\":13889:13892   */\n      dup3\n        /* \"#utility.yul\":13800:13893   */\n      tag_209\n      jump\t// in\n    tag_376:\n        /* \"#utility.yul\":13918:13920   */\n      0x20\n        /* \"#utility.yul\":13913:13916   */\n      dup3\n        /* \"#utility.yul\":13909:13921   */\n      add\n        /* \"#utility.yul\":13902:13921   */\n      swap1\n      pop\n        /* \"#utility.yul\":13561:13927   */\n      swap2\n      swap1\n      pop\n      jump\t// out\n        /* \"#utility.yul\":13933:14352   */\n    tag_110:\n        /* \"#utility.yul\":14099:14103   */\n      0x00\n        /* \"#utility.yul\":14137:14139   */\n      0x20\n        /* \"#utility.yul\":14126:14135   */\n      dup3\n        /* \"#utility.yul\":14122:14140   */\n      add\n        /* \"#utility.yul\":14114:14140   */\n      swap1\n      pop\n        /* \"#utility.yul\":14186:14195   */\n      dup2\n        /* \"#utility.yul\":14180:14184   */\n      dup2\n        /* \"#utility.yul\":14176:14196   */\n      sub\n        /* \"#utility.yul\":14172:14173   */\n      0x00\n        /* \"#utility.yul\":14161:14170   */\n      dup4\n        /* \"#utility.yul\":14157:14174   */\n      add\n        /* \"#utility.yul\":14150:14197   */\n      mstore\n        /* \"#utility.yul\":14214:14345   */\n      tag_378\n        /* \"#utility.yul\":14340:14344   */\n      dup2\n        /* \"#utility.yul\":14214:14345   */\n      tag_210\n      jump\t// in\n    tag_378:\n        /* \"#utility.yul\":14206:14345   */\n      swap1\n      pop\n        /* \"#utility.yul\":13933:14352   */\n      swap2\n      swap1\n      pop\n      jump\t// out\n        /* \"#utility.yul\":14358:14528   */\n    tag_211:\n        /* \"#utility.yul\":14498:14520   */\n      0x4475726174696f6e206d757374206265203e2030000000000000000000000000\n        /* \"#utility.yul\":14494:14495   */\n      0x00\n        /* \"#utility.yul\":14486:14492   */\n      dup3\n        /* \"#utility.yul\":14482:14496   */\n      add\n        /* \"#utility.yul\":14475:14521   */\n      mstore\n        /* \"#utility.yul\":14358:14528   */\n      pop\n      jump\t// out\n        /* \"#utility.yul\":14534:14900   */\n    tag_212:\n        /* \"#utility.yul\":14676:14679   */\n      0x00\n        /* \"#utility.yul\":14697:14764   */\n      tag_381\n        /* \"#utility.yul\":14761:14763   */\n      0x14\n        /* \"#utility.yul\":14756:14759   */\n      dup4\n        /* \"#utility.yul\":14697:14764   */\n      tag_187\n      jump\t// in\n    tag_381:\n        /* \"#utility.yul\":14690:14764   */\n      swap2\n      pop\n        /* \"#utility.yul\":14773:14866   */\n      tag_382\n        /* \"#utility.yul\":14862:14865   */\n      dup3\n        /* \"#utility.yul\":14773:14866   */\n      tag_211\n      jump\t// in\n    tag_382:\n        /* \"#utility.yul\":14891:14893   */\n      0x20\n        /* \"#utility.yul\":14886:14889   */\n      dup3\n        /* \"#utility.yul\":14882:14894   */\n      add\n        /* \"#utility.yul\":14875:14894   */\n      swap1\n      pop\n        /* \"#utility.yul\":14534:14900   */\n      swap2\n      swap1\n      pop\n      jump\t// out\n        /* \"#utility.yul\":14906:15325   */\n    tag_113:\n        /* \"#utility.yul\":15072:15076   */\n      0x00\n        /* \"#utility.yul\":15110:15112   */\n      0x20\n        /* \"#utility.yul\":15099:15108   */\n      dup3\n        /* \"#utility.yul\":15095:15113   */\n      add\n        /* \"#utility.yul\":15087:15113   */\n      swap1\n      pop\n        /* \"#utility.yul\":15159:15168   */\n      dup2\n        /* \"#utility.yul\":15153:15157   */\n      dup2\n        /* \"#utility.yul\":15149:15169   */\n      sub\n        /* \"#utility.yul\":15145:15146   */\n      0x00\n        /* \"#utility.yul\":15134:15143   */\n      dup4\n        /* \"#utility.yul\":15130:15147   */\n      add\n        /* \"#utility.yul\":15123:15170   */\n      mstore\n        /* \"#utility.yul\":15187:15318   */\n      tag_384\n        /* \"#utility.yul\":15313:15317   */\n      dup2\n        /* \"#utility.yul\":15187:15318   */\n      tag_212\n      jump\t// in\n    tag_384:\n        /* \"#utility.yul\":15179:15318   */\n      swap1\n      pop\n        /* \"#utility.yul\":14906:15325   */\n      swap2\n      swap1\n      pop\n      jump\t// out\n        /* \"#utility.yul\":15331:15564   */\n    tag_115:\n        /* \"#utility.yul\":15370:15373   */\n      0x00\n        /* \"#utility.yul\":15393:15417   */\n      tag_386\n        /* \"#utility.yul\":15411:15416   */\n      dup3\n        /* \"#utility.yul\":15393:15417   */\n      tag_174\n      jump\t// in\n    tag_386:\n        /* \"#utility.yul\":15384:15417   */\n      swap2\n      pop\n        /* \"#utility.yul\":15439:15505   */\n      0xffffffffffffffffffffffffffffffffffffffffffffffffffffffffffffffff\n        /* \"#utility.yul\":15432:15437   */\n      dup3\n        /* \"#utility.yul\":15429:15506   */\n      sub\n        /* \"#utility.yul\":15426:15529   */\n      tag_387\n      jumpi\n        /* \"#utility.yul\":15509:15527   */\n      tag_388\n      tag_203\n      jump\t// in\n    tag_388:\n        /* \"#utility.yul\":15426:15529   */\n    tag_387:\n        /* \"#utility.yul\":15556:15557   */\n      0x01\n        /* \"#utility.yul\":15549:15554   */\n      dup3\n        /* \"#utility.yul\":15545:15558   */\n      add\n        /* \"#utility.yul\":15538:15558   */\n      swap1\n      pop\n        /* \"#utility.yul\":15331:15564   */\n      swap2\n      swap1\n      pop\n      jump\t// out\n        /* \"#utility.yul\":15570:15750   */\n    tag_213:\n        /* \"#utility.yul\":15618:15695   */\n      0x4e487b7100000000000000000000000000000000000000000000000000000000\n        /* \"#utility.yul\":15615:15616   */\n      0x00\n        /* \"#utility.yul\":15608:15696   */\n      mstore\n        /* \"#utility.yul\":15715:15719   */\n      0x41\n        /* \"#utility.yul\":15712:15713   */\n      0x04\n        /* \"#utility.yul\":15705:15720   */\n      mstore\n        /* \"#utility.yul\":15739:15743   */\n      0x24\n        /* \"#utility.yul\":15736:15737   */\n      0x00\n        /* \"#utility.yul\":15729:15744   */\n      revert\n        /* \"#utility.yul\":15756:15897   */\n    tag_214:\n        /* \"#utility.yul\":15805:15809   */\n      0x00\n        /* \"#utility.yul\":15828:15831   */\n      dup2\n        /* \"#utility.yul\":15820:15831   */\n      swap1\n      pop\n        /* \"#utility.yul\":15851:15854   */\n      dup2\n        /* \"#utility.yul\":15848:15849   */\n      0x00\n        /* \"#utility.yul\":15841:15855   */\n      mstore\n        /* \"#utility.yul\":15885:15889   */\n      0x20\n        /* \"#utility.yul\":15882:15883   */\n      0x00\n        /* \"#utility.yul\":15872:15890   */\n      keccak256\n        /* \"#utility.yul\":15864:15890   */\n      swap1\n      pop\n        /* \"#utility.yul\":15756:15897   */\n      swap2\n      swap1\n      pop\n      jump\t// out\n        /* \"#utility.yul\":15903:15996   */\n    tag_215:\n        /* \"#utility.yul\":15940:15946   */\n      0x00\n        /* \"#utility.yul\":15987:15989   */\n      0x20\n        /* \"#utility.yul\":15982:15984   */\n      0x1f\n        /* \"#utility.yul\":15975:15980   */\n      dup4\n        /* \"#utility.yul\":15971:15985   */\n      add\n        /* \"#utility.yul\":15967:15990   */\n      div\n        /* \"#utility.yul\":15957:15990   */\n      swap1\n      pop\n        /* \"#utility.yul\":15903:15996   */\n      swap2\n      swap1\n      pop\n      jump\t// out\n        /* \"#utility.yul\":16002:16109   */\n    tag_216:\n        /* \"#utility.yul\":16046:16054   */\n      0x00\n        /* \"#utility.yul\":16096:16101   */\n      dup3\n        /* \"#utility.yul\":16090:16094   */\n      dup3\n        /* \"#utility.yul\":16086:16102   */\n      shl\n        /* \"#utility.yul\":16065:16102   */\n      swap1\n      pop\n        /* \"#utility.yul\":16002:16109   */\n      swap3\n      swap2\n      pop\n      pop\n      jump\t// out\n        /* \"#utility.yul\":16115:16508   */\n    tag_217:\n        /* \"#utility.yul\":16184:16190   */\n      0x00\n        /* \"#utility.yul\":16234:16235   */\n      0x08\n        /* \"#utility.yul\":16222:16232   */\n      dup4\n        /* \"#utility.yul\":16218:16236   */\n      mul\n        /* \"#utility.yul\":16257:16354   */\n      tag_394\n        /* \"#utility.yul\":16287:16353   */\n      0xffffffffffffffffffffffffffffffffffffffffffffffffffffffffffffffff\n        /* \"#utility.yul\":16276:16285   */\n      dup3\n        /* \"#utility.yul\":16257:16354   */\n      tag_216\n      jump\t// in\n    tag_394:\n        /* \"#utility.yul\":16375:16414   */\n      tag_395\n        /* \"#utility.yul\":16405:16413   */\n      dup7\n        /* \"#utility.yul\":16394:16403   */\n      dup4\n        /* \"#utility.yul\":16375:16414   */\n      tag_216\n      jump\t// in\n    tag_395:\n        /* \"#utility.yul\":16363:16414   */\n      swap6\n      pop\n        /* \"#utility.yul\":16447:16451   */\n      dup1\n        /* \"#utility.yul\":16443:16452   */\n      not\n        /* \"#utility.yul\":16436:16441   */\n      dup5\n        /* \"#utility.yul\":16432:16453   */\n      and\n        /* \"#utility.yul\":16423:16453   */\n      swap4\n      pop\n        /* \"#utility.yul\":16496:16500   */\n      dup1\n        /* \"#utility.yul\":16486:16494   */\n      dup7\n        /* \"#utility.yul\":16482:16501   */\n      and\n        /* \"#utility.yul\":16475:16480   */\n      dup5\n        /* \"#utility.yul\":16472:16502   */\n      or\n        /* \"#utility.yul\":16462:16502   */\n      swap3\n      pop\n        /* \"#utility.yul\":16191:16508   */\n      pop\n      pop\n        /* \"#utility.yul\":16115:16508   */\n      swap4\n      swap3\n      pop\n      pop\n      pop\n      jump\t// out\n        /* \"#utility.yul\":16514:16574   */\n    tag_218:\n        /* \"#utility.yul\":16542:16545   */\n      0x00\n        /* \"#utility.yul\":16563:16568   */\n      dup2\n        /* \"#utility.yul\":16556:16568   */\n      swap1\n      pop\n        /* \"#utility.yul\":16514:16574   */\n      swap2\n      swap1\n      pop\n      jump\t// out\n        /* \"#utility.yul\":16580:16722   */\n    tag_219:\n        /* \"#utility.yul\":16630:16639   */\n      0x00\n        /* \"#utility.yul\":16663:16716   */\n      tag_398\n        /* \"#utility.yul\":16681:16715   */\n      tag_399\n        /* \"#utility.yul\":16690:16714   */\n      tag_400\n        /* \"#utility.yul\":16708:16713   */\n      dup5\n        /* \"#utility.yul\":16690:16714   */\n      tag_174\n      jump\t// in\n    tag_400:\n        /* \"#utility.yul\":16681:16715   */\n      tag_218\n      jump\t// in\n    tag_399:\n        /* \"#utility.yul\":16663:16716   */\n      tag_174\n      jump\t// in\n    tag_398:\n        /* \"#utility.yul\":16650:16716   */\n      swap1\n      pop\n        /* \"#utility.yul\":16580:16722   */\n      swap2\n      swap1\n      pop\n      jump\t// out\n        /* \"#utility.yul\":16728:16803   */\n    tag_220:\n        /* \"#utility.yul\":16771:16774   */\n      0x00\n        /* \"#utility.yul\":16792:16797   */\n      dup2\n        /* \"#utility.yul\":16785:16797   */\n      swap1\n      pop\n        /* \"#utility.yul\":16728:16803   */\n      swap2\n      swap1\n      pop\n      jump\t// out\n        /* \"#utility.yul\":16809:17078   */\n    tag_221:\n        /* \"#utility.yul\":16919:16958   */\n      tag_403\n        /* \"#utility.yul\":16950:16957   */\n      dup4\n        /* \"#utility.yul\":16919:16958   */\n      tag_219\n      jump\t// in\n    tag_403:\n        /* \"#utility.yul\":16980:17071   */\n      tag_404\n        /* \"#utility.yul\":17029:17070   */\n      tag_405\n        /* \"#utility.yul\":17053:17069   */\n      dup3\n        /* \"#utility.yul\":17029:17070   */\n      tag_220\n      jump\t// in\n    tag_405:\n        /* \"#utility.yul\":17021:17027   */\n      dup5\n        /* \"#utility.yul\":17014:17018   */\n      dup5\n        /* \"#utility.yul\":17008:17019   */\n      sload\n        /* \"#utility.yul\":16980:17071   */\n      tag_217\n      jump\t// in\n    tag_404:\n        /* \"#utility.yul\":16974:16978   */\n      dup3\n        /* \"#utility.yul\":16967:17072   */\n      sstore\n        /* \"#utility.yul\":16885:17078   */\n      pop\n        /* \"#utility.yul\":16809:17078   */\n      pop\n      pop\n      pop\n      jump\t// out\n        /* \"#utility.yul\":17084:17157   */\n    tag_222:\n        /* \"#utility.yul\":17129:17132   */\n      0x00\n        /* \"#utility.yul\":17150:17151   */\n      0x00\n        /* \"#utility.yul\":17143:17151   */\n      swap1\n      pop\n        /* \"#utility.yul\":17084:17157   */\n      swap1\n      jump\t// out\n        /* \"#utility.yul\":17163:17352   */\n    tag_223:\n        /* \"#utility.yul\":17240:17272   */\n      tag_408\n      tag_222\n      jump\t// in\n    tag_408:\n        /* \"#utility.yul\":17281:17346   */\n      tag_409\n        /* \"#utility.yul\":17339:17345   */\n      dup2\n        /* \"#utility.yul\":17331:17337   */\n      dup5\n        /* \"#utility.yul\":17325:17329   */\n      dup5\n        /* \"#utility.yul\":17281:17346   */\n      tag_221\n      jump\t// in\n    tag_409:\n        /* \"#utility.yul\":17216:17352   */\n      pop\n        /* \"#utility.yul\":17163:17352   */\n      pop\n      pop\n      jump\t// out\n        /* \"#utility.yul\":17358:17544   */\n    tag_224:\n        /* \"#utility.yul\":17418:17538   */\n    tag_411:\n        /* \"#utility.yul\":17435:17438   */\n      dup2\n        /* \"#utility.yul\":17428:17433   */\n      dup2\n        /* \"#utility.yul\":17425:17439   */\n      lt\n        /* \"#utility.yul\":17418:17538   */\n      iszero\n      tag_413\n      jumpi\n        /* \"#utility.yul\":17489:17528   */\n      tag_414\n        /* \"#utility.yul\":17526:17527   */\n      0x00\n        /* \"#utility.yul\":17519:17524   */\n      dup3\n        /* \"#utility.yul\":17489:17528   */\n      tag_223\n      jump\t// in\n    tag_414:\n        /* \"#utility.yul\":17462:17463   */\n      0x01\n        /* \"#utility.yul\":17455:17460   */\n      dup2\n        /* \"#utility.yul\":17451:17464   */\n      add\n        /* \"#utility.yul\":17442:17464   */\n      swap1\n      pop\n        /* \"#utility.yul\":17418:17538   */\n      jump(tag_411)\n    tag_413:\n        /* \"#utility.yul\":17358:17544   */\n      pop\n      pop\n      jump\t// out\n        /* \"#utility.yul\":17550:18093   */\n    tag_225:\n        /* \"#utility.yul\":17651:17653   */\n      0x1f\n        /* \"#utility.yul\":17646:17649   */\n      dup3\n        /* \"#utility.yul\":17643:17654   */\n      gt\n        /* \"#utility.yul\":17640:18086   */\n      iszero\n      tag_416\n      jumpi\n        /* \"#utility.yul\":17685:17723   */\n      tag_417\n        /* \"#utility.yul\":17717:17722   */\n      dup2\n        /* \"#utility.yul\":17685:17723   */\n      tag_214\n      jump\t// in\n    tag_417:\n        /* \"#utility.yul\":17769:17798   */\n      tag_418\n        /* \"#utility.yul\":17787:17797   */\n      dup5\n        /* \"#utility.yul\":17769:17798   */\n      tag_215\n      jump\t// in\n    tag_418:\n        /* \"#utility.yul\":17759:17767   */\n      dup2\n        /* \"#utility.yul\":17755:17799   */\n      add\n        /* \"#utility.yul\":17952:17954   */\n      0x20\n        /* \"#utility.yul\":17940:17950   */\n      dup6\n        /* \"#utility.yul\":17937:17955   */\n      lt\n        /* \"#utility.yul\":17934:17983   */\n      iszero\n      tag_419\n      jumpi\n        /* \"#utility.yul\":17973:17981   */\n      dup2\n        /* \"#utility.yul\":17958:17981   */\n      swap1\n      pop\n        /* \"#utility.yul\":17934:17983   */\n    tag_419:\n        /* \"#utility.yul\":17996:18076   */\n      tag_420\n        /* \"#utility.yul\":18052:18074   */\n      tag_421\n        /* \"#utility.yul\":18070:18073   */\n      dup6\n        /* \"#utility.yul\":18052:18074   */\n      tag_215\n      jump\t// in\n    tag_421:\n        /* \"#utility.yul\":18042:18050   */\n      dup4\n        /* \"#utility.yul\":18038:18075   */\n      add\n        /* \"#utility.yul\":18025:18036   */\n      dup3\n        /* \"#utility.yul\":17996:18076   */\n      tag_224\n      jump\t// in\n    tag_420:\n        /* \"#utility.yul\":17655:18086   */\n      pop\n      pop\n        /* \"#utility.yul\":17640:18086   */\n    tag_416:\n        /* \"#utility.yul\":17550:18093   */\n      pop\n      pop\n      pop\n      jump\t// out\n        /* \"#utility.yul\":18099:18216   */\n    tag_226:\n        /* \"#utility.yul\":18153:18161   */\n      0x00\n        /* \"#utility.yul\":18203:18208   */\n      dup3\n        /* \"#utility.yul\":18197:18201   */\n      dup3\n        /* \"#utility.yul\":18193:18209   */\n      shr\n        /* \"#utility.yul\":18172:18209   */\n      swap1\n      pop\n        /* \"#utility.yul\":18099:18216   */\n      swap3\n      swap2\n      pop\n      pop\n      jump\t// out\n        /* \"#utility.yul\":18222:18391   */\n    tag_227:\n        /* \"#utility.yul\":18266:18272   */\n      0x00\n        /* \"#utility.yul\":18299:18350   */\n      tag_424\n        /* \"#utility.yul\":18347:18348   */\n      0x00\n        /* \"#utility.yul\":18343:18349   */\n      not\n        /* \"#utility.yul\":18335:18340   */\n      dup5\n        /* \"#utility.yul\":18332:18333   */\n      0x08\n        /* \"#utility.yul\":18328:18341   */\n      mul\n        /* \"#utility.yul\":18299:18350   */\n      tag_226\n      jump\t// in\n    tag_424:\n        /* \"#utility.yul\":18295:18351   */\n      not\n        /* \"#utility.yul\":18380:18384   */\n      dup1\n        /* \"#utility.yul\":18374:18378   */\n      dup4\n        /* \"#utility.yul\":18370:18385   */\n      and\n        /* \"#utility.yul\":18360:18385   */\n      swap2\n      pop\n        /* \"#utility.yul\":18273:18391   */\n      pop\n        /* \"#utility.yul\":18222:18391   */\n      swap3\n      swap2\n      pop\n      pop\n      jump\t// out\n        /* \"#utility.yul\":18396:18691   */\n    tag_228:\n        /* \"#utility.yul\":18472:18476   */\n      0x00\n        /* \"#utility.yul\":18618:18647   */\n      tag_426\n        /* \"#utility.yul\":18643:18646   */\n      dup4\n        /* \"#utility.yul\":18637:18641   */\n      dup4\n        /* \"#utility.yul\":18618:18647   */\n      tag_227\n      jump\t// in\n    tag_426:\n        /* \"#utility.yul\":18610:18647   */\n      swap2\n      pop\n        /* \"#utility.yul\":18680:18683   */\n      dup3\n        /* \"#utility.yul\":18677:18678   */\n      0x02\n        /* \"#utility.yul\":18673:18684   */\n      mul\n        /* \"#utility.yul\":18667:18671   */\n      dup3\n        /* \"#utility.yul\":18664:18685   */\n      or\n        /* \"#utility.yul\":18656:18685   */\n      swap1\n      pop\n        /* \"#utility.yul\":18396:18691   */\n      swap3\n      swap2\n      pop\n      pop\n      jump\t// out\n        /* \"#utility.yul\":18696:20091   */\n    tag_117:\n        /* \"#utility.yul\":18813:18850   */\n      tag_428\n        /* \"#utility.yul\":18846:18849   */\n      dup3\n        /* \"#utility.yul\":18813:18850   */\n      tag_186\n      jump\t// in\n    tag_428:\n        /* \"#utility.yul\":18915:18933   */\n      0xffffffffffffffff\n        /* \"#utility.yul\":18907:18913   */\n      dup2\n        /* \"#utility.yul\":18904:18934   */\n      gt\n        /* \"#utility.yul\":18901:18957   */\n      iszero\n      tag_429\n      jumpi\n        /* \"#utility.yul\":18937:18955   */\n      tag_430\n      tag_213\n      jump\t// in\n    tag_430:\n        /* \"#utility.yul\":18901:18957   */\n    tag_429:\n        /* \"#utility.yul\":18981:19019   */\n      tag_431\n        /* \"#utility.yul\":19013:19017   */\n      dup3\n        /* \"#utility.yul\":19007:19018   */\n      sload\n        /* \"#utility.yul\":18981:19019   */\n      tag_96\n      jump\t// in\n    tag_431:\n        /* \"#utility.yul\":19066:19133   */\n      tag_432\n        /* \"#utility.yul\":19126:19132   */\n      dup3\n        /* \"#utility.yul\":19118:19124   */\n      dup3\n        /* \"#utility.yul\":19112:19116   */\n      dup6\n        /* \"#utility.yul\":19066:19133   */\n      tag_225\n      jump\t// in\n    tag_432:\n        /* \"#utility.yul\":19160:19161   */\n      0x00\n        /* \"#utility.yul\":19184:19188   */\n      0x20\n        /* \"#utility.yul\":19171:19188   */\n      swap1\n      pop\n        /* \"#utility.yul\":19216:19218   */\n      0x1f\n        /* \"#utility.yul\":19208:19214   */\n      dup4\n        /* \"#utility.yul\":19205:19219   */\n      gt\n        /* \"#utility.yul\":19233:19234   */\n      0x01\n        /* \"#utility.yul\":19228:19846   */\n      dup2\n      eq\n      tag_434\n      jumpi\n        /* \"#utility.yul\":19890:19891   */\n      0x00\n        /* \"#utility.yul\":19907:19913   */\n      dup5\n        /* \"#utility.yul\":19904:19981   */\n      iszero\n      tag_435\n      jumpi\n        /* \"#utility.yul\":19956:19965   */\n      dup3\n        /* \"#utility.yul\":19951:19954   */\n      dup8\n        /* \"#utility.yul\":19947:19966   */\n      add\n        /* \"#utility.yul\":19941:19967   */\n      mload\n        /* \"#utility.yul\":19932:19967   */\n      swap1\n      pop\n        /* \"#utility.yul\":19904:19981   */\n    tag_435:\n        /* \"#utility.yul\":20007:20074   */\n      tag_436\n        /* \"#utility.yul\":20067:20073   */\n      dup6\n        /* \"#utility.yul\":20060:20065   */\n      dup3\n        /* \"#utility.yul\":20007:20074   */\n      tag_228\n      jump\t// in\n    tag_436:\n        /* \"#utility.yul\":20001:20005   */\n      dup7\n        /* \"#utility.yul\":19994:20075   */\n      sstore\n        /* \"#utility.yul\":19863:20085   */\n      pop\n        /* \"#utility.yul\":19198:20085   */\n      jump(tag_433)\n        /* \"#utility.yul\":19228:19846   */\n    tag_434:\n        /* \"#utility.yul\":19280:19284   */\n      0x1f\n        /* \"#utility.yul\":19276:19285   */\n      not\n        /* \"#utility.yul\":19268:19274   */\n      dup5\n        /* \"#utility.yul\":19264:19286   */\n      and\n        /* \"#utility.yul\":19314:19351   */\n      tag_437\n        /* \"#utility.yul\":19346:19350   */\n      dup7\n        /* \"#utility.yul\":19314:19351   */\n      tag_214\n      jump\t// in\n    tag_437:\n        /* \"#utility.yul\":19373:19374   */\n      0x00\n        /* \"#utility.yul\":19387:19595   */\n    tag_438:\n        /* \"#utility.yul\":19401:19408   */\n      dup3\n        /* \"#utility.yul\":19398:19399   */\n      dup2\n        /* \"#utility.yul\":19395:19409   */\n      lt\n        /* \"#utility.yul\":19387:19595   */\n      iszero\n      tag_440\n      jumpi\n        /* \"#utility.yul\":19480:19489   */\n      dup5\n        /* \"#utility.yul\":19475:19478   */\n      dup10\n        /* \"#utility.yul\":19471:19490   */\n      add\n        /* \"#utility.yul\":19465:19491   */\n      mload\n        /* \"#utility.yul\":19457:19463   */\n      dup3\n        /* \"#utility.yul\":19450:19492   */\n      sstore\n        /* \"#utility.yul\":19531:19532   */\n      0x01\n        /* \"#utility.yul\":19523:19529   */\n      dup3\n        /* \"#utility.yul\":19519:19533   */\n      add\n        /* \"#utility.yul\":19509:19533   */\n      swap2\n      pop\n        /* \"#utility.yul\":19578:19580   */\n      0x20\n        /* \"#utility.yul\":19567:19576   */\n      dup6\n        /* \"#utility.yul\":19563:19581   */\n      add\n        /* \"#utility.yul\":19550:19581   */\n      swap5\n      pop\n        /* \"#utility.yul\":19424:19428   */\n      0x20\n        /* \"#utility.yul\":19421:19422   */\n      dup2\n        /* \"#utility.yul\":19417:19429   */\n      add\n        /* \"#utility.yul\":19412:19429   */\n      swap1\n      pop\n        /* \"#utility.yul\":19387:19595   */\n      jump(tag_438)\n    tag_440:\n        /* \"#utility.yul\":19623:19629   */\n      dup7\n        /* \"#utility.yul\":19614:19621   */\n      dup4\n        /* \"#utility.yul\":19611:19630   */\n      lt\n        /* \"#utility.yul\":19608:19787   */\n      iszero\n      tag_441\n      jumpi\n        /* \"#utility.yul\":19681:19690   */\n      dup5\n        /* \"#utility.yul\":19676:19679   */\n      dup10\n        /* \"#utility.yul\":19672:19691   */\n      add\n        /* \"#utility.yul\":19666:19692   */\n      mload\n        /* \"#utility.yul\":19724:19772   */\n      tag_442\n        /* \"#utility.yul\":19766:19770   */\n      0x1f\n        /* \"#utility.yul\":19758:19764   */\n      dup10\n        /* \"#utility.yul\":19754:19771   */\n      and\n        /* \"#utility.yul\":19743:19752   */\n      dup3\n        /* \"#utility.yul\":19724:19772   */\n      tag_227\n      jump\t// in\n    tag_442:\n        /* \"#utility.yul\":19716:19722   */\n      dup4\n        /* \"#utility.yul\":19709:19773   */\n      sstore\n        /* \"#utility.yul\":19631:19787   */\n      pop\n        /* \"#utility.yul\":19608:19787   */\n    tag_441:\n        /* \"#utility.yul\":19833:19834   */\n      0x01\n        /* \"#utility.yul\":19829:19830   */\n      0x02\n        /* \"#utility.yul\":19821:19827   */\n      dup9\n        /* \"#utility.yul\":19817:19831   */\n      mul\n        /* \"#utility.yul\":19813:19835   */\n      add\n        /* \"#utility.yul\":19807:19811   */\n      dup9\n        /* \"#utility.yul\":19800:19836   */\n      sstore\n        /* \"#utility.yul\":19235:19846   */\n      pop\n      pop\n      pop\n        /* \"#utility.yul\":19198:20085   */\n    tag_433:\n      pop\n        /* \"#utility.yul\":18788:20091   */\n      pop\n      pop\n      pop\n        /* \"#utility.yul\":18696:20091   */\n      pop\n      pop\n      jump\t// out\n        /* \"#utility.yul\":20097:20245   */\n    tag_229:\n        /* \"#utility.yul\":20195:20201   */\n      dup3\n        /* \"#utility.yul\":20190:20193   */\n      dup2\n        /* \"#utility.yul\":20185:20188   */\n      dup4\n        /* \"#utility.yul\":20172:20202   */\n      calldatacopy\n        /* \"#utility.yul\":20236:20237   */\n      0x00\n        /* \"#utility.yul\":20227:20233   */\n      dup4\n        /* \"#utility.yul\":20222:20225   */\n      dup4\n        /* \"#utility.yul\":20218:20234   */\n      add\n        /* \"#utility.yul\":20211:20238   */\n      mstore\n        /* \"#utility.yul\":20097:20245   */\n      pop\n      pop\n      pop\n      jump\t// out\n        /* \"#utility.yul\":20275:20592   */\n    tag_230:\n        /* \"#utility.yul\":20373:20376   */\n      0x00\n        /* \"#utility.yul\":20394:20465   */\n      tag_445\n        /* \"#utility.yul\":20458:20464   */\n      dup4\n        /* \"#utility.yul\":20453:20456   */\n      dup6\n        /* \"#utility.yul\":20394:20465   */\n      tag_187\n      jump\t// in\n    tag_445:\n        /* \"#utility.yul\":20387:20465   */\n      swap4\n      pop\n        /* \"#utility.yul\":20475:20531   */\n      tag_446\n        /* \"#utility.yul\":20524:20530   */\n      dup4\n        /* \"#utility.yul\":20519:20522   */\n      dup6\n        /* \"#utility.yul\":20512:20517   */\n      dup5\n        /* \"#utility.yul\":20475:20531   */\n      tag_229\n      jump\t// in\n    tag_446:\n        /* \"#utility.yul\":20556:20585   */\n      tag_447\n        /* \"#utility.yul\":20578:20584   */\n      dup4\n        /* \"#utility.yul\":20556:20585   */\n      tag_189\n      jump\t// in\n    tag_447:\n        /* \"#utility.yul\":20551:20554   */\n      dup5\n        /* \"#utility.yul\":20547:20586   */\n      add\n        /* \"#utility.yul\":20540:20586   */\n      swap1\n      pop\n        /* \"#utility.yul\":20275:20592   */\n      swap4\n      swap3\n      pop\n      pop\n      pop\n      jump\t// out\n        /* \"#utility.yul\":20598:21151   */\n    tag_119:\n        /* \"#utility.yul\":20777:20781   */\n      0x00\n        /* \"#utility.yul\":20815:20817   */\n      0x60\n        /* \"#utility.yul\":20804:20813   */\n      dup3\n        /* \"#utility.yul\":20800:20818   */\n      add\n        /* \"#utility.yul\":20792:20818   */\n      swap1\n      pop\n        /* \"#utility.yul\":20864:20873   */\n      dup2\n        /* \"#utility.yul\":20858:20862   */\n      dup2\n        /* \"#utility.yul\":20854:20874   */\n      sub\n        /* \"#utility.yul\":20850:20851   */\n      0x00\n        /* \"#utility.yul\":20839:20848   */\n      dup4\n        /* \"#utility.yul\":20835:20852   */\n      add\n        /* \"#utility.yul\":20828:20875   */\n      mstore\n        /* \"#utility.yul\":20892:20980   */\n      tag_449\n        /* \"#utility.yul\":20975:20979   */\n      dup2\n        /* \"#utility.yul\":20966:20972   */\n      dup7\n        /* \"#utility.yul\":20958:20964   */\n      dup9\n        /* \"#utility.yul\":20892:20980   */\n      tag_230\n      jump\t// in\n    tag_449:\n        /* \"#utility.yul\":20884:20980   */\n      swap1\n      pop\n        /* \"#utility.yul\":20990:21062   */\n      tag_450\n        /* \"#utility.yul\":21058:21060   */\n      0x20\n        /* \"#utility.yul\":21047:21056   */\n      dup4\n        /* \"#utility.yul\":21043:21061   */\n      add\n        /* \"#utility.yul\":21034:21040   */\n      dup6\n        /* \"#utility.yul\":20990:21062   */\n      tag_175\n      jump\t// in\n    tag_450:\n        /* \"#utility.yul\":21072:21144   */\n      tag_451\n        /* \"#utility.yul\":21140:21142   */\n      0x40\n        /* \"#utility.yul\":21129:21138   */\n      dup4\n        /* \"#utility.yul\":21125:21143   */\n      add\n        /* \"#utility.yul\":21116:21122   */\n      dup5\n        /* \"#utility.yul\":21072:21144   */\n      tag_175\n      jump\t// in\n    tag_451:\n        /* \"#utility.yul\":20598:21151   */\n      swap6\n      swap5\n      pop\n      pop\n      pop\n      pop\n      pop\n      jump\t// out\n        /* \"#utility.yul\":21157:21316   */\n    tag_231:\n        /* \"#utility.yul\":21297:21308   */\n      0x4e6f7420666f756e640000000000000000000000000000000000000000000000\n        /* \"#utility.yul\":21293:21294   */\n      0x00\n        /* \"#utility.yul\":21285:21291   */\n      dup3\n        /* \"#utility.yul\":21281:21295   */\n      add\n        /* \"#utility.yul\":21274:21309   */\n      mstore\n        /* \"#utility.yul\":21157:21316   */\n      pop\n      jump\t// out\n        /* \"#utility.yul\":21322:21687   */\n    tag_232:\n        /* \"#utility.yul\":21464:21467   */\n      0x00\n        /* \"#utility.yul\":21485:21551   */\n      tag_454\n        /* \"#utility.yul\":21549:21550   */\n      0x09\n        /* \"#utility.yul\":21544:21547   */\n      dup4\n        /* \"#utility.yul\":21485:21551   */\n      tag_187\n      jump\t// in\n    tag_454:\n        /* \"#utility.yul\":21478:21551   */\n      swap2\n      pop\n        /* \"#utility.yul\":21560:21653   */\n      tag_455\n        /* \"#utility.yul\":21649:21652   */\n      dup3\n        /* \"#utility.yul\":21560:21653   */\n      tag_231\n      jump\t// in\n    tag_455:\n        /* \"#utility.yul\":21678:21680   */\n      0x20\n        /* \"#utility.yul\":21673:21676   */\n      dup3\n        /* \"#utility.yul\":21669:21681   */\n      add\n        /* \"#utility.yul\":21662:21681   */\n      swap1\n      pop\n        /* \"#utility.yul\":21322:21687   */\n      swap2\n      swap1\n      pop\n      jump\t// out\n        /* \"#utility.yul\":21693:22112   */\n    tag_126:\n        /* \"#utility.yul\":21859:21863   */\n      0x00\n        /* \"#utility.yul\":21897:21899   */\n      0x20\n        /* \"#utility.yul\":21886:21895   */\n      dup3\n        /* \"#utility.yul\":21882:21900   */\n      add\n        /* \"#utility.yul\":21874:21900   */\n      swap1\n      pop\n        /* \"#utility.yul\":21946:21955   */\n      dup2\n        /* \"#utility.yul\":21940:21944   */\n      dup2\n        /* \"#utility.yul\":21936:21956   */\n      sub\n        /* \"#utility.yul\":21932:21933   */\n      0x00\n        /* \"#utility.yul\":21921:21930   */\n      dup4\n        /* \"#utility.yul\":21917:21934   */\n      add\n        /* \"#utility.yul\":21910:21957   */\n      mstore\n        /* \"#utility.yul\":21974:22105   */\n      tag_457\n        /* \"#utility.yul\":22100:22104   */\n      dup2\n        /* \"#utility.yul\":21974:22105   */\n      tag_232\n      jump\t// in\n    tag_457:\n        /* \"#utility.yul\":21966:22105   */\n      swap1\n      pop\n        /* \"#utility.yul\":21693:22112   */\n      swap2\n      swap1\n      pop\n      jump\t// out\n        /* \"#utility.yul\":22118:22277   */\n    tag_233:\n        /* \"#utility.yul\":22258:22269   */\n      0x4e6f74206f776e65720000000000000000000000000000000000000000000000\n        /* \"#utility.yul\":22254:22255   */\n      0x00\n        /* \"#utility.yul\":22246:22252   */\n      dup3\n        /* \"#utility.yul\":22242:22256   */\n      add\n        /* \"#utility.yul\":22235:22270   */\n      mstore\n        /* \"#utility.yul\":22118:22277   */\n      pop\n      jump\t// out\n        /* \"#utility.yul\":22283:22648   */\n    tag_234:\n        /* \"#utility.yul\":22425:22428   */\n      0x00\n        /* \"#utility.yul\":22446:22512   */\n      tag_460\n        /* \"#utility.yul\":22510:22511   */\n      0x09\n        /* \"#utility.yul\":22505:22508   */\n      dup4\n        /* \"#utility.yul\":22446:22512   */\n      tag_187\n      jump\t// in\n    tag_460:\n        /* \"#utility.yul\":22439:22512   */\n      swap2\n      pop\n        /* \"#utility.yul\":22521:22614   */\n      tag_461\n        /* \"#utility.yul\":22610:22613   */\n      dup3\n        /* \"#utility.yul\":22521:22614   */\n      tag_233\n      jump\t// in\n    tag_461:\n        /* \"#utility.yul\":22639:22641   */\n      0x20\n        /* \"#utility.yul\":22634:22637   */\n      dup3\n        /* \"#utility.yul\":22630:22642   */\n      add\n        /* \"#utility.yul\":22623:22642   */\n      swap1\n      pop\n        /* \"#utility.yul\":22283:22648   */\n      swap2\n      swap1\n      pop\n      jump\t// out\n        /* \"#utility.yul\":22654:23073   */\n    tag_135:\n        /* \"#utility.yul\":22820:22824   */\n      0x00\n        /* \"#utility.yul\":22858:22860   */\n      0x20\n        /* \"#utility.yul\":22847:22856   */\n      dup3\n        /* \"#utility.yul\":22843:22861   */\n      add\n        /* \"#utility.yul\":22835:22861   */\n      swap1\n      pop\n        /* \"#utility.yul\":22907:22916   */\n      dup2\n        /* \"#utility.yul\":22901:22905   */\n      dup2\n        /* \"#utility.yul\":22897:22917   */\n      sub\n        /* \"#utility.yul\":22893:22894   */\n      0x00\n        /* \"#utility.yul\":22882:22891   */\n      dup4\n        /* \"#utility.yul\":22878:22895   */\n      add\n        /* \"#utility.yul\":22871:22918   */\n      mstore\n        /* \"#utility.yul\":22935:23066   */\n      tag_463\n        /* \"#utility.yul\":23061:23065   */\n      dup2\n        /* \"#utility.yul\":22935:23066   */\n      tag_234\n      jump\t// in\n    tag_463:\n        /* \"#utility.yul\":22927:23066   */\n      swap1\n      pop\n        /* \"#utility.yul\":22654:23073   */\n      swap2\n      swap1\n      pop\n      jump\t// out\n        /* \"#utility.yul\":23079:23245   */\n    tag_235:\n        /* \"#utility.yul\":23219:23237   */\n      0x416c726561647920696e61637469766500000000000000000000000000000000\n        /* \"#utility.yul\":23215:23216   */\n      0x00\n        /* \"#utility.yul\":23207:23213   */\n      dup3\n        /* \"#utility.yul\":23203:23217   */\n      add\n        /* \"#utility.yul\":23196:23238   */\n      mstore\n        /* \"#utility.yul\":23079:23245   */\n      pop\n      jump\t// out\n        /* \"#utility.yul\":23251:23617   */\n    tag_236:\n        /* \"#utility.yul\":23393:23396   */\n      0x00\n        /* \"#utility.yul\":23414:23481   */\n      tag_466\n        /* \"#utility.yul\":23478:23480   */\n      0x10\n        /* \"#utility.yul\":23473:23476   */\n      dup4\n        /* \"#utility.yul\":23414:23481   */\n      tag_187\n      jump\t// in\n    tag_466:\n        /* \"#utility.yul\":23407:23481   */\n      swap2\n      pop\n        /* \"#utility.yul\":23490:23583   */\n      tag_467\n        /* \"#utility.yul\":23579:23582   */\n      dup3\n        /* \"#utility.yul\":23490:23583   */\n      tag_235\n      jump\t// in\n    tag_467:\n        /* \"#utility.yul\":23608:23610   */\n      0x20\n        /* \"#utility.yul\":23603:23606   */\n      dup3\n        /* \"#utility.yul\":23599:23611   */\n      add\n        /* \"#utility.yul\":23592:23611   */\n      swap1\n      pop\n        /* \"#utility.yul\":23251:23617   */\n      swap2\n      swap1\n      pop\n      jump\t// out\n        /* \"#utility.yul\":23623:24042   */\n    tag_138:\n        /* \"#utility.yul\":23789:23793   */\n      0x00\n        /* \"#utility.yul\":23827:23829   */\n      0x20\n        /* \"#utility.yul\":23816:23825   */\n      dup3\n        /* \"#utility.yul\":23812:23830   */\n      add\n        /* \"#utility.yul\":23804:23830   */\n      swap1\n      pop\n        /* \"#utility.yul\":23876:23885   */\n      dup2\n        /* \"#utility.yul\":23870:23874   */\n      dup2\n        /* \"#utility.yul\":23866:23886   */\n      sub\n        /* \"#utility.yul\":23862:23863   */\n      0x00\n        /* \"#utility.yul\":23851:23860   */\n      dup4\n        /* \"#utility.yul\":23847:23864   */\n      add\n        /* \"#utility.yul\":23840:23887   */\n      mstore\n        /* \"#utility.yul\":23904:24035   */\n      tag_469\n        /* \"#utility.yul\":24030:24034   */\n      dup2\n        /* \"#utility.yul\":23904:24035   */\n      tag_236\n      jump\t// in\n    tag_469:\n        /* \"#utility.yul\":23896:24035   */\n      swap1\n      pop\n        /* \"#utility.yul\":23623:24042   */\n      swap2\n      swap1\n      pop\n      jump\t// out\n        /* \"#utility.yul\":24048:24208   */\n    tag_237:\n        /* \"#utility.yul\":24188:24200   */\n      0x4e6f742061637469766500000000000000000000000000000000000000000000\n        /* \"#utility.yul\":24184:24185   */\n      0x00\n        /* \"#utility.yul\":24176:24182   */\n      dup3\n        /* \"#utility.yul\":24172:24186   */\n      add\n        /* \"#utility.yul\":24165:24201   */\n      mstore\n        /* \"#utility.yul\":24048:24208   */\n      pop\n      jump\t// out\n        /* \"#utility.yul\":24214:24580   */\n    tag_238:\n        /* \"#utility.yul\":24356:24359   */\n      0x00\n        /* \"#utility.yul\":24377:24444   */\n      tag_472\n        /* \"#utility.yul\":24441:24443   */\n      0x0a\n        /* \"#utility.yul\":24436:24439   */\n      dup4\n        /* \"#utility.yul\":24377:24444   */\n      tag_187\n      jump\t// in\n    tag_472:\n        /* \"#utility.yul\":24370:24444   */\n      swap2\n      pop\n        /* \"#utility.yul\":24453:24546   */\n      tag_473\n        /* \"#utility.yul\":24542:24545   */\n      dup3\n        /* \"#utility.yul\":24453:24546   */\n      tag_237\n      jump\t// in\n    tag_473:\n        /* \"#utility.yul\":24571:24573   */\n      0x20\n        /* \"#utility.yul\":24566:24569   */\n      dup3\n        /* \"#utility.yul\":24562:24574   */\n      add\n        /* \"#utility.yul\":24555:24574   */\n      swap1\n      pop\n        /* \"#utility.yul\":24214:24580   */\n      swap2\n      swap1\n      pop\n      jump\t// out\n        /* \"#utility.yul\":24586:25005   */\n    tag_144:\n        /* \"#utility.yul\":24752:24756   */\n      0x00\n        /* \"#utility.yul\":24790:24792   */\n      0x20\n        /* \"#utility.yul\":24779:24788   */\n      dup3\n        /* \"#utility.yul\":24775:24793   */\n      add\n        /* \"#utility.yul\":24767:24793   */\n      swap1\n      pop\n        /* \"#utility.yul\":24839:24848   */\n      dup2\n        /* \"#utility.yul\":24833:24837   */\n      dup2\n        /* \"#utility.yul\":24829:24849   */\n      sub\n        /* \"#utility.yul\":24825:24826   */\n      0x00\n        /* \"#utility.yul\":24814:24823   */\n      dup4\n        /* \"#utility.yul\":24810:24827   */\n      add\n        /* \"#utility.yul\":24803:24850   */\n      mstore\n        /* \"#utility.yul\":24867:24998   */\n      tag_475\n        /* \"#utility.yul\":24993:24997   */\n      dup2\n        /* \"#utility.yul\":24867:24998   */\n      tag_238\n      jump\t// in\n    tag_475:\n        /* \"#utility.yul\":24859:24998   */\n      swap1\n      pop\n        /* \"#utility.yul\":24586:25005   */\n      swap2\n      swap1\n      pop\n      jump\t// out\n        /* \"#utility.yul\":25011:25169   */\n    tag_239:\n        /* \"#utility.yul\":25151:25161   */\n      0x536f6c64206f7574000000000000000000000000000000000000000000000000\n        /* \"#utility.yul\":25147:25148   */\n      0x00\n        /* \"#utility.yul\":25139:25145   */\n      dup3\n        /* \"#utility.yul\":25135:25149   */\n      add\n        /* \"#utility.yul\":25128:25162   */\n      mstore\n        /* \"#utility.yul\":25011:25169   */\n      pop\n      jump\t// out\n        /* \"#utility.yul\":25175:25540   */\n    tag_240:\n        /* \"#utility.yul\":25317:25320   */\n      0x00\n        /* \"#utility.yul\":25338:25404   */\n      tag_478\n        /* \"#utility.yul\":25402:25403   */\n      0x08\n        /* \"#utility.yul\":25397:25400   */\n      dup4\n        /* \"#utility.yul\":25338:25404   */\n      tag_187\n      jump\t// in\n    tag_478:\n        /* \"#utility.yul\":25331:25404   */\n      swap2\n      pop\n        /* \"#utility.yul\":25413:25506   */\n      tag_479\n        /* \"#utility.yul\":25502:25505   */\n      dup3\n        /* \"#utility.yul\":25413:25506   */\n      tag_239\n      jump\t// in\n    tag_479:\n        /* \"#utility.yul\":25531:25533   */\n      0x20\n        /* \"#utility.yul\":25526:25529   */\n      dup3\n        /* \"#utility.yul\":25522:25534   */\n      add\n        /* \"#utility.yul\":25515:25534   */\n      swap1\n      pop\n        /* \"#utility.yul\":25175:25540   */\n      swap2\n      swap1\n      pop\n      jump\t// out\n        /* \"#utility.yul\":25546:25965   */\n    tag_147:\n        /* \"#utility.yul\":25712:25716   */\n      0x00\n        /* \"#utility.yul\":25750:25752   */\n      0x20\n        /* \"#utility.yul\":25739:25748   */\n      dup3\n        /* \"#utility.yul\":25735:25753   */\n      add\n        /* \"#utility.yul\":25727:25753   */\n      swap1\n      pop\n        /* \"#utility.yul\":25799:25808   */\n      dup2\n        /* \"#utility.yul\":25793:25797   */\n      dup2\n        /* \"#utility.yul\":25789:25809   */\n      sub\n        /* \"#utility.yul\":25785:25786   */\n      0x00\n        /* \"#utility.yul\":25774:25783   */\n      dup4\n        /* \"#utility.yul\":25770:25787   */\n      add\n        /* \"#utility.yul\":25763:25810   */\n      mstore\n        /* \"#utility.yul\":25827:25958   */\n      tag_481\n        /* \"#utility.yul\":25953:25957   */\n      dup2\n        /* \"#utility.yul\":25827:25958   */\n      tag_240\n      jump\t// in\n    tag_481:\n        /* \"#utility.yul\":25819:25958   */\n      swap1\n      pop\n        /* \"#utility.yul\":25546:25965   */\n      swap2\n      swap1\n      pop\n      jump\t// out\n        /* \"#utility.yul\":25971:26141   */\n    tag_241:\n        /* \"#utility.yul\":26111:26133   */\n      0x496e73756666696369656e74207061796d656e74000000000000000000000000\n        /* \"#utility.yul\":26107:26108   */\n      0x00\n        /* \"#utility.yul\":26099:26105   */\n      dup3\n        /* \"#utility.yul\":26095:26109   */\n      add\n        /* \"#utility.yul\":26088:26134   */\n      mstore\n        /* \"#utility.yul\":25971:26141   */\n      pop\n      jump\t// out\n        /* \"#utility.yul\":26147:26513   */\n    tag_242:\n        /* \"#utility.yul\":26289:26292   */\n      0x00\n        /* \"#utility.yul\":26310:26377   */\n      tag_484\n        /* \"#utility.yul\":26374:26376   */\n      0x14\n        /* \"#utility.yul\":26369:26372   */\n      dup4\n        /* \"#utility.yul\":26310:26377   */\n      tag_187\n      jump\t// in\n    tag_484:\n        /* \"#utility.yul\":26303:26377   */\n      swap2\n      pop\n        /* \"#utility.yul\":26386:26479   */\n      tag_485\n        /* \"#utility.yul\":26475:26478   */\n      dup3\n        /* \"#utility.yul\":26386:26479   */\n      tag_241\n      jump\t// in\n    tag_485:\n        /* \"#utility.yul\":26504:26506   */\n      0x20\n        /* \"#utility.yul\":26499:26502   */\n      dup3\n        /* \"#utility.yul\":26495:26507   */\n      add\n        /* \"#utility.yul\":26488:26507   */\n      swap1\n      pop\n        /* \"#utility.yul\":26147:26513   */\n      swap2\n      swap1\n      pop\n      jump\t// out\n        /* \"#utility.yul\":26519:26938   */\n    tag_150:\n        /* \"#utility.yul\":26685:26689   */\n      0x00\n        /* \"#utility.yul\":26723:26725   */\n      0x20\n        /* \"#utility.yul\":26712:26721   */\n      dup3\n        /* \"#utility.yul\":26708:26726   */\n      add\n        /* \"#utility.yul\":26700:26726   */\n      swap1\n      pop\n        /* \"#utility.yul\":26772:26781   */\n      dup2\n        /* \"#utility.yul\":26766:26770   */\n      dup2\n        /* \"#utility.yul\":26762:26782   */\n      sub\n        /* \"#utility.yul\":26758:26759   */\n      0x00\n        /* \"#utility.yul\":26747:26756   */\n      dup4\n        /* \"#utility.yul\":26743:26760   */\n      add\n        /* \"#utility.yul\":26736:26783   */\n      mstore\n        /* \"#utility.yul\":26800:26931   */\n      tag_487\n        /* \"#utility.yul\":26926:26930   */\n      dup2\n        /* \"#utility.yul\":26800:26931   */\n      tag_242\n      jump\t// in\n    tag_487:\n        /* \"#utility.yul\":26792:26931   */\n      swap1\n      pop\n        /* \"#utility.yul\":26519:26938   */\n      swap2\n      swap1\n      pop\n      jump\t// out\n        /* \"#utility.yul\":26944:27354   */\n    tag_156:\n        /* \"#utility.yul\":26984:26991   */\n      0x00\n        /* \"#utility.yul\":27007:27027   */\n      tag_489\n        /* \"#utility.yul\":27025:27026   */\n      dup3\n        /* \"#utility.yul\":27007:27027   */\n      tag_174\n      jump\t// in\n    tag_489:\n        /* \"#utility.yul\":27002:27027   */\n      swap2\n      pop\n        /* \"#utility.yul\":27041:27061   */\n      tag_490\n        /* \"#utility.yul\":27059:27060   */\n      dup4\n        /* \"#utility.yul\":27041:27061   */\n      tag_174\n      jump\t// in\n    tag_490:\n        /* \"#utility.yul\":27036:27061   */\n      swap3\n      pop\n        /* \"#utility.yul\":27096:27097   */\n      dup3\n        /* \"#utility.yul\":27093:27094   */\n      dup3\n        /* \"#utility.yul\":27089:27098   */\n      mul\n        /* \"#utility.yul\":27118:27148   */\n      tag_491\n        /* \"#utility.yul\":27136:27147   */\n      dup2\n        /* \"#utility.yul\":27118:27148   */\n      tag_174\n      jump\t// in\n    tag_491:\n        /* \"#utility.yul\":27107:27148   */\n      swap2\n      pop\n        /* \"#utility.yul\":27297:27298   */\n      dup3\n        /* \"#utility.yul\":27288:27295   */\n      dup3\n        /* \"#utility.yul\":27284:27299   */\n      div\n        /* \"#utility.yul\":27281:27282   */\n      dup5\n        /* \"#utility.yul\":27278:27300   */\n      eq\n        /* \"#utility.yul\":27258:27259   */\n      dup4\n        /* \"#utility.yul\":27251:27260   */\n      iszero\n        /* \"#utility.yul\":27231:27314   */\n      or\n        /* \"#utility.yul\":27208:27347   */\n      tag_492\n      jumpi\n        /* \"#utility.yul\":27327:27345   */\n      tag_493\n      tag_203\n      jump\t// in\n    tag_493:\n        /* \"#utility.yul\":27208:27347   */\n    tag_492:\n        /* \"#utility.yul\":26992:27354   */\n      pop\n        /* \"#utility.yul\":26944:27354   */\n      swap3\n      swap2\n      pop\n      pop\n      jump\t// out\n        /* \"#utility.yul\":27360:27540   */\n    tag_243:\n        /* \"#utility.yul\":27408:27485   */\n      0x4e487b7100000000000000000000000000000000000000000000000000000000\n        /* \"#utility.yul\":27405:27406   */\n      0x00\n        /* \"#utility.yul\":27398:27486   */\n      mstore\n        /* \"#utility.yul\":27505:27509   */\n      0x12\n        /* \"#utility.yul\":27502:27503   */\n      0x04\n        /* \"#utility.yul\":27495:27510   */\n      mstore\n        /* \"#utility.yul\":27529:27533   */\n      0x24\n        /* \"#utility.yul\":27526:27527   */\n      0x00\n        /* \"#utility.yul\":27519:27534   */\n      revert\n        /* \"#utility.yul\":27546:27731   */\n    tag_158:\n        /* \"#utility.yul\":27586:27587   */\n      0x00\n        /* \"#utility.yul\":27603:27623   */\n      tag_496\n        /* \"#utility.yul\":27621:27622   */\n      dup3\n        /* \"#utility.yul\":27603:27623   */\n      tag_174\n      jump\t// in\n    tag_496:\n        /* \"#utility.yul\":27598:27623   */\n      swap2\n      pop\n        /* \"#utility.yul\":27637:27657   */\n      tag_497\n        /* \"#utility.yul\":27655:27656   */\n      dup4\n        /* \"#utility.yul\":27637:27657   */\n      tag_174\n      jump\t// in\n    tag_497:\n        /* \"#utility.yul\":27632:27657   */\n      swap3\n      pop\n        /* \"#utility.yul\":27676:27677   */\n      dup3\n        /* \"#utility.yul\":27666:27701   */\n      tag_498\n      jumpi\n        /* \"#utility.yul\":27681:27699   */\n      tag_499\n      tag_243\n      jump\t// in\n    tag_499:\n        /* \"#utility.yul\":27666:27701   */\n    tag_498:\n        /* \"#utility.yul\":27723:27724   */\n      dup3\n        /* \"#utility.yul\":27720:27721   */\n      dup3\n        /* \"#utility.yul\":27716:27725   */\n      div\n        /* \"#utility.yul\":27711:27725   */\n      swap1\n      pop\n        /* \"#utility.yul\":27546:27731   */\n      swap3\n      swap2\n      pop\n      pop\n      jump\t// out\n        /* \"#utility.yul\":27737:27928   */\n    tag_165:\n        /* \"#utility.yul\":27777:27780   */\n      0x00\n        /* \"#utility.yul\":27796:27816   */\n      tag_501\n        /* \"#utility.yul\":27814:27815   */\n      dup3\n        /* \"#utility.yul\":27796:27816   */\n      tag_174\n      jump\t// in\n    tag_501:\n        /* \"#utility.yul\":27791:27816   */\n      swap2\n      pop\n        /* \"#utility.yul\":27830:27850   */\n      tag_502\n        /* \"#utility.yul\":27848:27849   */\n      dup4\n        /* \"#utility.yul\":27830:27850   */\n      tag_174\n      jump\t// in\n    tag_502:\n        /* \"#utility.yul\":27825:27850   */\n      swap3\n      pop\n        /* \"#utility.yul\":27873:27874   */\n      dup3\n        /* \"#utility.yul\":27870:27871   */\n      dup3\n        /* \"#utility.yul\":27866:27875   */\n      add\n        /* \"#utility.yul\":27859:27875   */\n      swap1\n      pop\n        /* \"#utility.yul\":27894:27897   */\n      dup1\n        /* \"#utility.yul\":27891:27892   */\n      dup3\n        /* \"#utility.yul\":27888:27898   */\n      gt\n        /* \"#utility.yul\":27885:27921   */\n      iszero\n      tag_503\n      jumpi\n        /* \"#utility.yul\":27901:27919   */\n      tag_504\n      tag_203\n      jump\t// in\n    tag_504:\n        /* \"#utility.yul\":27885:27921   */\n    tag_503:\n        /* \"#utility.yul\":27737:27928   */\n      swap3\n      swap2\n      pop\n      pop\n      jump\t// out\n        /* \"#utility.yul\":27934:28266   */\n    tag_170:\n        /* \"#utility.yul\":28055:28059   */\n      0x00\n        /* \"#utility.yul\":28093:28095   */\n      0x40\n        /* \"#utility.yul\":28082:28091   */\n      dup3\n        /* \"#utility.yul\":28078:28096   */\n      add\n        /* \"#utility.yul\":28070:28096   */\n      swap1\n      pop\n        /* \"#utility.yul\":28106:28177   */\n      tag_506\n        /* \"#utility.yul\":28174:28175   */\n      0x00\n        /* \"#utility.yul\":28163:28172   */\n      dup4\n        /* \"#utility.yul\":28159:28176   */\n      add\n        /* \"#utility.yul\":28150:28156   */\n      dup6\n        /* \"#utility.yul\":28106:28177   */\n      tag_175\n      jump\t// in\n    tag_506:\n        /* \"#utility.yul\":28187:28259   */\n      tag_507\n        /* \"#utility.yul\":28255:28257   */\n      0x20\n        /* \"#utility.yul\":28244:28253   */\n      dup4\n        /* \"#utility.yul\":28240:28258   */\n      add\n        /* \"#utility.yul\":28231:28237   */\n      dup5\n        /* \"#utility.yul\":28187:28259   */\n      tag_175\n      jump\t// in\n    tag_507:\n        /* \"#utility.yul\":27934:28266   */\n      swap4\n      swap3\n      pop\n      pop\n      pop\n      jump\t// out\n\n    auxdata: 0xa26469706673582212201fdec48514944de599f29d164d0e3633616239c25208eaf9df122a331265a99064736f6c634300081e0033\n}\n",
				"bytecode": {
					"linkReferences": {},
					"object": "60e060405234801561000f575f5ffd5b5060405161239b38038061239b833981810160405281019061003191906101c8565b5f73ffffffffffffffffffffffffffffffffffffffff168373ffffffffffffffffffffffffffffffffffffffff160361009f576040517f08c379a000000000000000000000000000000000000000000000000000000000815260040161009690610272565b60405180910390fd5b6113888211156100e4576040517f08c379a00000000000000000000000000000000000000000000000000000000081526004016100db906102da565b60405180910390fd5b8273ffffffffffffffffffffffffffffffffffffffff1660808173ffffffffffffffffffffffffffffffffffffffff16815250508160a081815250508060c0818152505060015f819055505050506102f8565b5f5ffd5b5f73ffffffffffffffffffffffffffffffffffffffff82169050919050565b5f6101648261013b565b9050919050565b6101748161015a565b811461017e575f5ffd5b50565b5f8151905061018f8161016b565b92915050565b5f819050919050565b6101a781610195565b81146101b1575f5ffd5b50565b5f815190506101c28161019e565b92915050565b5f5f5f606084860312156101df576101de610137565b5b5f6101ec86828701610181565b93505060206101fd868287016101b4565b925050604061020e868287016101b4565b9150509250925092565b5f82825260208201905092915050565b7f42616420747265617375727900000000000000000000000000000000000000005f82015250565b5f61025c600c83610218565b915061026782610228565b602082019050919050565b5f6020820190508181035f83015261028981610250565b9050919050565b7f46656520746f6f206869676800000000000000000000000000000000000000005f82015250565b5f6102c4600c83610218565b91506102cf82610290565b602082019050919050565b5f6020820190508181035f8301526102f1816102b8565b9050919050565b60805160a05160c0516120646103375f395f8181611091015261113901525f81816104e10152610dfd01525f8181610eab01526111ba01526120645ff3fe6080604052600436106100dc575f3560e01c80635598f8cc1161007e578063b91d0a2f11610058578063b91d0a2f14610307578063ce546ffa14610323578063ced141981461034d578063e138818c1461038a576100dc565b80635598f8cc14610267578063691f6df7146102a35780637eca30fe146102df576100dc565b806322dcd13e116100ba57806322dcd13e1461018957806322f850b3146101b35780633020580b146101ef578063328df91d1461022b576100dc565b806302932f56146100e057806309f7c6d11461010a578063141961bc14610146575b5f5ffd5b3480156100eb575f5ffd5b506100f46103b4565b604051610101919061124c565b60405180910390f35b348015610115575f5ffd5b50610130600480360381019061012b91906112c7565b6103c8565b60405161013d919061124c565b60405180910390f35b348015610151575f5ffd5b5061016c6004803603810190610167919061131c565b6103dd565b6040516101809897969594939291906113e0565b60405180910390f35b348015610194575f5ffd5b5061019d6104df565b6040516101aa919061124c565b60405180910390f35b3480156101be575f5ffd5b506101d960048036038101906101d49190611463565b610503565b6040516101e6919061124c565b60405180910390f35b3480156101fa575f5ffd5b5061021560048036038101906102109190611502565b610523565b604051610222919061124c565b60405180910390f35b348015610236575f5ffd5b50610251600480360381019061024c91906112c7565b6108ef565b60405161025e919061124c565b60405180910390f35b348015610272575f5ffd5b5061028d6004803603810190610288919061131c565b610935565b60405161029a9190611695565b60405180910390f35b3480156102ae575f5ffd5b506102c960048036038101906102c491906112c7565b610af7565b6040516102d691906116b5565b60405180910390f35b3480156102ea575f5ffd5b506103056004803603810190610300919061131c565b610b14565b005b610321600480360381019061031c919061131c565b610c55565b005b34801561032e575f5ffd5b50610337611137565b604051610344919061124c565b60405180910390f35b348015610358575f5ffd5b50610373600480360381019061036e9190611463565b61115b565b6040516103819291906116ce565b60405180910390f35b348015610395575f5ffd5b5061039e6111b8565b6040516103ab91906116f5565b60405180910390f35b5f60015f546103c3919061173b565b905090565b6003602052805f5260405f205f915090505481565b6001602052805f5260405f205f91509050805f015490806001015f9054906101000a900473ffffffffffffffffffffffffffffffffffffffff16908060020180546104279061179b565b80601f01602080910402602001604051908101604052809291908181526020018280546104539061179b565b801561049e5780601f106104755761010080835404028352916020019161049e565b820191905f5260205f20905b81548152906001019060200180831161048157829003601f168201915b505050505090806003015490806004015490806005015490806006015f9054906101000a900460ff16908060060160019054906101000a900460ff16905088565b7f000000000000000000000000000000000000000000000000000000000000000081565b6004602052815f5260405f20602052805f5260405f205f91509150505481565b5f60025f3373ffffffffffffffffffffffffffffffffffffffff1673ffffffffffffffffffffffffffffffffffffffff1681526020019081526020015f205f9054906101000a900460ff16156105ae576040517f08c379a00000000000000000000000000000000000000000000000000000000081526004016105a590611815565b60405180910390fd5b5f85859050116105f3576040517f08c379a00000000000000000000000000000000000000000000000000000000081526004016105ea9061187d565b60405180910390fd5b5f8311610635576040517f08c379a000000000000000000000000000000000000000000000000000000000815260040161062c906118e5565b60405180910390fd5b5f8211610677576040517f08c379a000000000000000000000000000000000000000000000000000000000815260040161066e9061194d565b60405180910390fd5b5f5f8154809291906106889061196b565b9190505590506040518061010001604052808281526020013373ffffffffffffffffffffffffffffffffffffffff16815260200186868080601f0160208091040260200160405190810160405280939291908181526020018383808284375f81840152601f19601f8201169050808301925050505050505081526020018481526020018381526020015f81526020016001151581526020015f151581525060015f8381526020019081526020015f205f820151815f01556020820151816001015f6101000a81548173ffffffffffffffffffffffffffffffffffffffff021916908373ffffffffffffffffffffffffffffffffffffffff160217905550604082015181600201908161079a9190611b7f565b50606082015181600301556080820151816004015560a0820151816005015560c0820151816006015f6101000a81548160ff02191690831515021790555060e08201518160060160016101000a81548160ff021916908315150217905550905050600160025f3373ffffffffffffffffffffffffffffffffffffffff1673ffffffffffffffffffffffffffffffffffffffff1681526020019081526020015f205f6101000a81548160ff0219169083151502179055508060035f3373ffffffffffffffffffffffffffffffffffffffff1673ffffffffffffffffffffffffffffffffffffffff1681526020019081526020015f20819055503373ffffffffffffffffffffffffffffffffffffffff16817fdc26653af5b99b2da33e2ad69ee6600d9aeccc82b034501db4338309615ca238878787876040516108df9493929190611c88565b60405180910390a3949350505050565b5f60035f8373ffffffffffffffffffffffffffffffffffffffff1673ffffffffffffffffffffffffffffffffffffffff1681526020019081526020015f20549050919050565b61093d6111dc565b5f60015f8481526020019081526020015f205f015403610992576040517f08c379a000000000000000000000000000000000000000000000000000000000815260040161098990611d10565b60405180910390fd5b60015f8381526020019081526020015f20604051806101000160405290815f8201548152602001600182015f9054906101000a900473ffffffffffffffffffffffffffffffffffffffff1673ffffffffffffffffffffffffffffffffffffffff1673ffffffffffffffffffffffffffffffffffffffff168152602001600282018054610a1d9061179b565b80601f0160208091040260200160405190810160405280929190818152602001828054610a499061179b565b8015610a945780601f10610a6b57610100808354040283529160200191610a94565b820191905f5260205f20905b815481529060010190602001808311610a7757829003601f168201915b50505050508152602001600382015481526020016004820154815260200160058201548152602001600682015f9054906101000a900460ff161515151581526020016006820160019054906101000a900460ff1615151515815250509050919050565b6002602052805f5260405f205f915054906101000a900460ff1681565b5f60015f8381526020019081526020015f2090503373ffffffffffffffffffffffffffffffffffffffff16816001015f9054906101000a900473ffffffffffffffffffffffffffffffffffffffff1673ffffffffffffffffffffffffffffffffffffffff1614610bb9576040517f08c379a0000000000000000000000000000000000000000000000000000000008152600401610bb090611d78565b60405180910390fd5b806006015f9054906101000a900460ff16610c09576040517f08c379a0000000000000000000000000000000000000000000000000000000008152600401610c0090611de0565b60405180910390fd5b5f816006015f6101000a81548160ff021916908315150217905550817fa8ad368de07a46b4c9632fee456e1227f02e971f82939d68bd4696b2e378dfa760405160405180910390a25050565b5f60015f8381526020019081526020015f2090505f815f015403610cae576040517f08c379a0000000000000000000000000000000000000000000000000000000008152600401610ca590611d10565b60405180910390fd5b806006015f9054906101000a900460ff16610cfe576040517f08c379a0000000000000000000000000000000000000000000000000000000008152600401610cf590611e48565b60405180910390fd5b8060060160019054906101000a900460ff1615610d50576040517f08c379a0000000000000000000000000000000000000000000000000000000008152600401610d4790611eb0565b60405180910390fd5b8060030154341015610d97576040517f08c379a0000000000000000000000000000000000000000000000000000000008152600401610d8e90611f18565b60405180910390fd5b5f8160030154905080341115610df7573373ffffffffffffffffffffffffffffffffffffffff166108fc8234610dcd919061173b565b90811502906040515f60405180830381858888f19350505050158015610df5573d5f5f3e3d5ffd5b505b5f6127107f000000000000000000000000000000000000000000000000000000000000000083610e279190611f36565b610e319190611fa4565b90505f8183610e40919061173b565b9050836001015f9054906101000a900473ffffffffffffffffffffffffffffffffffffffff1673ffffffffffffffffffffffffffffffffffffffff166108fc8290811502906040515f60405180830381858888f19350505050158015610ea8573d5f5f3e3d5ffd5b507f000000000000000000000000000000000000000000000000000000000000000073ffffffffffffffffffffffffffffffffffffffff166108fc8390811502906040515f60405180830381858888f19350505050158015610f0c573d5f5f3e3d5ffd5b505f846004015442610f1e9190611fd4565b90504260045f8881526020019081526020015f205f3373ffffffffffffffffffffffffffffffffffffffff1673ffffffffffffffffffffffffffffffffffffffff1681526020019081526020015f20541115610fd357846004015460045f8881526020019081526020015f205f3373ffffffffffffffffffffffffffffffffffffffff1673ffffffffffffffffffffffffffffffffffffffff1681526020019081526020015f2054610fd09190611fd4565b90505b8060045f8881526020019081526020015f205f3373ffffffffffffffffffffffffffffffffffffffff1673ffffffffffffffffffffffffffffffffffffffff1681526020019081526020015f208190555083856005015f8282546110379190611fd4565b925050819055503373ffffffffffffffffffffffffffffffffffffffff16867f79f205d05e1d9f99a7e4a6d2e5d9fc75c372c7033d239fefe5e5dec18d472bd98684604051611087929190612007565b60405180910390a37f000000000000000000000000000000000000000000000000000000000000000085600501541061112f5760018560060160016101000a81548160ff0219169083151502179055505f856006015f6101000a81548160ff021916908315150217905550857f428863f46f1c52b568c5a1c58db93b0efaa495735ce458976e47ac5d38b36c518660050154604051611126919061124c565b60405180910390a25b505050505050565b7f000000000000000000000000000000000000000000000000000000000000000081565b5f5f60045f8581526020019081526020015f205f8473ffffffffffffffffffffffffffffffffffffffff1673ffffffffffffffffffffffffffffffffffffffff1681526020019081526020015f2054905042811191509250929050565b7f000000000000000000000000000000000000000000000000000000000000000081565b6040518061010001604052805f81526020015f73ffffffffffffffffffffffffffffffffffffffff168152602001606081526020015f81526020015f81526020015f81526020015f151581526020015f151581525090565b5f819050919050565b61124681611234565b82525050565b5f60208201905061125f5f83018461123d565b92915050565b5f5ffd5b5f5ffd5b5f73ffffffffffffffffffffffffffffffffffffffff82169050919050565b5f6112968261126d565b9050919050565b6112a68161128c565b81146112b0575f5ffd5b50565b5f813590506112c18161129d565b92915050565b5f602082840312156112dc576112db611265565b5b5f6112e9848285016112b3565b91505092915050565b6112fb81611234565b8114611305575f5ffd5b50565b5f81359050611316816112f2565b92915050565b5f6020828403121561133157611330611265565b5b5f61133e84828501611308565b91505092915050565b6113508161128c565b82525050565b5f81519050919050565b5f82825260208201905092915050565b8281835e5f83830152505050565b5f601f19601f8301169050919050565b5f61139882611356565b6113a28185611360565b93506113b2818560208601611370565b6113bb8161137e565b840191505092915050565b5f8115159050919050565b6113da816113c6565b82525050565b5f610100820190506113f45f83018b61123d565b611401602083018a611347565b8181036040830152611413818961138e565b9050611422606083018861123d565b61142f608083018761123d565b61143c60a083018661123d565b61144960c08301856113d1565b61145660e08301846113d1565b9998505050505050505050565b5f5f6040838503121561147957611478611265565b5b5f61148685828601611308565b9250506020611497858286016112b3565b9150509250929050565b5f5ffd5b5f5ffd5b5f5ffd5b5f5f83601f8401126114c2576114c16114a1565b5b8235905067ffffffffffffffff8111156114df576114de6114a5565b5b6020830191508360018202830111156114fb576114fa6114a9565b5b9250929050565b5f5f5f5f6060858703121561151a57611519611265565b5b5f85013567ffffffffffffffff81111561153757611536611269565b5b611543878288016114ad565b9450945050602061155687828801611308565b925050604061156787828801611308565b91505092959194509250565b61157c81611234565b82525050565b61158b8161128c565b82525050565b5f82825260208201905092915050565b5f6115ab82611356565b6115b58185611591565b93506115c5818560208601611370565b6115ce8161137e565b840191505092915050565b6115e2816113c6565b82525050565b5f61010083015f8301516115fe5f860182611573565b5060208301516116116020860182611582565b506040830151848203604086015261162982826115a1565b915050606083015161163e6060860182611573565b5060808301516116516080860182611573565b5060a083015161166460a0860182611573565b5060c083015161167760c08601826115d9565b5060e083015161168a60e08601826115d9565b508091505092915050565b5f6020820190508181035f8301526116ad81846115e8565b905092915050565b5f6020820190506116c85f8301846113d1565b92915050565b5f6040820190506116e15f8301856113d1565b6116ee602083018461123d565b9392505050565b5f6020820190506117085f830184611347565b92915050565b7f4e487b71000000000000000000000000000000000000000000000000000000005f52601160045260245ffd5b5f61174582611234565b915061175083611234565b92508282039050818111156117685761176761170e565b5b92915050565b7f4e487b71000000000000000000000000000000000000000000000000000000005f52602260045260245ffd5b5f60028204905060018216806117b257607f821691505b6020821081036117c5576117c461176e565b5b50919050565b7f416c7265616479206f776e20612063616d706169676e000000000000000000005f82015250565b5f6117ff601683611360565b915061180a826117cb565b602082019050919050565b5f6020820190508181035f83015261182c816117f3565b9050919050565b7f456d7074792043494400000000000000000000000000000000000000000000005f82015250565b5f611867600983611360565b915061187282611833565b602082019050919050565b5f6020820190508181035f8301526118948161185b565b9050919050565b7f5072696365206d757374206265203e20300000000000000000000000000000005f82015250565b5f6118cf601183611360565b91506118da8261189b565b602082019050919050565b5f6020820190508181035f8301526118fc816118c3565b9050919050565b7f4475726174696f6e206d757374206265203e20300000000000000000000000005f82015250565b5f611937601483611360565b915061194282611903565b602082019050919050565b5f6020820190508181035f8301526119648161192b565b9050919050565b5f61197582611234565b91507fffffffffffffffffffffffffffffffffffffffffffffffffffffffffffffffff82036119a7576119a661170e565b5b600182019050919050565b7f4e487b71000000000000000000000000000000000000000000000000000000005f52604160045260245ffd5b5f819050815f5260205f209050919050565b5f6020601f8301049050919050565b5f82821b905092915050565b5f60088302611a3b7fffffffffffffffffffffffffffffffffffffffffffffffffffffffffffffffff82611a00565b611a458683611a00565b95508019841693508086168417925050509392505050565b5f819050919050565b5f611a80611a7b611a7684611234565b611a5d565b611234565b9050919050565b5f819050919050565b611a9983611a66565b611aad611aa582611a87565b848454611a0c565b825550505050565b5f5f905090565b611ac4611ab5565b611acf818484611a90565b505050565b5b81811015611af257611ae75f82611abc565b600181019050611ad5565b5050565b601f821115611b3757611b08816119df565b611b11846119f1565b81016020851015611b20578190505b611b34611b2c856119f1565b830182611ad4565b50505b505050565b5f82821c905092915050565b5f611b575f1984600802611b3c565b1980831691505092915050565b5f611b6f8383611b48565b9150826002028217905092915050565b611b8882611356565b67ffffffffffffffff811115611ba157611ba06119b2565b5b611bab825461179b565b611bb6828285611af6565b5f60209050601f831160018114611be7575f8415611bd5578287015190505b611bdf8582611b64565b865550611c46565b601f198416611bf5866119df565b5f5b82811015611c1c57848901518255600182019150602085019450602081019050611bf7565b86831015611c395784890151611c35601f891682611b48565b8355505b6001600288020188555050505b505050505050565b828183375f83830152505050565b5f611c678385611360565b9350611c74838584611c4e565b611c7d8361137e565b840190509392505050565b5f6060820190508181035f830152611ca1818688611c5c565b9050611cb0602083018561123d565b611cbd604083018461123d565b95945050505050565b7f4e6f7420666f756e6400000000000000000000000000000000000000000000005f82015250565b5f611cfa600983611360565b9150611d0582611cc6565b602082019050919050565b5f6020820190508181035f830152611d2781611cee565b9050919050565b7f4e6f74206f776e657200000000000000000000000000000000000000000000005f82015250565b5f611d62600983611360565b9150611d6d82611d2e565b602082019050919050565b5f6020820190508181035f830152611d8f81611d56565b9050919050565b7f416c726561647920696e616374697665000000000000000000000000000000005f82015250565b5f611dca601083611360565b9150611dd582611d96565b602082019050919050565b5f6020820190508181035f830152611df781611dbe565b9050919050565b7f4e6f7420616374697665000000000000000000000000000000000000000000005f82015250565b5f611e32600a83611360565b9150611e3d82611dfe565b602082019050919050565b5f6020820190508181035f830152611e5f81611e26565b9050919050565b7f536f6c64206f75740000000000000000000000000000000000000000000000005f82015250565b5f611e9a600883611360565b9150611ea582611e66565b602082019050919050565b5f6020820190508181035f830152611ec781611e8e565b9050919050565b7f496e73756666696369656e74207061796d656e740000000000000000000000005f82015250565b5f611f02601483611360565b9150611f0d82611ece565b602082019050919050565b5f6020820190508181035f830152611f2f81611ef6565b9050919050565b5f611f4082611234565b9150611f4b83611234565b9250828202611f5981611234565b91508282048414831517611f7057611f6f61170e565b5b5092915050565b7f4e487b71000000000000000000000000000000000000000000000000000000005f52601260045260245ffd5b5f611fae82611234565b9150611fb983611234565b925082611fc957611fc8611f77565b5b828204905092915050565b5f611fde82611234565b9150611fe983611234565b92508282019050808211156120015761200061170e565b5b92915050565b5f60408201905061201a5f83018561123d565b612027602083018461123d565b939250505056fea26469706673582212201fdec48514944de599f29d164d0e3633616239c25208eaf9df122a331265a99064736f6c634300081e0033",
					"opcodes": "PUSH1 0xE0 PUSH1 0x40 MSTORE CALLVALUE DUP1 ISZERO PUSH2 0xF JUMPI PUSH0 PUSH0 REVERT JUMPDEST POP PUSH1 0x40 MLOAD PUSH2 0x239B CODESIZE SUB DUP1 PUSH2 0x239B DUP4 CODECOPY DUP2 DUP2 ADD PUSH1 0x40 MSTORE DUP2 ADD SWAP1 PUSH2 0x31 SWAP2 SWAP1 PUSH2 0x1C8 JUMP JUMPDEST PUSH0 PUSH20 0xFFFFFFFFFFFFFFFFFFFFFFFFFFFFFFFFFFFFFFFF AND DUP4 PUSH20 0xFFFFFFFFFFFFFFFFFFFFFFFFFFFFFFFFFFFFFFFF AND SUB PUSH2 0x9F JUMPI PUSH1 0x40 MLOAD PUSH32 0x8C379A000000000000000000000000000000000000000000000000000000000 DUP2 MSTORE PUSH1 0x4 ADD PUSH2 0x96 SWAP1 PUSH2 0x272 JUMP JUMPDEST PUSH1 0x40 MLOAD DUP1 SWAP2 SUB SWAP1 REVERT JUMPDEST PUSH2 0x1388 DUP3 GT ISZERO PUSH2 0xE4 JUMPI PUSH1 0x40 MLOAD PUSH32 0x8C379A000000000000000000000000000000000000000000000000000000000 DUP2 MSTORE PUSH1 0x4 ADD PUSH2 0xDB SWAP1 PUSH2 0x2DA JUMP JUMPDEST PUSH1 0x40 MLOAD DUP1 SWAP2 SUB SWAP1 REVERT JUMPDEST DUP3 PUSH20 0xFFFFFFFFFFFFFFFFFFFFFFFFFFFFFFFFFFFFFFFF AND PUSH1 0x80 DUP2 PUSH20 0xFFFFFFFFFFFFFFFFFFFFFFFFFFFFFFFFFFFFFFFF AND DUP2 MSTORE POP POP DUP2 PUSH1 0xA0 DUP2 DUP2 MSTORE POP POP DUP1 PUSH1 0xC0 DUP2 DUP2 MSTORE POP POP PUSH1 0x1 PUSH0 DUP2 SWAP1 SSTORE POP POP POP POP PUSH2 0x2F8 JUMP JUMPDEST PUSH0 PUSH0 REVERT JUMPDEST PUSH0 PUSH20 0xFFFFFFFFFFFFFFFFFFFFFFFFFFFFFFFFFFFFFFFF DUP3 AND SWAP1 POP SWAP2 SWAP1 POP JUMP JUMPDEST PUSH0 PUSH2 0x164 DUP3 PUSH2 0x13B JUMP JUMPDEST SWAP1 POP SWAP2 SWAP1 POP JUMP JUMPDEST PUSH2 0x174 DUP2 PUSH2 0x15A JUMP JUMPDEST DUP2 EQ PUSH2 0x17E JUMPI PUSH0 PUSH0 REVERT JUMPDEST POP JUMP JUMPDEST PUSH0 DUP2 MLOAD SWAP1 POP PUSH2 0x18F DUP2 PUSH2 0x16B JUMP JUMPDEST SWAP3 SWAP2 POP POP JUMP JUMPDEST PUSH0 DUP2 SWAP1 POP SWAP2 SWAP1 POP JUMP JUMPDEST PUSH2 0x1A7 DUP2 PUSH2 0x195 JUMP JUMPDEST DUP2 EQ PUSH2 0x1B1 JUMPI PUSH0 PUSH0 REVERT JUMPDEST POP JUMP JUMPDEST PUSH0 DUP2 MLOAD SWAP1 POP PUSH2 0x1C2 DUP2 PUSH2 0x19E JUMP JUMPDEST SWAP3 SWAP2 POP POP JUMP JUMPDEST PUSH0 PUSH0 PUSH0 PUSH1 0x60 DUP5 DUP7 SUB SLT ISZERO PUSH2 0x1DF JUMPI PUSH2 0x1DE PUSH2 0x137 JUMP JUMPDEST JUMPDEST PUSH0 PUSH2 0x1EC DUP7 DUP3 DUP8 ADD PUSH2 0x181 JUMP JUMPDEST SWAP4 POP POP PUSH1 0x20 PUSH2 0x1FD DUP7 DUP3 DUP8 ADD PUSH2 0x1B4 JUMP JUMPDEST SWAP3 POP POP PUSH1 0x40 PUSH2 0x20E DUP7 DUP3 DUP8 ADD PUSH2 0x1B4 JUMP JUMPDEST SWAP2 POP POP SWAP3 POP SWAP3 POP SWAP3 JUMP JUMPDEST PUSH0 DUP3 DUP3 MSTORE PUSH1 0x20 DUP3 ADD SWAP1 POP SWAP3 SWAP2 POP POP JUMP JUMPDEST PUSH32 0x4261642074726561737572790000000000000000000000000000000000000000 PUSH0 DUP3 ADD MSTORE POP JUMP JUMPDEST PUSH0 PUSH2 0x25C PUSH1 0xC DUP4 PUSH2 0x218 JUMP JUMPDEST SWAP2 POP PUSH2 0x267 DUP3 PUSH2 0x228 JUMP JUMPDEST PUSH1 0x20 DUP3 ADD SWAP1 POP SWAP2 SWAP1 POP JUMP JUMPDEST PUSH0 PUSH1 0x20 DUP3 ADD SWAP1 POP DUP2 DUP2 SUB PUSH0 DUP4 ADD MSTORE PUSH2 0x289 DUP2 PUSH2 0x250 JUMP JUMPDEST SWAP1 POP SWAP2 SWAP1 POP JUMP JUMPDEST PUSH32 0x46656520746F6F20686967680000000000000000000000000000000000000000 PUSH0 DUP3 ADD MSTORE POP JUMP JUMPDEST PUSH0 PUSH2 0x2C4 PUSH1 0xC DUP4 PUSH2 0x218 JUMP JUMPDEST SWAP2 POP PUSH2 0x2CF DUP3 PUSH2 0x290 JUMP JUMPDEST PUSH1 0x20 DUP3 ADD SWAP1 POP SWAP2 SWAP1 POP JUMP JUMPDEST PUSH0 PUSH1 0x20 DUP3 ADD SWAP1 POP DUP2 DUP2 SUB PUSH0 DUP4 ADD MSTORE PUSH2 0x2F1 DUP2 PUSH2 0x2B8 JUMP JUMPDEST SWAP1 POP SWAP2 SWAP1 POP JUMP JUMPDEST PUSH1 0x80 MLOAD PUSH1 0xA0 MLOAD PUSH1 0xC0 MLOAD PUSH2 0x2064 PUSH2 0x337 PUSH0 CODECOPY PUSH0 DUP2 DUP2 PUSH2 0x1091 ADD MSTORE PUSH2 0x1139 ADD MSTORE PUSH0 DUP2 DUP2 PUSH2 0x4E1 ADD MSTORE PUSH2 0xDFD ADD MSTORE PUSH0 DUP2 DUP2 PUSH2 0xEAB ADD MSTORE PUSH2 0x11BA ADD MSTORE PUSH2 0x2064 PUSH0 RETURN INVALID PUSH1 0x80 PUSH1 0x40 MSTORE PUSH1 0x4 CALLDATASIZE LT PUSH2 0xDC JUMPI PUSH0 CALLDATALOAD PUSH1 0xE0 SHR DUP1 PUSH4 0x5598F8CC GT PUSH2 0x7E JUMPI DUP1 PUSH4 0xB91D0A2F GT PUSH2 0x58 JUMPI DUP1 PUSH4 0xB91D0A2F EQ PUSH2 0x307 JUMPI DUP1 PUSH4 0xCE546FFA EQ PUSH2 0x323 JUMPI DUP1 PUSH4 0xCED14198 EQ PUSH2 0x34D JUMPI DUP1 PUSH4 0xE138818C EQ PUSH2 0x38A JUMPI PUSH2 0xDC JUMP JUMPDEST DUP1 PUSH4 0x5598F8CC EQ PUSH2 0x267 JUMPI DUP1 PUSH4 0x691F6DF7 EQ PUSH2 0x2A3 JUMPI DUP1 PUSH4 0x7ECA30FE EQ PUSH2 0x2DF JUMPI PUSH2 0xDC JUMP JUMPDEST DUP1 PUSH4 0x22DCD13E GT PUSH2 0xBA JUMPI DUP1 PUSH4 0x22DCD13E EQ PUSH2 0x189 JUMPI DUP1 PUSH4 0x22F850B3 EQ PUSH2 0x1B3 JUMPI DUP1 PUSH4 0x3020580B EQ PUSH2 0x1EF JUMPI DUP1 PUSH4 0x328DF91D EQ PUSH2 0x22B JUMPI PUSH2 0xDC JUMP JUMPDEST DUP1 PUSH4 0x2932F56 EQ PUSH2 0xE0 JUMPI DUP1 PUSH4 0x9F7C6D1 EQ PUSH2 0x10A JUMPI DUP1 PUSH4 0x141961BC EQ PUSH2 0x146 JUMPI JUMPDEST PUSH0 PUSH0 REVERT JUMPDEST CALLVALUE DUP1 ISZERO PUSH2 0xEB JUMPI PUSH0 PUSH0 REVERT JUMPDEST POP PUSH2 0xF4 PUSH2 0x3B4 JUMP JUMPDEST PUSH1 0x40 MLOAD PUSH2 0x101 SWAP2 SWAP1 PUSH2 0x124C JUMP JUMPDEST PUSH1 0x40 MLOAD DUP1 SWAP2 SUB SWAP1 RETURN JUMPDEST CALLVALUE DUP1 ISZERO PUSH2 0x115 JUMPI PUSH0 PUSH0 REVERT JUMPDEST POP PUSH2 0x130 PUSH1 0x4 DUP1 CALLDATASIZE SUB DUP2 ADD SWAP1 PUSH2 0x12B SWAP2 SWAP1 PUSH2 0x12C7 JUMP JUMPDEST PUSH2 0x3C8 JUMP JUMPDEST PUSH1 0x40 MLOAD PUSH2 0x13D SWAP2 SWAP1 PUSH2 0x124C JUMP JUMPDEST PUSH1 0x40 MLOAD DUP1 SWAP2 SUB SWAP1 RETURN JUMPDEST CALLVALUE DUP1 ISZERO PUSH2 0x151 JUMPI PUSH0 PUSH0 REVERT JUMPDEST POP PUSH2 0x16C PUSH1 0x4 DUP1 CALLDATASIZE SUB DUP2 ADD SWAP1 PUSH2 0x167 SWAP2 SWAP1 PUSH2 0x131C JUMP JUMPDEST PUSH2 0x3DD JUMP JUMPDEST PUSH1 0x40 MLOAD PUSH2 0x180 SWAP9 SWAP8 SWAP7 SWAP6 SWAP5 SWAP4 SWAP3 SWAP2 SWAP1 PUSH2 0x13E0 JUMP JUMPDEST PUSH1 0x40 MLOAD DUP1 SWAP2 SUB SWAP1 RETURN JUMPDEST CALLVALUE DUP1 ISZERO PUSH2 0x194 JUMPI PUSH0 PUSH0 REVERT JUMPDEST POP PUSH2 0x19D PUSH2 0x4DF JUMP JUMPDEST PUSH1 0x40 MLOAD PUSH2 0x1AA SWAP2 SWAP1 PUSH2 0x124C JUMP JUMPDEST PUSH1 0x40 MLOAD DUP1 SWAP2 SUB SWAP1 RETURN JUMPDEST CALLVALUE DUP1 ISZERO PUSH2 0x1BE JUMPI PUSH0 PUSH0 REVERT JUMPDEST POP PUSH2 0x1D9 PUSH1 0x4 DUP1 CALLDATASIZE SUB DUP2 ADD SWAP1 PUSH2 0x1D4 SWAP2 SWAP1 PUSH2 0x1463 JUMP JUMPDEST PUSH2 0x503 JUMP JUMPDEST PUSH1 0x40 MLOAD PUSH2 0x1E6 SWAP2 SWAP1 PUSH2 0x124C JUMP JUMPDEST PUSH1 0x40 MLOAD DUP1 SWAP2 SUB SWAP1 RETURN JUMPDEST CALLVALUE DUP1 ISZERO PUSH2 0x1FA JUMPI PUSH0 PUSH0 REVERT JUMPDEST POP PUSH2 0x215 PUSH1 0x4 DUP1 CALLDATASIZE SUB DUP2 ADD SWAP1 PUSH2 0x210 SWAP2 SWAP1 PUSH2 0x1502 JUMP JUMPDEST PUSH2 0x523 JUMP JUMPDEST PUSH1 0x40 MLOAD PUSH2 0x222 SWAP2 SWAP1 PUSH2 0x124C JUMP JUMPDEST PUSH1 0x40 MLOAD DUP1 SWAP2 SUB SWAP1 RETURN JUMPDEST CALLVALUE DUP1 ISZERO PUSH2 0x236 JUMPI PUSH0 PUSH0 REVERT JUMPDEST POP PUSH2 0x251 PUSH1 0x4 DUP1 CALLDATASIZE SUB DUP2 ADD SWAP1 PUSH2 0x24C SWAP2 SWAP1 PUSH2 0x12C7 JUMP JUMPDEST PUSH2 0x8EF JUMP JUMPDEST PUSH1 0x40 MLOAD PUSH2 0x25E SWAP2 SWAP1 PUSH2 0x124C JUMP JUMPDEST PUSH1 0x40 MLOAD DUP1 SWAP2 SUB SWAP1 RETURN JUMPDEST CALLVALUE DUP1 ISZERO PUSH2 0x272 JUMPI PUSH0 PUSH0 REVERT JUMPDEST POP PUSH2 0x28D PUSH1 0x4 DUP1 CALLDATASIZE SUB DUP2 ADD SWAP1 PUSH2 0x288 SWAP2 SWAP1 PUSH2 0x131C JUMP JUMPDEST PUSH2 0x935 JUMP JUMPDEST PUSH1 0x40 MLOAD PUSH2 0x29A SWAP2 SWAP1 PUSH2 0x1695 JUMP JUMPDEST PUSH1 0x40 MLOAD DUP1 SWAP2 SUB SWAP1 RETURN JUMPDEST CALLVALUE DUP1 ISZERO PUSH2 0x2AE JUMPI PUSH0 PUSH0 REVERT JUMPDEST POP PUSH2 0x2C9 PUSH1 0x4 DUP1 CALLDATASIZE SUB DUP2 ADD SWAP1 PUSH2 0x2C4 SWAP2 SWAP1 PUSH2 0x12C7 JUMP JUMPDEST PUSH2 0xAF7 JUMP JUMPDEST PUSH1 0x40 MLOAD PUSH2 0x2D6 SWAP2 SWAP1 PUSH2 0x16B5 JUMP JUMPDEST PUSH1 0x40 MLOAD DUP1 SWAP2 SUB SWAP1 RETURN JUMPDEST CALLVALUE DUP1 ISZERO PUSH2 0x2EA JUMPI PUSH0 PUSH0 REVERT JUMPDEST POP PUSH2 0x305 PUSH1 0x4 DUP1 CALLDATASIZE SUB DUP2 ADD SWAP1 PUSH2 0x300 SWAP2 SWAP1 PUSH2 0x131C JUMP JUMPDEST PUSH2 0xB14 JUMP JUMPDEST STOP JUMPDEST PUSH2 0x321 PUSH1 0x4 DUP1 CALLDATASIZE SUB DUP2 ADD SWAP1 PUSH2 0x31C SWAP2 SWAP1 PUSH2 0x131C JUMP JUMPDEST PUSH2 0xC55 JUMP JUMPDEST STOP JUMPDEST CALLVALUE DUP1 ISZERO PUSH2 0x32E JUMPI PUSH0 PUSH0 REVERT JUMPDEST POP PUSH2 0x337 PUSH2 0x1137 JUMP JUMPDEST PUSH1 0x40 MLOAD PUSH2 0x344 SWAP2 SWAP1 PUSH2 0x124C JUMP JUMPDEST PUSH1 0x40 MLOAD DUP1 SWAP2 SUB SWAP1 RETURN JUMPDEST CALLVALUE DUP1 ISZERO PUSH2 0x358 JUMPI PUSH0 PUSH0 REVERT JUMPDEST POP PUSH2 0x373 PUSH1 0x4 DUP1 CALLDATASIZE SUB DUP2 ADD SWAP1 PUSH2 0x36E SWAP2 SWAP1 PUSH2 0x1463 JUMP JUMPDEST PUSH2 0x115B JUMP JUMPDEST PUSH1 0x40 MLOAD PUSH2 0x381 SWAP3 SWAP2 SWAP1 PUSH2 0x16CE JUMP JUMPDEST PUSH1 0x40 MLOAD DUP1 SWAP2 SUB SWAP1 RETURN JUMPDEST CALLVALUE DUP1 ISZERO PUSH2 0x395 JUMPI PUSH0 PUSH0 REVERT JUMPDEST POP PUSH2 0x39E PUSH2 0x11B8 JUMP JUMPDEST PUSH1 0x40 MLOAD PUSH2 0x3AB SWAP2 SWAP1 PUSH2 0x16F5 JUMP JUMPDEST PUSH1 0x40 MLOAD DUP1 SWAP2 SUB SWAP1 RETURN JUMPDEST PUSH0 PUSH1 0x1 PUSH0 SLOAD PUSH2 0x3C3 SWAP2 SWAP1 PUSH2 0x173B JUMP JUMPDEST SWAP1 POP SWAP1 JUMP JUMPDEST PUSH1 0x3 PUSH1 0x20 MSTORE DUP1 PUSH0 MSTORE PUSH1 0x40 PUSH0 KECCAK256 PUSH0 SWAP2 POP SWAP1 POP SLOAD DUP2 JUMP JUMPDEST PUSH1 0x1 PUSH1 0x20 MSTORE DUP1 PUSH0 MSTORE PUSH1 0x40 PUSH0 KECCAK256 PUSH0 SWAP2 POP SWAP1 POP DUP1 PUSH0 ADD SLOAD SWAP1 DUP1 PUSH1 0x1 ADD PUSH0 SWAP1 SLOAD SWAP1 PUSH2 0x100 EXP SWAP1 DIV PUSH20 0xFFFFFFFFFFFFFFFFFFFFFFFFFFFFFFFFFFFFFFFF AND SWAP1 DUP1 PUSH1 0x2 ADD DUP1 SLOAD PUSH2 0x427 SWAP1 PUSH2 0x179B JUMP JUMPDEST DUP1 PUSH1 0x1F ADD PUSH1 0x20 DUP1 SWAP2 DIV MUL PUSH1 0x20 ADD PUSH1 0x40 MLOAD SWAP1 DUP2 ADD PUSH1 0x40 MSTORE DUP1 SWAP3 SWAP2 SWAP1 DUP2 DUP2 MSTORE PUSH1 0x20 ADD DUP3 DUP1 SLOAD PUSH2 0x453 SWAP1 PUSH2 0x179B JUMP JUMPDEST DUP1 ISZERO PUSH2 0x49E JUMPI DUP1 PUSH1 0x1F LT PUSH2 0x475 JUMPI PUSH2 0x100 DUP1 DUP4 SLOAD DIV MUL DUP4 MSTORE SWAP2 PUSH1 0x20 ADD SWAP2 PUSH2 0x49E JUMP JUMPDEST DUP3 ADD SWAP2 SWAP1 PUSH0 MSTORE PUSH1 0x20 PUSH0 KECCAK256 SWAP1 JUMPDEST DUP2 SLOAD DUP2 MSTORE SWAP1 PUSH1 0x1 ADD SWAP1 PUSH1 0x20 ADD DUP1 DUP4 GT PUSH2 0x481 JUMPI DUP3 SWAP1 SUB PUSH1 0x1F AND DUP3 ADD SWAP2 JUMPDEST POP POP POP POP POP SWAP1 DUP1 PUSH1 0x3 ADD SLOAD SWAP1 DUP1 PUSH1 0x4 ADD SLOAD SWAP1 DUP1 PUSH1 0x5 ADD SLOAD SWAP1 DUP1 PUSH1 0x6 ADD PUSH0 SWAP1 SLOAD SWAP1 PUSH2 0x100 EXP SWAP1 DIV PUSH1 0xFF AND SWAP1 DUP1 PUSH1 0x6 ADD PUSH1 0x1 SWAP1 SLOAD SWAP1 PUSH2 0x100 EXP SWAP1 DIV PUSH1 0xFF AND SWAP1 POP DUP9 JUMP JUMPDEST PUSH32 0x0 DUP2 JUMP JUMPDEST PUSH1 0x4 PUSH1 0x20 MSTORE DUP2 PUSH0 MSTORE PUSH1 0x40 PUSH0 KECCAK256 PUSH1 0x20 MSTORE DUP1 PUSH0 MSTORE PUSH1 0x40 PUSH0 KECCAK256 PUSH0 SWAP2 POP SWAP2 POP POP SLOAD DUP2 JUMP JUMPDEST PUSH0 PUSH1 0x2 PUSH0 CALLER PUSH20 0xFFFFFFFFFFFFFFFFFFFFFFFFFFFFFFFFFFFFFFFF AND PUSH20 0xFFFFFFFFFFFFFFFFFFFFFFFFFFFFFFFFFFFFFFFF AND DUP2 MSTORE PUSH1 0x20 ADD SWAP1 DUP2 MSTORE PUSH1 0x20 ADD PUSH0 KECCAK256 PUSH0 SWAP1 SLOAD SWAP1 PUSH2 0x100 EXP SWAP1 DIV PUSH1 0xFF AND ISZERO PUSH2 0x5AE JUMPI PUSH1 0x40 MLOAD PUSH32 0x8C379A000000000000000000000000000000000000000000000000000000000 DUP2 MSTORE PUSH1 0x4 ADD PUSH2 0x5A5 SWAP1 PUSH2 0x1815 JUMP JUMPDEST PUSH1 0x40 MLOAD DUP1 SWAP2 SUB SWAP1 REVERT JUMPDEST PUSH0 DUP6 DUP6 SWAP1 POP GT PUSH2 0x5F3 JUMPI PUSH1 0x40 MLOAD PUSH32 0x8C379A000000000000000000000000000000000000000000000000000000000 DUP2 MSTORE PUSH1 0x4 ADD PUSH2 0x5EA SWAP1 PUSH2 0x187D JUMP JUMPDEST PUSH1 0x40 MLOAD DUP1 SWAP2 SUB SWAP1 REVERT JUMPDEST PUSH0 DUP4 GT PUSH2 0x635 JUMPI PUSH1 0x40 MLOAD PUSH32 0x8C379A000000000000000000000000000000000000000000000000000000000 DUP2 MSTORE PUSH1 0x4 ADD PUSH2 0x62C SWAP1 PUSH2 0x18E5 JUMP JUMPDEST PUSH1 0x40 MLOAD DUP1 SWAP2 SUB SWAP1 REVERT JUMPDEST PUSH0 DUP3 GT PUSH2 0x677 JUMPI PUSH1 0x40 MLOAD PUSH32 0x8C379A000000000000000000000000000000000000000000000000000000000 DUP2 MSTORE PUSH1 0x4 ADD PUSH2 0x66E SWAP1 PUSH2 0x194D JUMP JUMPDEST PUSH1 0x40 MLOAD DUP1 SWAP2 SUB SWAP1 REVERT JUMPDEST PUSH0 PUSH0 DUP2 SLOAD DUP1 SWAP3 SWAP2 SWAP1 PUSH2 0x688 SWAP1 PUSH2 0x196B JUMP JUMPDEST SWAP2 SWAP1 POP SSTORE SWAP1 POP PUSH1 0x40 MLOAD DUP1 PUSH2 0x100 ADD PUSH1 0x40 MSTORE DUP1 DUP3 DUP2 MSTORE PUSH1 0x20 ADD CALLER PUSH20 0xFFFFFFFFFFFFFFFFFFFFFFFFFFFFFFFFFFFFFFFF AND DUP2 MSTORE PUSH1 0x20 ADD DUP7 DUP7 DUP1 DUP1 PUSH1 0x1F ADD PUSH1 0x20 DUP1 SWAP2 DIV MUL PUSH1 0x20 ADD PUSH1 0x40 MLOAD SWAP1 DUP2 ADD PUSH1 0x40 MSTORE DUP1 SWAP4 SWAP3 SWAP2 SWAP1 DUP2 DUP2 MSTORE PUSH1 0x20 ADD DUP4 DUP4 DUP1 DUP3 DUP5 CALLDATACOPY PUSH0 DUP2 DUP5 ADD MSTORE PUSH1 0x1F NOT PUSH1 0x1F DUP3 ADD AND SWAP1 POP DUP1 DUP4 ADD SWAP3 POP POP POP POP POP POP POP DUP2 MSTORE PUSH1 0x20 ADD DUP5 DUP2 MSTORE PUSH1 0x20 ADD DUP4 DUP2 MSTORE PUSH1 0x20 ADD PUSH0 DUP2 MSTORE PUSH1 0x20 ADD PUSH1 0x1 ISZERO ISZERO DUP2 MSTORE PUSH1 0x20 ADD PUSH0 ISZERO ISZERO DUP2 MSTORE POP PUSH1 0x1 PUSH0 DUP4 DUP2 MSTORE PUSH1 0x20 ADD SWAP1 DUP2 MSTORE PUSH1 0x20 ADD PUSH0 KECCAK256 PUSH0 DUP3 ADD MLOAD DUP2 PUSH0 ADD SSTORE PUSH1 0x20 DUP3 ADD MLOAD DUP2 PUSH1 0x1 ADD PUSH0 PUSH2 0x100 EXP DUP2 SLOAD DUP2 PUSH20 0xFFFFFFFFFFFFFFFFFFFFFFFFFFFFFFFFFFFFFFFF MUL NOT AND SWAP1 DUP4 PUSH20 0xFFFFFFFFFFFFFFFFFFFFFFFFFFFFFFFFFFFFFFFF AND MUL OR SWAP1 SSTORE POP PUSH1 0x40 DUP3 ADD MLOAD DUP2 PUSH1 0x2 ADD SWAP1 DUP2 PUSH2 0x79A SWAP2 SWAP1 PUSH2 0x1B7F JUMP JUMPDEST POP PUSH1 0x60 DUP3 ADD MLOAD DUP2 PUSH1 0x3 ADD SSTORE PUSH1 0x80 DUP3 ADD MLOAD DUP2 PUSH1 0x4 ADD SSTORE PUSH1 0xA0 DUP3 ADD MLOAD DUP2 PUSH1 0x5 ADD SSTORE PUSH1 0xC0 DUP3 ADD MLOAD DUP2 PUSH1 0x6 ADD PUSH0 PUSH2 0x100 EXP DUP2 SLOAD DUP2 PUSH1 0xFF MUL NOT AND SWAP1 DUP4 ISZERO ISZERO MUL OR SWAP1 SSTORE POP PUSH1 0xE0 DUP3 ADD MLOAD DUP2 PUSH1 0x6 ADD PUSH1 0x1 PUSH2 0x100 EXP DUP2 SLOAD DUP2 PUSH1 0xFF MUL NOT AND SWAP1 DUP4 ISZERO ISZERO MUL OR SWAP1 SSTORE POP SWAP1 POP POP PUSH1 0x1 PUSH1 0x2 PUSH0 CALLER PUSH20 0xFFFFFFFFFFFFFFFFFFFFFFFFFFFFFFFFFFFFFFFF AND PUSH20 0xFFFFFFFFFFFFFFFFFFFFFFFFFFFFFFFFFFFFFFFF AND DUP2 MSTORE PUSH1 0x20 ADD SWAP1 DUP2 MSTORE PUSH1 0x20 ADD PUSH0 KECCAK256 PUSH0 PUSH2 0x100 EXP DUP2 SLOAD DUP2 PUSH1 0xFF MUL NOT AND SWAP1 DUP4 ISZERO ISZERO MUL OR SWAP1 SSTORE POP DUP1 PUSH1 0x3 PUSH0 CALLER PUSH20 0xFFFFFFFFFFFFFFFFFFFFFFFFFFFFFFFFFFFFFFFF AND PUSH20 0xFFFFFFFFFFFFFFFFFFFFFFFFFFFFFFFFFFFFFFFF AND DUP2 MSTORE PUSH1 0x20 ADD SWAP1 DUP2 MSTORE PUSH1 0x20 ADD PUSH0 KECCAK256 DUP2 SWAP1 SSTORE POP CALLER PUSH20 0xFFFFFFFFFFFFFFFFFFFFFFFFFFFFFFFFFFFFFFFF AND DUP2 PUSH32 0xDC26653AF5B99B2DA33E2AD69EE6600D9AECCC82B034501DB4338309615CA238 DUP8 DUP8 DUP8 DUP8 PUSH1 0x40 MLOAD PUSH2 0x8DF SWAP5 SWAP4 SWAP3 SWAP2 SWAP1 PUSH2 0x1C88 JUMP JUMPDEST PUSH1 0x40 MLOAD DUP1 SWAP2 SUB SWAP1 LOG3 SWAP5 SWAP4 POP POP POP POP JUMP JUMPDEST PUSH0 PUSH1 0x3 PUSH0 DUP4 PUSH20 0xFFFFFFFFFFFFFFFFFFFFFFFFFFFFFFFFFFFFFFFF AND PUSH20 0xFFFFFFFFFFFFFFFFFFFFFFFFFFFFFFFFFFFFFFFF AND DUP2 MSTORE PUSH1 0x20 ADD SWAP1 DUP2 MSTORE PUSH1 0x20 ADD PUSH0 KECCAK256 SLOAD SWAP1 POP SWAP2 SWAP1 POP JUMP JUMPDEST PUSH2 0x93D PUSH2 0x11DC JUMP JUMPDEST PUSH0 PUSH1 0x1 PUSH0 DUP5 DUP2 MSTORE PUSH1 0x20 ADD SWAP1 DUP2 MSTORE PUSH1 0x20 ADD PUSH0 KECCAK256 PUSH0 ADD SLOAD SUB PUSH2 0x992 JUMPI PUSH1 0x40 MLOAD PUSH32 0x8C379A000000000000000000000000000000000000000000000000000000000 DUP2 MSTORE PUSH1 0x4 ADD PUSH2 0x989 SWAP1 PUSH2 0x1D10 JUMP JUMPDEST PUSH1 0x40 MLOAD DUP1 SWAP2 SUB SWAP1 REVERT JUMPDEST PUSH1 0x1 PUSH0 DUP4 DUP2 MSTORE PUSH1 0x20 ADD SWAP1 DUP2 MSTORE PUSH1 0x20 ADD PUSH0 KECCAK256 PUSH1 0x40 MLOAD DUP1 PUSH2 0x100 ADD PUSH1 0x40 MSTORE SWAP1 DUP2 PUSH0 DUP3 ADD SLOAD DUP2 MSTORE PUSH1 0x20 ADD PUSH1 0x1 DUP3 ADD PUSH0 SWAP1 SLOAD SWAP1 PUSH2 0x100 EXP SWAP1 DIV PUSH20 0xFFFFFFFFFFFFFFFFFFFFFFFFFFFFFFFFFFFFFFFF AND PUSH20 0xFFFFFFFFFFFFFFFFFFFFFFFFFFFFFFFFFFFFFFFF AND PUSH20 0xFFFFFFFFFFFFFFFFFFFFFFFFFFFFFFFFFFFFFFFF AND DUP2 MSTORE PUSH1 0x20 ADD PUSH1 0x2 DUP3 ADD DUP1 SLOAD PUSH2 0xA1D SWAP1 PUSH2 0x179B JUMP JUMPDEST DUP1 PUSH1 0x1F ADD PUSH1 0x20 DUP1 SWAP2 DIV MUL PUSH1 0x20 ADD PUSH1 0x40 MLOAD SWAP1 DUP2 ADD PUSH1 0x40 MSTORE DUP1 SWAP3 SWAP2 SWAP1 DUP2 DUP2 MSTORE PUSH1 0x20 ADD DUP3 DUP1 SLOAD PUSH2 0xA49 SWAP1 PUSH2 0x179B JUMP JUMPDEST DUP1 ISZERO PUSH2 0xA94 JUMPI DUP1 PUSH1 0x1F LT PUSH2 0xA6B JUMPI PUSH2 0x100 DUP1 DUP4 SLOAD DIV MUL DUP4 MSTORE SWAP2 PUSH1 0x20 ADD SWAP2 PUSH2 0xA94 JUMP JUMPDEST DUP3 ADD SWAP2 SWAP1 PUSH0 MSTORE PUSH1 0x20 PUSH0 KECCAK256 SWAP1 JUMPDEST DUP2 SLOAD DUP2 MSTORE SWAP1 PUSH1 0x1 ADD SWAP1 PUSH1 0x20 ADD DUP1 DUP4 GT PUSH2 0xA77 JUMPI DUP3 SWAP1 SUB PUSH1 0x1F AND DUP3 ADD SWAP2 JUMPDEST POP POP POP POP POP DUP2 MSTORE PUSH1 0x20 ADD PUSH1 0x3 DUP3 ADD SLOAD DUP2 MSTORE PUSH1 0x20 ADD PUSH1 0x4 DUP3 ADD SLOAD DUP2 MSTORE PUSH1 0x20 ADD PUSH1 0x5 DUP3 ADD SLOAD DUP2 MSTORE PUSH1 0x20 ADD PUSH1 0x6 DUP3 ADD PUSH0 SWAP1 SLOAD SWAP1 PUSH2 0x100 EXP SWAP1 DIV PUSH1 0xFF AND ISZERO ISZERO ISZERO ISZERO DUP2 MSTORE PUSH1 0x20 ADD PUSH1 0x6 DUP3 ADD PUSH1 0x1 SWAP1 SLOAD SWAP1 PUSH2 0x100 EXP SWAP1 DIV PUSH1 0xFF AND ISZERO ISZERO ISZERO ISZERO DUP2 MSTORE POP POP SWAP1 POP SWAP2 SWAP1 POP JUMP JUMPDEST PUSH1 0x2 PUSH1 0x20 MSTORE DUP1 PUSH0 MSTORE PUSH1 0x40 PUSH0 KECCAK256 PUSH0 SWAP2 POP SLOAD SWAP1 PUSH2 0x100 EXP SWAP1 DIV PUSH1 0xFF AND DUP2 JUMP JUMPDEST PUSH0 PUSH1 0x1 PUSH0 DUP4 DUP2 MSTORE PUSH1 0x20 ADD SWAP1 DUP2 MSTORE PUSH1 0x20 ADD PUSH0 KECCAK256 SWAP1 POP CALLER PUSH20 0xFFFFFFFFFFFFFFFFFFFFFFFFFFFFFFFFFFFFFFFF AND DUP2 PUSH1 0x1 ADD PUSH0 SWAP1 SLOAD SWAP1 PUSH2 0x100 EXP SWAP1 DIV PUSH20 0xFFFFFFFFFFFFFFFFFFFFFFFFFFFFFFFFFFFFFFFF AND PUSH20 0xFFFFFFFFFFFFFFFFFFFFFFFFFFFFFFFFFFFFFFFF AND EQ PUSH2 0xBB9 JUMPI PUSH1 0x40 MLOAD PUSH32 0x8C379A000000000000000000000000000000000000000000000000000000000 DUP2 MSTORE PUSH1 0x4 ADD PUSH2 0xBB0 SWAP1 PUSH2 0x1D78 JUMP JUMPDEST PUSH1 0x40 MLOAD DUP1 SWAP2 SUB SWAP1 REVERT JUMPDEST DUP1 PUSH1 0x6 ADD PUSH0 SWAP1 SLOAD SWAP1 PUSH2 0x100 EXP SWAP1 DIV PUSH1 0xFF AND PUSH2 0xC09 JUMPI PUSH1 0x40 MLOAD PUSH32 0x8C379A000000000000000000000000000000000000000000000000000000000 DUP2 MSTORE PUSH1 0x4 ADD PUSH2 0xC00 SWAP1 PUSH2 0x1DE0 JUMP JUMPDEST PUSH1 0x40 MLOAD DUP1 SWAP2 SUB SWAP1 REVERT JUMPDEST PUSH0 DUP2 PUSH1 0x6 ADD PUSH0 PUSH2 0x100 EXP DUP2 SLOAD DUP2 PUSH1 0xFF MUL NOT AND SWAP1 DUP4 ISZERO ISZERO MUL OR SWAP1 SSTORE POP DUP2 PUSH32 0xA8AD368DE07A46B4C9632FEE456E1227F02E971F82939D68BD4696B2E378DFA7 PUSH1 0x40 MLOAD PUSH1 0x40 MLOAD DUP1 SWAP2 SUB SWAP1 LOG2 POP POP JUMP JUMPDEST PUSH0 PUSH1 0x1 PUSH0 DUP4 DUP2 MSTORE PUSH1 0x20 ADD SWAP1 DUP2 MSTORE PUSH1 0x20 ADD PUSH0 KECCAK256 SWAP1 POP PUSH0 DUP2 PUSH0 ADD SLOAD SUB PUSH2 0xCAE JUMPI PUSH1 0x40 MLOAD PUSH32 0x8C379A000000000000000000000000000000000000000000000000000000000 DUP2 MSTORE PUSH1 0x4 ADD PUSH2 0xCA5 SWAP1 PUSH2 0x1D10 JUMP JUMPDEST PUSH1 0x40 MLOAD DUP1 SWAP2 SUB SWAP1 REVERT JUMPDEST DUP1 PUSH1 0x6 ADD PUSH0 SWAP1 SLOAD SWAP1 PUSH2 0x100 EXP SWAP1 DIV PUSH1 0xFF AND PUSH2 0xCFE JUMPI PUSH1 0x40 MLOAD PUSH32 0x8C379A000000000000000000000000000000000000000000000000000000000 DUP2 MSTORE PUSH1 0x4 ADD PUSH2 0xCF5 SWAP1 PUSH2 0x1E48 JUMP JUMPDEST PUSH1 0x40 MLOAD DUP1 SWAP2 SUB SWAP1 REVERT JUMPDEST DUP1 PUSH1 0x6 ADD PUSH1 0x1 SWAP1 SLOAD SWAP1 PUSH2 0x100 EXP SWAP1 DIV PUSH1 0xFF AND ISZERO PUSH2 0xD50 JUMPI PUSH1 0x40 MLOAD PUSH32 0x8C379A000000000000000000000000000000000000000000000000000000000 DUP2 MSTORE PUSH1 0x4 ADD PUSH2 0xD47 SWAP1 PUSH2 0x1EB0 JUMP JUMPDEST PUSH1 0x40 MLOAD DUP1 SWAP2 SUB SWAP1 REVERT JUMPDEST DUP1 PUSH1 0x3 ADD SLOAD CALLVALUE LT ISZERO PUSH2 0xD97 JUMPI PUSH1 0x40 MLOAD PUSH32 0x8C379A000000000000000000000000000000000000000000000000000000000 DUP2 MSTORE PUSH1 0x4 ADD PUSH2 0xD8E SWAP1 PUSH2 0x1F18 JUMP JUMPDEST PUSH1 0x40 MLOAD DUP1 SWAP2 SUB SWAP1 REVERT JUMPDEST PUSH0 DUP2 PUSH1 0x3 ADD SLOAD SWAP1 POP DUP1 CALLVALUE GT ISZERO PUSH2 0xDF7 JUMPI CALLER PUSH20 0xFFFFFFFFFFFFFFFFFFFFFFFFFFFFFFFFFFFFFFFF AND PUSH2 0x8FC DUP3 CALLVALUE PUSH2 0xDCD SWAP2 SWAP1 PUSH2 0x173B JUMP JUMPDEST SWAP1 DUP2 ISZERO MUL SWAP1 PUSH1 0x40 MLOAD PUSH0 PUSH1 0x40 MLOAD DUP1 DUP4 SUB DUP2 DUP6 DUP9 DUP9 CALL SWAP4 POP POP POP POP ISZERO DUP1 ISZERO PUSH2 0xDF5 JUMPI RETURNDATASIZE PUSH0 PUSH0 RETURNDATACOPY RETURNDATASIZE PUSH0 REVERT JUMPDEST POP JUMPDEST PUSH0 PUSH2 0x2710 PUSH32 0x0 DUP4 PUSH2 0xE27 SWAP2 SWAP1 PUSH2 0x1F36 JUMP JUMPDEST PUSH2 0xE31 SWAP2 SWAP1 PUSH2 0x1FA4 JUMP JUMPDEST SWAP1 POP PUSH0 DUP2 DUP4 PUSH2 0xE40 SWAP2 SWAP1 PUSH2 0x173B JUMP JUMPDEST SWAP1 POP DUP4 PUSH1 0x1 ADD PUSH0 SWAP1 SLOAD SWAP1 PUSH2 0x100 EXP SWAP1 DIV PUSH20 0xFFFFFFFFFFFFFFFFFFFFFFFFFFFFFFFFFFFFFFFF AND PUSH20 0xFFFFFFFFFFFFFFFFFFFFFFFFFFFFFFFFFFFFFFFF AND PUSH2 0x8FC DUP3 SWAP1 DUP2 ISZERO MUL SWAP1 PUSH1 0x40 MLOAD PUSH0 PUSH1 0x40 MLOAD DUP1 DUP4 SUB DUP2 DUP6 DUP9 DUP9 CALL SWAP4 POP POP POP POP ISZERO DUP1 ISZERO PUSH2 0xEA8 JUMPI RETURNDATASIZE PUSH0 PUSH0 RETURNDATACOPY RETURNDATASIZE PUSH0 REVERT JUMPDEST POP PUSH32 0x0 PUSH20 0xFFFFFFFFFFFFFFFFFFFFFFFFFFFFFFFFFFFFFFFF AND PUSH2 0x8FC DUP4 SWAP1 DUP2 ISZERO MUL SWAP1 PUSH1 0x40 MLOAD PUSH0 PUSH1 0x40 MLOAD DUP1 DUP4 SUB DUP2 DUP6 DUP9 DUP9 CALL SWAP4 POP POP POP POP ISZERO DUP1 ISZERO PUSH2 0xF0C JUMPI RETURNDATASIZE PUSH0 PUSH0 RETURNDATACOPY RETURNDATASIZE PUSH0 REVERT JUMPDEST POP PUSH0 DUP5 PUSH1 0x4 ADD SLOAD TIMESTAMP PUSH2 0xF1E SWAP2 SWAP1 PUSH2 0x1FD4 JUMP JUMPDEST SWAP1 POP TIMESTAMP PUSH1 0x4 PUSH0 DUP9 DUP2 MSTORE PUSH1 0x20 ADD SWAP1 DUP2 MSTORE PUSH1 0x20 ADD PUSH0 KECCAK256 PUSH0 CALLER PUSH20 0xFFFFFFFFFFFFFFFFFFFFFFFFFFFFFFFFFFFFFFFF AND PUSH20 0xFFFFFFFFFFFFFFFFFFFFFFFFFFFFFFFFFFFFFFFF AND DUP2 MSTORE PUSH1 0x20 ADD SWAP1 DUP2 MSTORE PUSH1 0x20 ADD PUSH0 KECCAK256 SLOAD GT ISZERO PUSH2 0xFD3 JUMPI DUP5 PUSH1 0x4 ADD SLOAD PUSH1 0x4 PUSH0 DUP9 DUP2 MSTORE PUSH1 0x20 ADD SWAP1 DUP2 MSTORE PUSH1 0x20 ADD PUSH0 KECCAK256 PUSH0 CALLER PUSH20 0xFFFFFFFFFFFFFFFFFFFFFFFFFFFFFFFFFFFFFFFF AND PUSH20 0xFFFFFFFFFFFFFFFFFFFFFFFFFFFFFFFFFFFFFFFF AND DUP2 MSTORE PUSH1 0x20 ADD SWAP1 DUP2 MSTORE PUSH1 0x20 ADD PUSH0 KECCAK256 SLOAD PUSH2 0xFD0 SWAP2 SWAP1 PUSH2 0x1FD4 JUMP JUMPDEST SWAP1 POP JUMPDEST DUP1 PUSH1 0x4 PUSH0 DUP9 DUP2 MSTORE PUSH1 0x20 ADD SWAP1 DUP2 MSTORE PUSH1 0x20 ADD PUSH0 KECCAK256 PUSH0 CALLER PUSH20 0xFFFFFFFFFFFFFFFFFFFFFFFFFFFFFFFFFFFFFFFF AND PUSH20 0xFFFFFFFFFFFFFFFFFFFFFFFFFFFFFFFFFFFFFFFF AND DUP2 MSTORE PUSH1 0x20 ADD SWAP1 DUP2 MSTORE PUSH1 0x20 ADD PUSH0 KECCAK256 DUP2 SWAP1 SSTORE POP DUP4 DUP6 PUSH1 0x5 ADD PUSH0 DUP3 DUP3 SLOAD PUSH2 0x1037 SWAP2 SWAP1 PUSH2 0x1FD4 JUMP JUMPDEST SWAP3 POP POP DUP2 SWAP1 SSTORE POP CALLER PUSH20 0xFFFFFFFFFFFFFFFFFFFFFFFFFFFFFFFFFFFFFFFF AND DUP7 PUSH32 0x79F205D05E1D9F99A7E4A6D2E5D9FC75C372C7033D239FEFE5E5DEC18D472BD9 DUP7 DUP5 PUSH1 0x40 MLOAD PUSH2 0x1087 SWAP3 SWAP2 SWAP1 PUSH2 0x2007 JUMP JUMPDEST PUSH1 0x40 MLOAD DUP1 SWAP2 SUB SWAP1 LOG3 PUSH32 0x0 DUP6 PUSH1 0x5 ADD SLOAD LT PUSH2 0x112F JUMPI PUSH1 0x1 DUP6 PUSH1 0x6 ADD PUSH1 0x1 PUSH2 0x100 EXP DUP2 SLOAD DUP2 PUSH1 0xFF MUL NOT AND SWAP1 DUP4 ISZERO ISZERO MUL OR SWAP1 SSTORE POP PUSH0 DUP6 PUSH1 0x6 ADD PUSH0 PUSH2 0x100 EXP DUP2 SLOAD DUP2 PUSH1 0xFF MUL NOT AND SWAP1 DUP4 ISZERO ISZERO MUL OR SWAP1 SSTORE POP DUP6 PUSH32 0x428863F46F1C52B568C5A1C58DB93B0EFAA495735CE458976E47AC5D38B36C51 DUP7 PUSH1 0x5 ADD SLOAD PUSH1 0x40 MLOAD PUSH2 0x1126 SWAP2 SWAP1 PUSH2 0x124C JUMP JUMPDEST PUSH1 0x40 MLOAD DUP1 SWAP2 SUB SWAP1 LOG2 JUMPDEST POP POP POP POP POP POP JUMP JUMPDEST PUSH32 0x0 DUP2 JUMP JUMPDEST PUSH0 PUSH0 PUSH1 0x4 PUSH0 DUP6 DUP2 MSTORE PUSH1 0x20 ADD SWAP1 DUP2 MSTORE PUSH1 0x20 ADD PUSH0 KECCAK256 PUSH0 DUP5 PUSH20 0xFFFFFFFFFFFFFFFFFFFFFFFFFFFFFFFFFFFFFFFF AND PUSH20 0xFFFFFFFFFFFFFFFFFFFFFFFFFFFFFFFFFFFFFFFF AND DUP2 MSTORE PUSH1 0x20 ADD SWAP1 DUP2 MSTORE PUSH1 0x20 ADD PUSH0 KECCAK256 SLOAD SWAP1 POP TIMESTAMP DUP2 GT SWAP2 POP SWAP3 POP SWAP3 SWAP1 POP JUMP JUMPDEST PUSH32 0x0 DUP2 JUMP JUMPDEST PUSH1 0x40 MLOAD DUP1 PUSH2 0x100 ADD PUSH1 0x40 MSTORE DUP1 PUSH0 DUP2 MSTORE PUSH1 0x20 ADD PUSH0 PUSH20 0xFFFFFFFFFFFFFFFFFFFFFFFFFFFFFFFFFFFFFFFF AND DUP2 MSTORE PUSH1 0x20 ADD PUSH1 0x60 DUP2 MSTORE PUSH1 0x20 ADD PUSH0 DUP2 MSTORE PUSH1 0x20 ADD PUSH0 DUP2 MSTORE PUSH1 0x20 ADD PUSH0 DUP2 MSTORE PUSH1 0x20 ADD PUSH0 ISZERO ISZERO DUP2 MSTORE PUSH1 0x20 ADD PUSH0 ISZERO ISZERO DUP2 MSTORE POP SWAP1 JUMP JUMPDEST PUSH0 DUP2 SWAP1 POP SWAP2 SWAP1 POP JUMP JUMPDEST PUSH2 0x1246 DUP2 PUSH2 0x1234 JUMP JUMPDEST DUP3 MSTORE POP POP JUMP JUMPDEST PUSH0 PUSH1 0x20 DUP3 ADD SWAP1 POP PUSH2 0x125F PUSH0 DUP4 ADD DUP5 PUSH2 0x123D JUMP JUMPDEST SWAP3 SWAP2 POP POP JUMP JUMPDEST PUSH0 PUSH0 REVERT JUMPDEST PUSH0 PUSH0 REVERT JUMPDEST PUSH0 PUSH20 0xFFFFFFFFFFFFFFFFFFFFFFFFFFFFFFFFFFFFFFFF DUP3 AND SWAP1 POP SWAP2 SWAP1 POP JUMP JUMPDEST PUSH0 PUSH2 0x1296 DUP3 PUSH2 0x126D JUMP JUMPDEST SWAP1 POP SWAP2 SWAP1 POP JUMP JUMPDEST PUSH2 0x12A6 DUP2 PUSH2 0x128C JUMP JUMPDEST DUP2 EQ PUSH2 0x12B0 JUMPI PUSH0 PUSH0 REVERT JUMPDEST POP JUMP JUMPDEST PUSH0 DUP2 CALLDATALOAD SWAP1 POP PUSH2 0x12C1 DUP2 PUSH2 0x129D JUMP JUMPDEST SWAP3 SWAP2 POP POP JUMP JUMPDEST PUSH0 PUSH1 0x20 DUP3 DUP5 SUB SLT ISZERO PUSH2 0x12DC JUMPI PUSH2 0x12DB PUSH2 0x1265 JUMP JUMPDEST JUMPDEST PUSH0 PUSH2 0x12E9 DUP5 DUP3 DUP6 ADD PUSH2 0x12B3 JUMP JUMPDEST SWAP2 POP POP SWAP3 SWAP2 POP POP JUMP JUMPDEST PUSH2 0x12FB DUP2 PUSH2 0x1234 JUMP JUMPDEST DUP2 EQ PUSH2 0x1305 JUMPI PUSH0 PUSH0 REVERT JUMPDEST POP JUMP JUMPDEST PUSH0 DUP2 CALLDATALOAD SWAP1 POP PUSH2 0x1316 DUP2 PUSH2 0x12F2 JUMP JUMPDEST SWAP3 SWAP2 POP POP JUMP JUMPDEST PUSH0 PUSH1 0x20 DUP3 DUP5 SUB SLT ISZERO PUSH2 0x1331 JUMPI PUSH2 0x1330 PUSH2 0x1265 JUMP JUMPDEST JUMPDEST PUSH0 PUSH2 0x133E DUP5 DUP3 DUP6 ADD PUSH2 0x1308 JUMP JUMPDEST SWAP2 POP POP SWAP3 SWAP2 POP POP JUMP JUMPDEST PUSH2 0x1350 DUP2 PUSH2 0x128C JUMP JUMPDEST DUP3 MSTORE POP POP JUMP JUMPDEST PUSH0 DUP2 MLOAD SWAP1 POP SWAP2 SWAP1 POP JUMP JUMPDEST PUSH0 DUP3 DUP3 MSTORE PUSH1 0x20 DUP3 ADD SWAP1 POP SWAP3 SWAP2 POP POP JUMP JUMPDEST DUP3 DUP2 DUP4 MCOPY PUSH0 DUP4 DUP4 ADD MSTORE POP POP POP JUMP JUMPDEST PUSH0 PUSH1 0x1F NOT PUSH1 0x1F DUP4 ADD AND SWAP1 POP SWAP2 SWAP1 POP JUMP JUMPDEST PUSH0 PUSH2 0x1398 DUP3 PUSH2 0x1356 JUMP JUMPDEST PUSH2 0x13A2 DUP2 DUP6 PUSH2 0x1360 JUMP JUMPDEST SWAP4 POP PUSH2 0x13B2 DUP2 DUP6 PUSH1 0x20 DUP7 ADD PUSH2 0x1370 JUMP JUMPDEST PUSH2 0x13BB DUP2 PUSH2 0x137E JUMP JUMPDEST DUP5 ADD SWAP2 POP POP SWAP3 SWAP2 POP POP JUMP JUMPDEST PUSH0 DUP2 ISZERO ISZERO SWAP1 POP SWAP2 SWAP1 POP JUMP JUMPDEST PUSH2 0x13DA DUP2 PUSH2 0x13C6 JUMP JUMPDEST DUP3 MSTORE POP POP JUMP JUMPDEST PUSH0 PUSH2 0x100 DUP3 ADD SWAP1 POP PUSH2 0x13F4 PUSH0 DUP4 ADD DUP12 PUSH2 0x123D JUMP JUMPDEST PUSH2 0x1401 PUSH1 0x20 DUP4 ADD DUP11 PUSH2 0x1347 JUMP JUMPDEST DUP2 DUP2 SUB PUSH1 0x40 DUP4 ADD MSTORE PUSH2 0x1413 DUP2 DUP10 PUSH2 0x138E JUMP JUMPDEST SWAP1 POP PUSH2 0x1422 PUSH1 0x60 DUP4 ADD DUP9 PUSH2 0x123D JUMP JUMPDEST PUSH2 0x142F PUSH1 0x80 DUP4 ADD DUP8 PUSH2 0x123D JUMP JUMPDEST PUSH2 0x143C PUSH1 0xA0 DUP4 ADD DUP7 PUSH2 0x123D JUMP JUMPDEST PUSH2 0x1449 PUSH1 0xC0 DUP4 ADD DUP6 PUSH2 0x13D1 JUMP JUMPDEST PUSH2 0x1456 PUSH1 0xE0 DUP4 ADD DUP5 PUSH2 0x13D1 JUMP JUMPDEST SWAP10 SWAP9 POP POP POP POP POP POP POP POP POP JUMP JUMPDEST PUSH0 PUSH0 PUSH1 0x40 DUP4 DUP6 SUB SLT ISZERO PUSH2 0x1479 JUMPI PUSH2 0x1478 PUSH2 0x1265 JUMP JUMPDEST JUMPDEST PUSH0 PUSH2 0x1486 DUP6 DUP3 DUP7 ADD PUSH2 0x1308 JUMP JUMPDEST SWAP3 POP POP PUSH1 0x20 PUSH2 0x1497 DUP6 DUP3 DUP7 ADD PUSH2 0x12B3 JUMP JUMPDEST SWAP2 POP POP SWAP3 POP SWAP3 SWAP1 POP JUMP JUMPDEST PUSH0 PUSH0 REVERT JUMPDEST PUSH0 PUSH0 REVERT JUMPDEST PUSH0 PUSH0 REVERT JUMPDEST PUSH0 PUSH0 DUP4 PUSH1 0x1F DUP5 ADD SLT PUSH2 0x14C2 JUMPI PUSH2 0x14C1 PUSH2 0x14A1 JUMP JUMPDEST JUMPDEST DUP3 CALLDATALOAD SWAP1 POP PUSH8 0xFFFFFFFFFFFFFFFF DUP2 GT ISZERO PUSH2 0x14DF JUMPI PUSH2 0x14DE PUSH2 0x14A5 JUMP JUMPDEST JUMPDEST PUSH1 0x20 DUP4 ADD SWAP2 POP DUP4 PUSH1 0x1 DUP3 MUL DUP4 ADD GT ISZERO PUSH2 0x14FB JUMPI PUSH2 0x14FA PUSH2 0x14A9 JUMP JUMPDEST JUMPDEST SWAP3 POP SWAP3 SWAP1 POP JUMP JUMPDEST PUSH0 PUSH0 PUSH0 PUSH0 PUSH1 0x60 DUP6 DUP8 SUB SLT ISZERO PUSH2 0x151A JUMPI PUSH2 0x1519 PUSH2 0x1265 JUMP JUMPDEST JUMPDEST PUSH0 DUP6 ADD CALLDATALOAD PUSH8 0xFFFFFFFFFFFFFFFF DUP2 GT ISZERO PUSH2 0x1537 JUMPI PUSH2 0x1536 PUSH2 0x1269 JUMP JUMPDEST JUMPDEST PUSH2 0x1543 DUP8 DUP3 DUP9 ADD PUSH2 0x14AD JUMP JUMPDEST SWAP5 POP SWAP5 POP POP PUSH1 0x20 PUSH2 0x1556 DUP8 DUP3 DUP9 ADD PUSH2 0x1308 JUMP JUMPDEST SWAP3 POP POP PUSH1 0x40 PUSH2 0x1567 DUP8 DUP3 DUP9 ADD PUSH2 0x1308 JUMP JUMPDEST SWAP2 POP POP SWAP3 SWAP6 SWAP2 SWAP5 POP SWAP3 POP JUMP JUMPDEST PUSH2 0x157C DUP2 PUSH2 0x1234 JUMP JUMPDEST DUP3 MSTORE POP POP JUMP JUMPDEST PUSH2 0x158B DUP2 PUSH2 0x128C JUMP JUMPDEST DUP3 MSTORE POP POP JUMP JUMPDEST PUSH0 DUP3 DUP3 MSTORE PUSH1 0x20 DUP3 ADD SWAP1 POP SWAP3 SWAP2 POP POP JUMP JUMPDEST PUSH0 PUSH2 0x15AB DUP3 PUSH2 0x1356 JUMP JUMPDEST PUSH2 0x15B5 DUP2 DUP6 PUSH2 0x1591 JUMP JUMPDEST SWAP4 POP PUSH2 0x15C5 DUP2 DUP6 PUSH1 0x20 DUP7 ADD PUSH2 0x1370 JUMP JUMPDEST PUSH2 0x15CE DUP2 PUSH2 0x137E JUMP JUMPDEST DUP5 ADD SWAP2 POP POP SWAP3 SWAP2 POP POP JUMP JUMPDEST PUSH2 0x15E2 DUP2 PUSH2 0x13C6 JUMP JUMPDEST DUP3 MSTORE POP POP JUMP JUMPDEST PUSH0 PUSH2 0x100 DUP4 ADD PUSH0 DUP4 ADD MLOAD PUSH2 0x15FE PUSH0 DUP7 ADD DUP3 PUSH2 0x1573 JUMP JUMPDEST POP PUSH1 0x20 DUP4 ADD MLOAD PUSH2 0x1611 PUSH1 0x20 DUP7 ADD DUP3 PUSH2 0x1582 JUMP JUMPDEST POP PUSH1 0x40 DUP4 ADD MLOAD DUP5 DUP3 SUB PUSH1 0x40 DUP7 ADD MSTORE PUSH2 0x1629 DUP3 DUP3 PUSH2 0x15A1 JUMP JUMPDEST SWAP2 POP POP PUSH1 0x60 DUP4 ADD MLOAD PUSH2 0x163E PUSH1 0x60 DUP7 ADD DUP3 PUSH2 0x1573 JUMP JUMPDEST POP PUSH1 0x80 DUP4 ADD MLOAD PUSH2 0x1651 PUSH1 0x80 DUP7 ADD DUP3 PUSH2 0x1573 JUMP JUMPDEST POP PUSH1 0xA0 DUP4 ADD MLOAD PUSH2 0x1664 PUSH1 0xA0 DUP7 ADD DUP3 PUSH2 0x1573 JUMP JUMPDEST POP PUSH1 0xC0 DUP4 ADD MLOAD PUSH2 0x1677 PUSH1 0xC0 DUP7 ADD DUP3 PUSH2 0x15D9 JUMP JUMPDEST POP PUSH1 0xE0 DUP4 ADD MLOAD PUSH2 0x168A PUSH1 0xE0 DUP7 ADD DUP3 PUSH2 0x15D9 JUMP JUMPDEST POP DUP1 SWAP2 POP POP SWAP3 SWAP2 POP POP JUMP JUMPDEST PUSH0 PUSH1 0x20 DUP3 ADD SWAP1 POP DUP2 DUP2 SUB PUSH0 DUP4 ADD MSTORE PUSH2 0x16AD DUP2 DUP5 PUSH2 0x15E8 JUMP JUMPDEST SWAP1 POP SWAP3 SWAP2 POP POP JUMP JUMPDEST PUSH0 PUSH1 0x20 DUP3 ADD SWAP1 POP PUSH2 0x16C8 PUSH0 DUP4 ADD DUP5 PUSH2 0x13D1 JUMP JUMPDEST SWAP3 SWAP2 POP POP JUMP JUMPDEST PUSH0 PUSH1 0x40 DUP3 ADD SWAP1 POP PUSH2 0x16E1 PUSH0 DUP4 ADD DUP6 PUSH2 0x13D1 JUMP JUMPDEST PUSH2 0x16EE PUSH1 0x20 DUP4 ADD DUP5 PUSH2 0x123D JUMP JUMPDEST SWAP4 SWAP3 POP POP POP JUMP JUMPDEST PUSH0 PUSH1 0x20 DUP3 ADD SWAP1 POP PUSH2 0x1708 PUSH0 DUP4 ADD DUP5 PUSH2 0x1347 JUMP JUMPDEST SWAP3 SWAP2 POP POP JUMP JUMPDEST PUSH32 0x4E487B7100000000000000000000000000000000000000000000000000000000 PUSH0 MSTORE PUSH1 0x11 PUSH1 0x4 MSTORE PUSH1 0x24 PUSH0 REVERT JUMPDEST PUSH0 PUSH2 0x1745 DUP3 PUSH2 0x1234 JUMP JUMPDEST SWAP2 POP PUSH2 0x1750 DUP4 PUSH2 0x1234 JUMP JUMPDEST SWAP3 POP DUP3 DUP3 SUB SWAP1 POP DUP2 DUP2 GT ISZERO PUSH2 0x1768 JUMPI PUSH2 0x1767 PUSH2 0x170E JUMP JUMPDEST JUMPDEST SWAP3 SWAP2 POP POP JUMP JUMPDEST PUSH32 0x4E487B7100000000000000000000000000000000000000000000000000000000 PUSH0 MSTORE PUSH1 0x22 PUSH1 0x4 MSTORE PUSH1 0x24 PUSH0 REVERT JUMPDEST PUSH0 PUSH1 0x2 DUP3 DIV SWAP1 POP PUSH1 0x1 DUP3 AND DUP1 PUSH2 0x17B2 JUMPI PUSH1 0x7F DUP3 AND SWAP2 POP JUMPDEST PUSH1 0x20 DUP3 LT DUP2 SUB PUSH2 0x17C5 JUMPI PUSH2 0x17C4 PUSH2 0x176E JUMP JUMPDEST JUMPDEST POP SWAP2 SWAP1 POP JUMP JUMPDEST PUSH32 0x416C7265616479206F776E20612063616D706169676E00000000000000000000 PUSH0 DUP3 ADD MSTORE POP JUMP JUMPDEST PUSH0 PUSH2 0x17FF PUSH1 0x16 DUP4 PUSH2 0x1360 JUMP JUMPDEST SWAP2 POP PUSH2 0x180A DUP3 PUSH2 0x17CB JUMP JUMPDEST PUSH1 0x20 DUP3 ADD SWAP1 POP SWAP2 SWAP1 POP JUMP JUMPDEST PUSH0 PUSH1 0x20 DUP3 ADD SWAP1 POP DUP2 DUP2 SUB PUSH0 DUP4 ADD MSTORE PUSH2 0x182C DUP2 PUSH2 0x17F3 JUMP JUMPDEST SWAP1 POP SWAP2 SWAP1 POP JUMP JUMPDEST PUSH32 0x456D707479204349440000000000000000000000000000000000000000000000 PUSH0 DUP3 ADD MSTORE POP JUMP JUMPDEST PUSH0 PUSH2 0x1867 PUSH1 0x9 DUP4 PUSH2 0x1360 JUMP JUMPDEST SWAP2 POP PUSH2 0x1872 DUP3 PUSH2 0x1833 JUMP JUMPDEST PUSH1 0x20 DUP3 ADD SWAP1 POP SWAP2 SWAP1 POP JUMP JUMPDEST PUSH0 PUSH1 0x20 DUP3 ADD SWAP1 POP DUP2 DUP2 SUB PUSH0 DUP4 ADD MSTORE PUSH2 0x1894 DUP2 PUSH2 0x185B JUMP JUMPDEST SWAP1 POP SWAP2 SWAP1 POP JUMP JUMPDEST PUSH32 0x5072696365206D757374206265203E2030000000000000000000000000000000 PUSH0 DUP3 ADD MSTORE POP JUMP JUMPDEST PUSH0 PUSH2 0x18CF PUSH1 0x11 DUP4 PUSH2 0x1360 JUMP JUMPDEST SWAP2 POP PUSH2 0x18DA DUP3 PUSH2 0x189B JUMP JUMPDEST PUSH1 0x20 DUP3 ADD SWAP1 POP SWAP2 SWAP1 POP JUMP JUMPDEST PUSH0 PUSH1 0x20 DUP3 ADD SWAP1 POP DUP2 DUP2 SUB PUSH0 DUP4 ADD MSTORE PUSH2 0x18FC DUP2 PUSH2 0x18C3 JUMP JUMPDEST SWAP1 POP SWAP2 SWAP1 POP JUMP JUMPDEST PUSH32 0x4475726174696F6E206D757374206265203E2030000000000000000000000000 PUSH0 DUP3 ADD MSTORE POP JUMP JUMPDEST PUSH0 PUSH2 0x1937 PUSH1 0x14 DUP4 PUSH2 0x1360 JUMP JUMPDEST SWAP2 POP PUSH2 0x1942 DUP3 PUSH2 0x1903 JUMP JUMPDEST PUSH1 0x20 DUP3 ADD SWAP1 POP SWAP2 SWAP1 POP JUMP JUMPDEST PUSH0 PUSH1 0x20 DUP3 ADD SWAP1 POP DUP2 DUP2 SUB PUSH0 DUP4 ADD MSTORE PUSH2 0x1964 DUP2 PUSH2 0x192B JUMP JUMPDEST SWAP1 POP SWAP2 SWAP1 POP JUMP JUMPDEST PUSH0 PUSH2 0x1975 DUP3 PUSH2 0x1234 JUMP JUMPDEST SWAP2 POP PUSH32 0xFFFFFFFFFFFFFFFFFFFFFFFFFFFFFFFFFFFFFFFFFFFFFFFFFFFFFFFFFFFFFFFF DUP3 SUB PUSH2 0x19A7 JUMPI PUSH2 0x19A6 PUSH2 0x170E JUMP JUMPDEST JUMPDEST PUSH1 0x1 DUP3 ADD SWAP1 POP SWAP2 SWAP1 POP JUMP JUMPDEST PUSH32 0x4E487B7100000000000000000000000000000000000000000000000000000000 PUSH0 MSTORE PUSH1 0x41 PUSH1 0x4 MSTORE PUSH1 0x24 PUSH0 REVERT JUMPDEST PUSH0 DUP2 SWAP1 POP DUP2 PUSH0 MSTORE PUSH1 0x20 PUSH0 KECCAK256 SWAP1 POP SWAP2 SWAP1 POP JUMP JUMPDEST PUSH0 PUSH1 0x20 PUSH1 0x1F DUP4 ADD DIV SWAP1 POP SWAP2 SWAP1 POP JUMP JUMPDEST PUSH0 DUP3 DUP3 SHL SWAP1 POP SWAP3 SWAP2 POP POP JUMP JUMPDEST PUSH0 PUSH1 0x8 DUP4 MUL PUSH2 0x1A3B PUSH32 0xFFFFFFFFFFFFFFFFFFFFFFFFFFFFFFFFFFFFFFFFFFFFFFFFFFFFFFFFFFFFFFFF DUP3 PUSH2 0x1A00 JUMP JUMPDEST PUSH2 0x1A45 DUP7 DUP4 PUSH2 0x1A00 JUMP JUMPDEST SWAP6 POP DUP1 NOT DUP5 AND SWAP4 POP DUP1 DUP7 AND DUP5 OR SWAP3 POP POP POP SWAP4 SWAP3 POP POP POP JUMP JUMPDEST PUSH0 DUP2 SWAP1 POP SWAP2 SWAP1 POP JUMP JUMPDEST PUSH0 PUSH2 0x1A80 PUSH2 0x1A7B PUSH2 0x1A76 DUP5 PUSH2 0x1234 JUMP JUMPDEST PUSH2 0x1A5D JUMP JUMPDEST PUSH2 0x1234 JUMP JUMPDEST SWAP1 POP SWAP2 SWAP1 POP JUMP JUMPDEST PUSH0 DUP2 SWAP1 POP SWAP2 SWAP1 POP JUMP JUMPDEST PUSH2 0x1A99 DUP4 PUSH2 0x1A66 JUMP JUMPDEST PUSH2 0x1AAD PUSH2 0x1AA5 DUP3 PUSH2 0x1A87 JUMP JUMPDEST DUP5 DUP5 SLOAD PUSH2 0x1A0C JUMP JUMPDEST DUP3 SSTORE POP POP POP POP JUMP JUMPDEST PUSH0 PUSH0 SWAP1 POP SWAP1 JUMP JUMPDEST PUSH2 0x1AC4 PUSH2 0x1AB5 JUMP JUMPDEST PUSH2 0x1ACF DUP2 DUP5 DUP5 PUSH2 0x1A90 JUMP JUMPDEST POP POP POP JUMP JUMPDEST JUMPDEST DUP2 DUP2 LT ISZERO PUSH2 0x1AF2 JUMPI PUSH2 0x1AE7 PUSH0 DUP3 PUSH2 0x1ABC JUMP JUMPDEST PUSH1 0x1 DUP2 ADD SWAP1 POP PUSH2 0x1AD5 JUMP JUMPDEST POP POP JUMP JUMPDEST PUSH1 0x1F DUP3 GT ISZERO PUSH2 0x1B37 JUMPI PUSH2 0x1B08 DUP2 PUSH2 0x19DF JUMP JUMPDEST PUSH2 0x1B11 DUP5 PUSH2 0x19F1 JUMP JUMPDEST DUP2 ADD PUSH1 0x20 DUP6 LT ISZERO PUSH2 0x1B20 JUMPI DUP2 SWAP1 POP JUMPDEST PUSH2 0x1B34 PUSH2 0x1B2C DUP6 PUSH2 0x19F1 JUMP JUMPDEST DUP4 ADD DUP3 PUSH2 0x1AD4 JUMP JUMPDEST POP POP JUMPDEST POP POP POP JUMP JUMPDEST PUSH0 DUP3 DUP3 SHR SWAP1 POP SWAP3 SWAP2 POP POP JUMP JUMPDEST PUSH0 PUSH2 0x1B57 PUSH0 NOT DUP5 PUSH1 0x8 MUL PUSH2 0x1B3C JUMP JUMPDEST NOT DUP1 DUP4 AND SWAP2 POP POP SWAP3 SWAP2 POP POP JUMP JUMPDEST PUSH0 PUSH2 0x1B6F DUP4 DUP4 PUSH2 0x1B48 JUMP JUMPDEST SWAP2 POP DUP3 PUSH1 0x2 MUL DUP3 OR SWAP1 POP SWAP3 SWAP2 POP POP JUMP JUMPDEST PUSH2 0x1B88 DUP3 PUSH2 0x1356 JUMP JUMPDEST PUSH8 0xFFFFFFFFFFFFFFFF DUP2 GT ISZERO PUSH2 0x1BA1 JUMPI PUSH2 0x1BA0 PUSH2 0x19B2 JUMP JUMPDEST JUMPDEST PUSH2 0x1BAB DUP3 SLOAD PUSH2 0x179B JUMP JUMPDEST PUSH2 0x1BB6 DUP3 DUP3 DUP6 PUSH2 0x1AF6 JUMP JUMPDEST PUSH0 PUSH1 0x20 SWAP1 POP PUSH1 0x1F DUP4 GT PUSH1 0x1 DUP2 EQ PUSH2 0x1BE7 JUMPI PUSH0 DUP5 ISZERO PUSH2 0x1BD5 JUMPI DUP3 DUP8 ADD MLOAD SWAP1 POP JUMPDEST PUSH2 0x1BDF DUP6 DUP3 PUSH2 0x1B64 JUMP JUMPDEST DUP7 SSTORE POP PUSH2 0x1C46 JUMP JUMPDEST PUSH1 0x1F NOT DUP5 AND PUSH2 0x1BF5 DUP7 PUSH2 0x19DF JUMP JUMPDEST PUSH0 JUMPDEST DUP3 DUP2 LT ISZERO PUSH2 0x1C1C JUMPI DUP5 DUP10 ADD MLOAD DUP3 SSTORE PUSH1 0x1 DUP3 ADD SWAP2 POP PUSH1 0x20 DUP6 ADD SWAP5 POP PUSH1 0x20 DUP2 ADD SWAP1 POP PUSH2 0x1BF7 JUMP JUMPDEST DUP7 DUP4 LT ISZERO PUSH2 0x1C39 JUMPI DUP5 DUP10 ADD MLOAD PUSH2 0x1C35 PUSH1 0x1F DUP10 AND DUP3 PUSH2 0x1B48 JUMP JUMPDEST DUP4 SSTORE POP JUMPDEST PUSH1 0x1 PUSH1 0x2 DUP9 MUL ADD DUP9 SSTORE POP POP POP JUMPDEST POP POP POP POP POP POP JUMP JUMPDEST DUP3 DUP2 DUP4 CALLDATACOPY PUSH0 DUP4 DUP4 ADD MSTORE POP POP POP JUMP JUMPDEST PUSH0 PUSH2 0x1C67 DUP4 DUP6 PUSH2 0x1360 JUMP JUMPDEST SWAP4 POP PUSH2 0x1C74 DUP4 DUP6 DUP5 PUSH2 0x1C4E JUMP JUMPDEST PUSH2 0x1C7D DUP4 PUSH2 0x137E JUMP JUMPDEST DUP5 ADD SWAP1 POP SWAP4 SWAP3 POP POP POP JUMP JUMPDEST PUSH0 PUSH1 0x60 DUP3 ADD SWAP1 POP DUP2 DUP2 SUB PUSH0 DUP4 ADD MSTORE PUSH2 0x1CA1 DUP2 DUP7 DUP9 PUSH2 0x1C5C JUMP JUMPDEST SWAP1 POP PUSH2 0x1CB0 PUSH1 0x20 DUP4 ADD DUP6 PUSH2 0x123D JUMP JUMPDEST PUSH2 0x1CBD PUSH1 0x40 DUP4 ADD DUP5 PUSH2 0x123D JUMP JUMPDEST SWAP6 SWAP5 POP POP POP POP POP JUMP JUMPDEST PUSH32 0x4E6F7420666F756E640000000000000000000000000000000000000000000000 PUSH0 DUP3 ADD MSTORE POP JUMP JUMPDEST PUSH0 PUSH2 0x1CFA PUSH1 0x9 DUP4 PUSH2 0x1360 JUMP JUMPDEST SWAP2 POP PUSH2 0x1D05 DUP3 PUSH2 0x1CC6 JUMP JUMPDEST PUSH1 0x20 DUP3 ADD SWAP1 POP SWAP2 SWAP1 POP JUMP JUMPDEST PUSH0 PUSH1 0x20 DUP3 ADD SWAP1 POP DUP2 DUP2 SUB PUSH0 DUP4 ADD MSTORE PUSH2 0x1D27 DUP2 PUSH2 0x1CEE JUMP JUMPDEST SWAP1 POP SWAP2 SWAP1 POP JUMP JUMPDEST PUSH32 0x4E6F74206F776E65720000000000000000000000000000000000000000000000 PUSH0 DUP3 ADD MSTORE POP JUMP JUMPDEST PUSH0 PUSH2 0x1D62 PUSH1 0x9 DUP4 PUSH2 0x1360 JUMP JUMPDEST SWAP2 POP PUSH2 0x1D6D DUP3 PUSH2 0x1D2E JUMP JUMPDEST PUSH1 0x20 DUP3 ADD SWAP1 POP SWAP2 SWAP1 POP JUMP JUMPDEST PUSH0 PUSH1 0x20 DUP3 ADD SWAP1 POP DUP2 DUP2 SUB PUSH0 DUP4 ADD MSTORE PUSH2 0x1D8F DUP2 PUSH2 0x1D56 JUMP JUMPDEST SWAP1 POP SWAP2 SWAP1 POP JUMP JUMPDEST PUSH32 0x416C726561647920696E61637469766500000000000000000000000000000000 PUSH0 DUP3 ADD MSTORE POP JUMP JUMPDEST PUSH0 PUSH2 0x1DCA PUSH1 0x10 DUP4 PUSH2 0x1360 JUMP JUMPDEST SWAP2 POP PUSH2 0x1DD5 DUP3 PUSH2 0x1D96 JUMP JUMPDEST PUSH1 0x20 DUP3 ADD SWAP1 POP SWAP2 SWAP1 POP JUMP JUMPDEST PUSH0 PUSH1 0x20 DUP3 ADD SWAP1 POP DUP2 DUP2 SUB PUSH0 DUP4 ADD MSTORE PUSH2 0x1DF7 DUP2 PUSH2 0x1DBE JUMP JUMPDEST SWAP1 POP SWAP2 SWAP1 POP JUMP JUMPDEST PUSH32 0x4E6F742061637469766500000000000000000000000000000000000000000000 PUSH0 DUP3 ADD MSTORE POP JUMP JUMPDEST PUSH0 PUSH2 0x1E32 PUSH1 0xA DUP4 PUSH2 0x1360 JUMP JUMPDEST SWAP2 POP PUSH2 0x1E3D DUP3 PUSH2 0x1DFE JUMP JUMPDEST PUSH1 0x20 DUP3 ADD SWAP1 POP SWAP2 SWAP1 POP JUMP JUMPDEST PUSH0 PUSH1 0x20 DUP3 ADD SWAP1 POP DUP2 DUP2 SUB PUSH0 DUP4 ADD MSTORE PUSH2 0x1E5F DUP2 PUSH2 0x1E26 JUMP JUMPDEST SWAP1 POP SWAP2 SWAP1 POP JUMP JUMPDEST PUSH32 0x536F6C64206F7574000000000000000000000000000000000000000000000000 PUSH0 DUP3 ADD MSTORE POP JUMP JUMPDEST PUSH0 PUSH2 0x1E9A PUSH1 0x8 DUP4 PUSH2 0x1360 JUMP JUMPDEST SWAP2 POP PUSH2 0x1EA5 DUP3 PUSH2 0x1E66 JUMP JUMPDEST PUSH1 0x20 DUP3 ADD SWAP1 POP SWAP2 SWAP1 POP JUMP JUMPDEST PUSH0 PUSH1 0x20 DUP3 ADD SWAP1 POP DUP2 DUP2 SUB PUSH0 DUP4 ADD MSTORE PUSH2 0x1EC7 DUP2 PUSH2 0x1E8E JUMP JUMPDEST SWAP1 POP SWAP2 SWAP1 POP JUMP JUMPDEST PUSH32 0x496E73756666696369656E74207061796D656E74000000000000000000000000 PUSH0 DUP3 ADD MSTORE POP JUMP JUMPDEST PUSH0 PUSH2 0x1F02 PUSH1 0x14 DUP4 PUSH2 0x1360 JUMP JUMPDEST SWAP2 POP PUSH2 0x1F0D DUP3 PUSH2 0x1ECE JUMP JUMPDEST PUSH1 0x20 DUP3 ADD SWAP1 POP SWAP2 SWAP1 POP JUMP JUMPDEST PUSH0 PUSH1 0x20 DUP3 ADD SWAP1 POP DUP2 DUP2 SUB PUSH0 DUP4 ADD MSTORE PUSH2 0x1F2F DUP2 PUSH2 0x1EF6 JUMP JUMPDEST SWAP1 POP SWAP2 SWAP1 POP JUMP JUMPDEST PUSH0 PUSH2 0x1F40 DUP3 PUSH2 0x1234 JUMP JUMPDEST SWAP2 POP PUSH2 0x1F4B DUP4 PUSH2 0x1234 JUMP JUMPDEST SWAP3 POP DUP3 DUP3 MUL PUSH2 0x1F59 DUP2 PUSH2 0x1234 JUMP JUMPDEST SWAP2 POP DUP3 DUP3 DIV DUP5 EQ DUP4 ISZERO OR PUSH2 0x1F70 JUMPI PUSH2 0x1F6F PUSH2 0x170E JUMP JUMPDEST JUMPDEST POP SWAP3 SWAP2 POP POP JUMP JUMPDEST PUSH32 0x4E487B7100000000000000000000000000000000000000000000000000000000 PUSH0 MSTORE PUSH1 0x12 PUSH1 0x4 MSTORE PUSH1 0x24 PUSH0 REVERT JUMPDEST PUSH0 PUSH2 0x1FAE DUP3 PUSH2 0x1234 JUMP JUMPDEST SWAP2 POP PUSH2 0x1FB9 DUP4 PUSH2 0x1234 JUMP JUMPDEST SWAP3 POP DUP3 PUSH2 0x1FC9 JUMPI PUSH2 0x1FC8 PUSH2 0x1F77 JUMP JUMPDEST JUMPDEST DUP3 DUP3 DIV SWAP1 POP SWAP3 SWAP2 POP POP JUMP JUMPDEST PUSH0 PUSH2 0x1FDE DUP3 PUSH2 0x1234 JUMP JUMPDEST SWAP2 POP PUSH2 0x1FE9 DUP4 PUSH2 0x1234 JUMP JUMPDEST SWAP3 POP DUP3 DUP3 ADD SWAP1 POP DUP1 DUP3 GT ISZERO PUSH2 0x2001 JUMPI PUSH2 0x2000 PUSH2 0x170E JUMP JUMPDEST JUMPDEST SWAP3 SWAP2 POP POP JUMP JUMPDEST PUSH0 PUSH1 0x40 DUP3 ADD SWAP1 POP PUSH2 0x201A PUSH0 DUP4 ADD DUP6 PUSH2 0x123D JUMP JUMPDEST PUSH2 0x2027 PUSH1 0x20 DUP4 ADD DUP5 PUSH2 0x123D JUMP JUMPDEST SWAP4 SWAP3 POP POP POP JUMP INVALID LOG2 PUSH5 0x6970667358 0x22 SLT KECCAK256 0x1F 0xDE 0xC4 DUP6 EQ SWAP5 0x4D JUMPF 0x99F2 SWAP14 AND 0x4D 0xE CALLDATASIZE CALLER PUSH2 0x6239 0xC2 MSTORE ADDMOD 0xEA EXTDELEGATECALL 0xDF SLT 0x2A CALLER SLT PUSH6 0xA99064736F6C PUSH4 0x4300081E STOP CALLER "
				},
				"gasEstimates": {
					"creation": {
						"codeDepositCost": "1658400",
						"executionCost": "infinite",
						"totalCost": "infinite"
					},
					"external": {
						"accessExpiry(uint256,address)": "infinite",
						"campaigns(uint256)": "infinite",
						"createCampaign(string,uint256,uint256)": "infinite",
						"creatorCampaignId(address)": "2848",
						"deactivateCampaign(uint256)": "30315",
						"getCampaign(uint256)": "infinite",
						"getCampaignByCreator(address)": "2918",
						"hasAccess(uint256,address)": "infinite",
						"hasCampaign(address)": "2878",
						"platformFeeBps()": "infinite",
						"platformTreasury()": "infinite",
						"purchaseAccess(uint256)": "infinite",
						"revenueCapWei()": "infinite",
						"totalCampaigns()": "infinite"
					}
				},
				"methodIdentifiers": {
					"accessExpiry(uint256,address)": "22f850b3",
					"campaigns(uint256)": "141961bc",
					"createCampaign(string,uint256,uint256)": "3020580b",
					"creatorCampaignId(address)": "09f7c6d1",
					"deactivateCampaign(uint256)": "7eca30fe",
					"getCampaign(uint256)": "5598f8cc",
					"getCampaignByCreator(address)": "328df91d",
					"hasAccess(uint256,address)": "ced14198",
					"hasCampaign(address)": "691f6df7",
					"platformFeeBps()": "22dcd13e",
					"platformTreasury()": "e138818c",
					"purchaseAccess(uint256)": "b91d0a2f",
					"revenueCapWei()": "ce546ffa",
					"totalCampaigns()": "02932f56"
				}
			},
			"storageLayout": {
				"storage": [
					{
						"astId": 27,
						"contract": "PrivateStreamMezo.sol:PrivateStreamMezo",
						"label": "_nextId",
						"offset": 0,
						"slot": "0",
						"type": "t_uint256"
					},
					{
						"astId": 32,
						"contract": "PrivateStreamMezo.sol:PrivateStreamMezo",
						"label": "campaigns",
						"offset": 0,
						"slot": "1",
						"type": "t_mapping(t_uint256,t_struct(Campaign)19_storage)"
					},
					{
						"astId": 36,
						"contract": "PrivateStreamMezo.sol:PrivateStreamMezo",
						"label": "hasCampaign",
						"offset": 0,
						"slot": "2",
						"type": "t_mapping(t_address,t_bool)"
					},
					{
						"astId": 40,
						"contract": "PrivateStreamMezo.sol:PrivateStreamMezo",
						"label": "creatorCampaignId",
						"offset": 0,
						"slot": "3",
						"type": "t_mapping(t_address,t_uint256)"
					},
					{
						"astId": 46,
						"contract": "PrivateStreamMezo.sol:PrivateStreamMezo",
						"label": "accessExpiry",
						"offset": 0,
						"slot": "4",
						"type": "t_mapping(t_uint256,t_mapping(t_address,t_uint256))"
					}
				],
				"types": {
					"t_address": {
						"encoding": "inplace",
						"label": "address",
						"numberOfBytes": "20"
					},
					"t_bool": {
						"encoding": "inplace",
						"label": "bool",
						"numberOfBytes": "1"
					},
					"t_mapping(t_address,t_bool)": {
						"encoding": "mapping",
						"key": "t_address",
						"label": "mapping(address => bool)",
						"numberOfBytes": "32",
						"value": "t_bool"
					},
					"t_mapping(t_address,t_uint256)": {
						"encoding": "mapping",
						"key": "t_address",
						"label": "mapping(address => uint256)",
						"numberOfBytes": "32",
						"value": "t_uint256"
					},
					"t_mapping(t_uint256,t_mapping(t_address,t_uint256))": {
						"encoding": "mapping",
						"key": "t_uint256",
						"label": "mapping(uint256 => mapping(address => uint256))",
						"numberOfBytes": "32",
						"value": "t_mapping(t_address,t_uint256)"
					},
					"t_mapping(t_uint256,t_struct(Campaign)19_storage)": {
						"encoding": "mapping",
						"key": "t_uint256",
						"label": "mapping(uint256 => struct PrivateStreamMezo.Campaign)",
						"numberOfBytes": "32",
						"value": "t_struct(Campaign)19_storage"
					},
					"t_string_storage": {
						"encoding": "bytes",
						"label": "string",
						"numberOfBytes": "32"
					},
					"t_struct(Campaign)19_storage": {
						"encoding": "inplace",
						"label": "struct PrivateStreamMezo.Campaign",
						"members": [
							{
								"astId": 4,
								"contract": "PrivateStreamMezo.sol:PrivateStreamMezo",
								"label": "id",
								"offset": 0,
								"slot": "0",
								"type": "t_uint256"
							},
							{
								"astId": 6,
								"contract": "PrivateStreamMezo.sol:PrivateStreamMezo",
								"label": "creator",
								"offset": 0,
								"slot": "1",
								"type": "t_address"
							},
							{
								"astId": 8,
								"contract": "PrivateStreamMezo.sol:PrivateStreamMezo",
								"label": "metadataCID",
								"offset": 0,
								"slot": "2",
								"type": "t_string_storage"
							},
							{
								"astId": 10,
								"contract": "PrivateStreamMezo.sol:PrivateStreamMezo",
								"label": "priceWei",
								"offset": 0,
								"slot": "3",
								"type": "t_uint256"
							},
							{
								"astId": 12,
								"contract": "PrivateStreamMezo.sol:PrivateStreamMezo",
								"label": "durationSeconds",
								"offset": 0,
								"slot": "4",
								"type": "t_uint256"
							},
							{
								"astId": 14,
								"contract": "PrivateStreamMezo.sol:PrivateStreamMezo",
								"label": "totalRevenueWei",
								"offset": 0,
								"slot": "5",
								"type": "t_uint256"
							},
							{
								"astId": 16,
								"contract": "PrivateStreamMezo.sol:PrivateStreamMezo",
								"label": "active",
								"offset": 0,
								"slot": "6",
								"type": "t_bool"
							},
							{
								"astId": 18,
								"contract": "PrivateStreamMezo.sol:PrivateStreamMezo",
								"label": "soldOut",
								"offset": 1,
								"slot": "6",
								"type": "t_bool"
							}
						],
						"numberOfBytes": "224"
					},
					"t_uint256": {
						"encoding": "inplace",
						"label": "uint256",
						"numberOfBytes": "32"
					}
				}
			},
			"userdoc": {
				"kind": "user",
				"methods": {
					"createCampaign(string,uint256,uint256)": {
						"notice": "Create a new campaign. One campaign per wallet."
					},
					"deactivateCampaign(uint256)": {
						"notice": "Creator can deactivate their own campaign "
					},
					"getCampaign(uint256)": {
						"notice": "Get full campaign data "
					},
					"getCampaignByCreator(address)": {
						"notice": "Get the campaign ID owned by a creator (0 if none) "
					},
					"hasAccess(uint256,address)": {
						"notice": "Check if a buyer has valid, unexpired access "
					},
					"purchaseAccess(uint256)": {
						"notice": "Purchase access to a campaign. Send exactly priceWei BTC."
					},
					"totalCampaigns()": {
						"notice": "Total number of campaigns ever created "
					}
				},
				"notice": "Privacy-preserving encrypted video access platform on Mezo.",
				"version": 1
			}
		}
	}
}